:020000040800F2
:10000000A0060020F10100084F290008E72500089C
:100010004D29000829030008993900080000000054
:10002000000000000000000000000000912F000808
:100030002B0300080000000051290008932F00083E
:100040000B0200080B0200080B0200080B0200085C
:100050000B0200080B0200080B0200080B0200084C
:100060000B0200080B0200080B0200080B0200083C
:100070000B0200080B0200080B0200080B0200082C
:100080000B020008000000000B0200080B02000831
:100090000B020008510300080B0200080B020008C5
:1000A0000B0200080B0200080B0200080B020008FC
:1000B0000B0200080B0200080B0200080B020008EC
:1000C0000B0200080B0200080B0200080B020008DC
:1000D0000B0200080B0200080B0200088D39000813
:1000E0000B0200080B0200080B0200080B020008BC
:1000F0000B0200080B0200080B02000800000000C1
:10010000000000000B020008000000000B020008C5
:100110000B020008000000000B0200080B020008A0
:100120000B0200080B0200080B0200080B0200087B
:100130000B02000800000000000000000B02000895
:100140000B0200080B020008000000000000000085
:10015000000000000000000000000000000000009F
:100160000000000000000000000000000B0200087A
:100170000B0200080000000000000000000000006A
:10018000000000000B02000800000000000000005A
:10019000000000000000000000000000000000005F
:1001A00000000000000000000B0200080B02000825
:1001B0000B0200080B0200080B0200080000000000
:1001C000000000000B02000800000000000000001A
:1001D0000B0200080B020008DFF810D000F092F8C4
:1001E00000480047653B0008AFF30080A0060020F0
:1001F0000648804706480047FEE7FEE7FEE7FEE7C1
:10020000FEE7FEE7FEE7FEE7FEE7FEE7FD2F00085C
:10021000D90100082DE9F05F0546002092469B4673
:1002200088460646814640241BE02846414647460C
:10023000224600F057F853465A46C01A914110D34F
:1002400011461846224600F03EF82D1A67EB0108C9
:100250004F4622460120002100F035F817EB000937
:100260004E41201EA4F10104DFDC484631462A46F7
:100270004346BDE8F09FD2B201E000F8012B491ED1
:10028000FBD270470022F6E710B513460A46044633
:100290001946FFF7F0FF204610BD30B50B4601466A
:1002A00000202022012409E021FA02F59D4205D315
:1002B00003FA02F5491B04FA02F52844151EA2F1BF
:1002C0000102F1DC30BD202A04DB203A00FA02F101
:1002D000002070479140C2F1200320FA03F3194334
:1002E00090407047202A04DB203A21FA02F00021D6
:1002F000704721FA02F3D040C2F120029140084336
:1003000019467047064C074D06E0E06840F00103CF
:1003100094E8070098471034AC42F6D3FFF760FF2B
:10032000E043000800440008FEE770470122402136
:10033000014800F077BC0000000400480022402182
:10034000014800F06FBC00000004004872B6FEE7F0
:10035000014800F028B900009400002010B590F882
:10036000253000210122022B03D00421C163012189
:1003700022E003681C6824F00E041C60836C1C6877
:1003800024F480741C6003681C6824F001041C6061
:1003900090F84430046C03F01F0302FA03F3636027
:1003A000D0E913345C60436D33B11C6824F480746D
:1003B0001C60D0E916345C6080F82520002280F8AB
:1003C0002420084610BD70B590F825200024012196
:1003D0002346022A07D00422C26380F8251080F841
:1003E0002430012429E00268156825F00E05156007
:1003F0000268156825F001051560826C156825F402
:100400008075156090F84420056C02F01F0201FA17
:1004100002F26A60D0E913255560426D32B1156869
:1004200025F480751560D0E91625556080F82510F3
:1004300080F82430816B01B18847204670BD0000F0
:1004400070B5044600F0F4FB0546601C02D0044879
:100450004068044400F0ECFB401BA042FAD370BD9E
:100460000400002030B590F85C30012B07D0022B3F
:1004700005D0016E41F002010166012030BD046823
:10048000A36D4D0701D0DD071DD011F0380F01D04D
:100490009D0718D511F4E07F01D05D0713D511F445
:1004A000F05F01D01D070ED511F4604F01D0DD06BD
:1004B00009D511F4403F01D09D0604D511F47C0FFD
:1004C00005D05D0603D4E56D45F00105E5654C07F3
:1004D00001D0DC071DD111F0380F01D09C0718D4D2
:1004E00011F4E07F01D05C0713D411F4F05F01D068
:1004F0001C070ED411F4604F01D0DC0609D411F4AE
:10050000403F01D09C0604D411F47C0F06D05B065A
:1005100004D50368DC6D44F00204DC650B0604D5E9
:10052000036853F8DC4F14431C60CB0504D5036803
:1005300053F8E04F14431C600068426D0A43426563
:10054000002030BD10B590F85C20012A07D0022AA7
:1005500005D0016E41F002010166012010BD0A685C
:100560007AB10B7B0A690C7A42EA43734A69406CA0
:10057000496842EA847200EBC100C0E90032002001
:1005800010BD0B7A4A690C8A42EA83720B7B006CBD
:10059000DB06496843EA04431A4340F82120EEE7AA
:1005A0007047704770472DE9F05F04460068016DA1
:1005B000426D01F4E05102EA0108016D426D01F063
:1005C000070102EA0109016D426D01F0380102EAFA
:1005D000010A016D476D01F471010F40016D426D1B
:1005E00001F46021456D02EA010B016DCE437106F5
:1005F00007D4E943490604D4402101652046FFF7AA
:10060000D1FFF0050ED4E843C0050BD42068D0F824
:10061000D820D0F8E01011404FF4807202652046D7
:1006200000F0D8F9B8F1000005D02168086541460E
:10063000204600F0D1F9B9F1000005D02168086525
:100640004946204600F0ACF9BAF1000005D0216817
:1006500008655146204600F0A4F9B00509D4E843E6
:10066000800506D421684FF400700865204600F02C
:10067000B4F930060DD4E84300060AD42068D0F857
:10068000D420D0F8DC10114080220265204600F012
:10069000A2F9B00409D4E843800406D421684FF4D9
:1006A00000500865204600F094F9300409D4E8436E
:1006B000000406D421684FF400400865204600F08D
:1006C00087F970040AD4E843400407D421684FF442
:1006D00080400865206E40F080002066BBF100007D
:1006E00005D02168086559462046FFF75AFF27B113
:1006F00020680765206E38432066206E002802D0EF
:100700002046FFF74DFFBDE8F09F00002DE9F041C6
:10071000040006D0DFF8E88194F85C00002518B1E9
:1007200007E00120BDE8F08184F85D50204600F02C
:10073000EFF82068816921F01001816100F078FAFA
:100740000646032705E000BF00F072FA801B0A2866
:1007500011D8206880690007F6D42068816941F0CB
:100760000101816100F064FA06460BE000F060FAD6
:10077000801B0A2806D9206E40F00100206684F80C
:100780005C70CEE720688069C007EFD0206881697F
:1007900041F0020181612168414502D159496068F7
:1007A0000860207C01282068816937D041F0400131
:1007B0008161607C01282068816932D021F4804108
:1007C0008161A07C0128206881692DD041F480518D
:1007D000816120688169A26821F4407111438161BF
:1007E0002068816921F0A40181612068016921F0FC
:1007F00010010161E068012819D010B302281BD054
:100800002068816941F0800181612068016941F0BF
:1008100010010161E06803280ED012E021F04001D0
:10082000C6E741F48041CBE721F48051D0E720684E
:10083000816941F0040103E02068816941F02001F1
:100840008161207EE26940066FF0FF0101EB022228
:10085000A0F100701043226AA38A521E10430A02BC
:1008600002EB034318432368D861A068B0F5407FCA
:1008700010D1D4E90A0301EB0321401E0843216B88
:10088000131303EB01110843A18C02EB0141084350
:100890002168C860206850F8C01FE26B11430160F6
:1008A00019482064216851F8802FA38E22F4F81291
:1008B00042EA03420A60144970316164216851F8C8
:1008C000802F94F8383022F0706242EA03620A60A6
:1008D0000D49B031A1640D49E1640C49D83121655D
:1008E0000A49F031616500F5547120C08842FCD39B
:1008F000A5652566012084F85C00002012E7000051
:10090000006400400065004000A4004088A500404D
:1009100010B598B00446142111A8FFF7B3FC442188
:100920006846FFF7AFFC1B492068884230D180142D
:10093000009040030C90684600F078FA08B1FFF789
:1009400005FD1548816D41F000718165816D01F0F3
:1009500000711691C16C41F00201C164C06C11A913
:1009600000F0020016904FF4407011900220129097
:1009700000201390149009201590084800F02EF8DC
:1009800000221146152000F0B9F9152000F0A8F951
:1009900018B010BD00640040001002400004004880
:1009A0007047704790F85C10012905D0016E41F046
:1009B0000401016601207047022180F85C10016883
:1009C0008A6922F001028A610021016608467047A7
:1009D0007047704770477047704770472DE9F04F78
:1009E000DFF82092002301260324A9F1040B85B02F
:1009F0000F2709F1040AABF1040EFAE006FA03F539
:100A00002A407CD091F804C00CF0030CBCF1010F1B
:100A100002D0BCF1020F26D1D0F808C0CDF800C03A
:100A20004FEA430C04FA0CF8CDF810C0DDF800C012
:100A30002CEA080CCDF800C0D1F80C80DDF810C00D
:100A400008FA0CF8DDF800C048EA0C08C0F8088085
:100A5000D0F804C02CEA050C0D79C5F300159D40B3
:100A600045EA0C0545600D79ED43AD070ED0C5682C
:100A70004FEA430804FA08FC25EA0C05D1F808C03F
:100A80000CFA08FC4CEA050CC0F80CC00D7905F016
:100A90000305022D16D1DD0800EB850CCDF808C04A
:100AA000DCF820805D074FEAD56C07FA0CF528EAE0
:100AB00005080D6905FA0CF5DDF808C045EA0805DA
:100AC000CCF8205005684FEA430CCDF808C004FA72
:100AD0000CFC25EA0C0591F804C00CF00308DDF8C5
:100AE00008C008FA0CF848EA0508C0F800804D680C
:100AF00015F4403F7CD0444DD5F860C000E077E06D
:100B00004CF0010CC5F860C02D6E23F0030C05F00D
:100B1000010500953D4D65440295AD684FEA837C23
:100B20004FEA1C7807FA08FC25EA0C05B0F1904F53
:100B300006D0DFF8DCC0604505D14FF0010C20E0A5
:100B40004FF0000C1DE0DFF8CCC0604502D14FF043
:100B5000020C16E0DFF8C0C0604502D14FF0030C74
:100B60000FE0DFF8B8C0604502D14FF0040C08E098
:100B7000DFF8ACC0604502D14FF0050C01E04FF04A
:100B8000060C0CFA08FC4CEA050C029DC5F808C0DE
:100B9000D9F80050CC46D1F8048095435FEAC828C4
:100BA00000D51543CCF80050DAF80050D446D1F8FF
:100BB000048095435FEA882800D51543CCF800509F
:100BC000DBF80050DC46D1F8048095435FEA8838B2
:100BD00000D51543CCF80050DEF80050F446D1F8AB
:100BE000048095435FEAC83800D51543CCF800501F
:100BF0005B1C0A6832FA03F57FF400AF05B0BDE86C
:100C0000F08F000008040140001002400000014085
:100C10000004004800080048000C0048001000488C
:100C2000001400480AB1816170478162704700007A
:100C30000148806870470000040000200248816875
:100C400042681144816070470400002010B5002400
:100C5000032000F073F80F2000F008F808B1012419
:100C600001E000F025F8204610BD000070B50E4EE2
:100C700005460024706898B14FF47A71B1FBF0F02A
:100C80000A490968B1FBF0F001F027F840B9102DCE
:100C900006D200222946501E00F030F8356000E0F0
:100CA0000124204670BD0000040000201000002038
:100CB0000A4882B0016E41F001010166016E01F047
:100CC00001010091816D41F080518165806D00F0DE
:100CD0008050009002B000F0A1B800000010024067
:100CE000002809DB00F01F0201219140400980002B
:100CF00000F1E020C0F8001170470000F0B40E4B86
:100D00001B680C46C3F30223C3F10705042D00D969
:100D10000425191D072901D2002300E0DB1E01264E
:100D200006FA05F1491E214099409E40761E164064
:100D30003143F0BC02F046BE0CED00E0064900F085
:100D4000070208684FF6FF03184040EA0220034AF2
:100D500010430860704700000CED00E00000FA0549
:100D60002B492C4B0A6832214A432B4940B1B0F53C
:100D7000007F086829D020F4C06040F480602CE037
:100D80000868C0F34120022804D051F8800F20F4F5
:100D9000807022E0D1F8800020F48070C1F88000DB
:100DA000086820F4C06040F400700860B2FBF3F003
:100DB000401C00E0401E4A69520501D50028F9D1C7
:100DC000486940050AD503207047C0F34120022836
:100DD00006D051F8800F40F4807008600020704702
:100DE000D1F8800040F48070C1F88000086820F4D9
:100DF000C06040F400700860B2FBF3F0401C00E0FB
:100E0000401E4A695205DBD50028F9D1D8E7000019
:100E10001000002040420F0000700040024881682E
:100E200041F4804181607047007000402DE9F84333
:100E30000446006800269D4D00035ED5A86D00277E
:100E4000C00008D4A86D40F08050A865A86D0127A7
:100E500000F080500090DFF85892D9F8001041F46B
:100E60008071C9F80010FFF7E3FE804606E000BF7E
:100E7000FFF7DEFEA0EB080002282BD8D9F800000F
:100E8000C005F5D5D5F8900010F4407014D0216C51
:100E9000814211D0D5F89000D5F8901020F4407020
:100EA00041F48031C5F89010D5F8901021F48031CC
:100EB000C5F89010C5F89000C00711D0FFF7B8FE34
:100EC000804641F2883907E0FFF7B2FEA0EB080147
:100ED000494501D903260BE0D5F890008007F3D5EA
:100EE000D5F89000216C20F440700843C5F89000BC
:100EF0001FB1A86D20F08050A8652078C00707D0EA
:100F0000D5F88800616820F003000843C5F8880020
:100F10002078800707D5D5F88800A16820F00C005C
:100F20000843C5F888002078400707D5D5F8880021
:100F3000E16820F030000843C5F8880020780007F9
:100F400007D5D5F88800216920F0C0000843C5F80E
:100F500088002078800607D5D5F88800616920F4DC
:100F600040600843C5F888002078400607D5D5F8CA
:100F70008800A16920F440500843C5F88800207813
:100F8000000607D5D5F88800E16920F44040084301
:100F9000C5F888002088C00507D5D5F88800216AE3
:100FA00020F440300843C5F888002088800507D524
:100FB000D5F88800616A20F440200843C5F888000D
:100FC000208840050FD5D5F88800A16A20F440108C
:100FD0000843C5F88800A06AB0F5801F03D1E8680F
:100FE00040F48010E860208800050FD5D5F888000F
:100FF000E16A20F440000843C5F88800E06AB0F5D3
:10100000800F03D1E86840F48010E8602088C004B5
:101010000FD5D5F88800216B20F040700843C5F843
:101020008800206BB0F1807F03D1E86840F4801025
:10103000E86020884FF0006180040ED5D5F8880064
:10104000626B20F040601043C5F88800606B8842F6
:1010500003D1E86840F48010E860208840040ED591
:10106000D5F88800A26B20F040601043C5F88800D6
:10107000A06B884203D1E86840F48010E8602088C3
:1010800000040FD5D5F88800E16B20F040500843EC
:10109000C5F88800E06BB0F1805F03D1E86840F4E8
:1010A0008030E8603046BDE8F88300000010024060
:1010B000007000402DE9F0470E4605004FF0000794
:1010C00025D0DFF8AC81D8F8000000F00F00B04266
:1010D0000CD2D8F8001021F00F013143C8F80010ED
:1010E000D8F8000000F00F00B04210D12968614C20
:1010F000C80741F2883A5AD06868DFF87C91032823
:1011000008D0022820682DD0400500282CDB0120C3
:10111000BDE8F08720688001F9D5E06800F003029F
:10112000E068C0F30310401C032A19D0534A00BFE3
:10113000B2FBF0F0E268C2F306225043E268C2F369
:101140004162521C5200B0FBF2F0484517D9A0682A
:1011500010F0F00F0CD0880711D5A86840B10EE050
:10116000474AE5E78003D0E700F0B6F8484506D9DE
:10117000A06820F0F00040F08000A0608027A06808
:10118000696820F003000843A060FFF751FD814625
:1011900006E000BFFFF74CFDA0EB090151453AD82E
:1011A000A068696800F00C00B0EB810FF2D12868EC
:1011B000810714D5400703D5A06840F4E060A06023
:1011C0002878000705D5A06820F4605040F4E0605E
:1011D000A060A068A96820F0F000084304E0802F18
:1011E00003D1A06820F0F000A060D8F800104046BD
:1011F00001F00F01B14216D9016821F00F0131430E
:101200000160FFF715FD074607E000BFFFF710FD7F
:10121000C11B514501D903207AE7D8F8000000F03E
:101220000F00B042F2D12878400705D5A068E968E0
:1012300020F4E0600843A0602878000706D5A06885
:10124000296920F4605040EAC100A06000F044F831
:10125000A1680C4AC1F30311515C01F01F01C840A1
:101260000949086009480068BDE8F047FFF7FEBC7F
:10127000002002400010024000B4C4040024F40026
:1012800000127A005C3C00081000002004000020DE
:101290000548064900688968054AC1F30221515C86
:1012A00001F01F01C84070471000002000100240EC
:1012B0006C3C00080548064900688968054AC1F386
:1012C000C221515C01F01F01C8407047100000208E
:1012D000001002406C3C0008184910B58868C0F343
:1012E00081021748012A0BD08A684310C2F3810299
:1012F000022A06D08A68C2F38102032A03D00020A2
:1013000010BD184610BDCA6802F00304CA68C2F3D3
:101310000312521C032C02D0B0FBF2F001E0B3FB2D
:10132000F2F0CA68C968C2F306225043C1F34161B2
:10133000491C4900B0FBF1F010BD00000010024054
:101340000024F4002DE9F84304007AD02078F84D09
:10135000C00747D0A868E96800F00C0001F003015D
:101360000C2802D0082817D001E0032914D06068A7
:10137000B0F5803F17D0B0F5A02F286817D020F423
:1013800080302860286820F4802028606068E0B100
:10139000FFF74EFC064614E02868800322D56068FB
:1013A0000028D2D01EE0286840F48030EDE740F4F9
:1013B00080202860F7E700BFFFF73AFC801B642815
:1013C00070D828688003F7D50CE0FFF731FC06469B
:1013D00005E000BFFFF72CFC801B6428F0D82868CC
:1013E0008003F7D4207880074CD5A868E96800F01E
:1013F0000C0001F003010C2802D004280DD001E0FC
:1014000002290AD0E068002828682BD040F48070B8
:101410002860FFF70DFC064619E02868400502D554
:10142000E068002891D06868217C20F0FE4040EA06
:1014300001606860BF480068FFF718FC002800D111
:1014400020E072E1FFF7F4FB801B0228B8D828687F
:101450004005F7D56868217C20F0FE4040EA016035
:1014600068600FE020F480702860FFF7E1FB06461B
:1014700005E000BFFFF7DCFB801B0228A0D828682E
:101480004005F7D42078000729D560690028D5F8F1
:10149000940013D040F00100C5F89400FFF7C8FB9A
:1014A000064606E090E000BFFFF7C2FB801B022863
:1014B00086D8D5F894008007F6D510E020F001001A
:1014C000C5F89400FFF7B4FB064604E0FFF7B0FB55
:1014D000801B022878D8D5F894008007F6D42078AD
:1014E000400761D5A86D0026C00008D4A86D40F063
:1014F0008050A865A86D012600F0805000908E48AD
:101500000168C90511D40168804641F48071016009
:10151000FFF78EFB074604E0FFF78AFBC01B02289B
:1015200052D8D8F80000C005F6D5A068012815D01B
:101530000528D5F8900016D020F00100C5F89000DD
:10154000D5F8900020F00400C5F89000A06841F2A2
:101550008838B8B1FFF76CFB07460EE0D5F890006D
:1015600040F00100F0E740F00400C5F89000F5E716
:10157000FFF75EFBC11B414526D8D5F890008007D8
:10158000F6D50CE0FFF754FB074604E0FFF750FBED
:10159000C11B414518D8D5F890008007F6D41EB17C
:1015A000A86D20F08050A8652078800629D5A06914
:1015B0000028D5F8980013D040F00100C5F8980035
:1015C000FFF736FB064606E075E000BFFFF730FB8D
:1015D000801B02286FD8D5F898008007F6D510E058
:1015E00020F00100C5F89800FFF722FB064604E052
:1015F000FFF71EFB801B02285DD8D5F898008007F6
:10160000F6D4E069F0B3A968C1F3810103295DD084
:101610000228286820F08070286003D0FFF708FBBC
:1016200004464BE0FFF704FB064604E0FFF700FB2F
:10163000801B02283FD828688001F7D4F4E908010C
:101640006FF00F0202EB01110843218A520449088E
:1016500002EB4151A26841EA02210843217D4FF08B
:101660007E42490802EB41610843217B40EAC160A8
:10167000E968324A11400843E860286840F0807009
:10168000286000E05EE0E86840F08070E860FFF706
:10169000CFFA044605E000BFFFF7CAFA001B022894
:1016A00009D828688001F7D54CE000BFFFF7C0FAE1
:1016B000001B022802D90320BDE8F88328688001B6
:1016C000F4D4E8681E490840E8603BE00128F3D004
:1016D000E868226A00F00301914226D1616A00F0B5
:1016E000F0020901103991421FD1A26A00F4FE41B3
:1016F000B1EB022F19D194F82C2000F07841B1EB16
:10170000C26F12D1218E00F4C00249084905A1F52B
:101710000011914209D194F8341000F0C0604908DA
:101720004906A1F1007181420CD00120C4E70000FC
:101730000010024004000020007000400C809F0157
:10174000FCFFEEFE0020B7E770B5040009D0606A28
:10175000002540B125616561A56294F85D0040B146
:101760000CE0012070BD6068B0F5827FF4D0E561C7
:10177000F2E784F85C50204600F05CF8022084F820
:101780005D002068016821F040010160E1684FF4CC
:10179000E062914201D9002001E04FF48050B1F5A0
:1017A000706F02D0914200D0A562A188228901F415
:1017B000827102F404421143227C02F002021143BE
:1017C000227D02F001021143228B02F400721143C8
:1017D000227F02F03802114394F8202002F08002A8
:1017E0001143228D02F40052114322681160A16955
:1017F000042202EA114194F8242000F4805002F0FF
:101800001002114394F8342002F008021143A28917
:1018100002F4706211430143206841602068C1698D
:1018200021F40061C1612566012084F85D0000207B
:1018300070BD000010B586B0044614216846FEF75E
:1018400021FD2368204C002120480222A34219D107
:10185000036E43F480530366036E03F480530593D1
:10186000C36C43F00203C364C06C00F00200059037
:1018700038200090CDE901210520CDE9031069460B
:1018800013481DE0134CA3421CD1836D43F4004365
:101890008365836D03F400430593C36C43F0040335
:1018A000C364C06C00F0040005904FF4A050CDE973
:1018B00000020320CDE90210062004906946064884
:1018C000FFF78CF806B010BD003001400010024058
:1018D00000040048003C0040000800482DE9F84F93
:1018E000044690F85C000026984615468A46012872
:1018F0000CD0012784F85C70FFF79AF9814694F8C0
:101900005D00B346012804D00226ACE00220BDE809
:10191000F88FBAF1000F79D0002D77D0032084F82A
:101920005D00C4F860B0C4F838A0A587E587C4F8A6
:1019300040B0A4F844B0A4F846B0C4F850B0C4F81D
:101940004CB0A068B0F5004F09D12068016821F0C3
:10195000400101602068016841F480410160206815
:101960000168490603D4016841F040010160E06864
:10197000B0F5E06F606828D908B1012D1FD1A06BC8
:1019800021680088C86006E020688168890709D559
:10199000A16B0988C160A06B801CA063E08F401E12
:1019A000E0870CE0FFF744F9A0EB0901414503D3C0
:1019B000B8F1FF3F03D006E0B8F1000F03D0E08F8D
:1019C0000028E1D13BE003264BE008B1012D33D1E3
:1019D000E08F0128A06B03D921680088C8600FE060
:1019E00021680078087314E0E08725E020688168AA
:1019F000890714D5E18F0129A16B08D90988C16035
:101A0000A06B801CA063E08F801EEDE727E00978C3
:101A10000173A06B401CA063E08F401EE4E7FFF75A
:101A200007F9A0EB0901414503D3B8F1FF3F03D00B
:101A3000C9E7B8F1000FC6D0E08F0028D6D14A46DA
:101A40004146204600F085FF08B120202066A068AE
:101A500018B92068C16880680090206E08B101261E
:101A600001E084F85D7084F85CB030464FE72DE902
:101A7000FF5F044690F85C0000260E9F1D469346CB
:101A80004FF0010901280FD04FF0010A84F85CA043
:101A9000FFF7CEF8804694F85D00616801280DD00C
:101AA000B1F5827F08D103E0022004B0BDE8F09FC9
:101AB000A16809B9042801D0022609E1019800288B
:101AC00076D0BBF1000FFBD0002DF9D094F85D006B
:101AD000042802D0052084F85D0000202066C4F8A8
:101AE00040B0A4F84650A4F844500199A163E5879A
:101AF000A587E0642065E0684FF4E061884201D882
:101B0000012D04D92068426822F4805203E0206845
:101B1000426842F48052426020680268520603D450
:101B2000026842F040020260E0688842606848D97A
:101B300008B1012D3DD1A06B21680088C860A06B61
:101B4000801CA063E08F401EE08732E0206881683F
:101B500089070FD5E18F69B1B9F1010F0AD1A16BE6
:101B60000988C160A06B801CA063E08F401EE087E5
:101B70004FF0000920688168C9070FD0B4F84610FB
:101B800061B1C068216C0880206C801C2064B4F8AE
:101B90004600401EA4F846004FF00109FFF748F840
:101BA000A0EB0800B84204D3781C02D003268DE0D5
:101BB0008AE0E08F0028C9D1B4F846000028C5D1DA
:101BC00077E008B1012D6DD1E08F0128A06B08D915
:101BD00021680088C860A06B801CA063E08F801E15
:101BE00007E0216800780873A06B401CA063E08FB9
:101BF000401EE08756E02068816889071AD5E18F8A
:101C0000C1B1B9F1010F15D1E18F0129A16B07D93C
:101C10000988C160A06B801CA063E08F801E06E075
:101C200009780173A06B401CA063E08F401EE08721
:101C30004FF0000920688168C90728D0B4F8461021
:101C400029B3B4F84610012914D9C068216C088062
:101C5000206C801C2064B4F84600801EA4F8460066
:101C6000B4F84600012810D82068416841F480513A
:101C700041600AE0007B216C0870206C401C2064ED
:101C8000B4F84600401EA4F846004FF00109FEF7E4
:101C9000CFFFA0EB0800B84202D3781C02D085E742
:101CA000002F83D0E08F0028A5D1B4F8460000288B
:101CB000A1D142463946204600F04BFE10B1012624
:101CC00020202066206E08B1012601E084F85DA086
:101CD000002084F85C003046E7E610B5401EB0F105
:101CE000807F01D3012010BD4FF0E02460610F21FF
:101CF000601701F067FE0020A0610720206100202E
:101D000010BD0000F0B590F83C20012A3AD0012522
:101D100080F83C50022280F83D2003685A689C6895
:101D2000194E1A4FB34201D0BB4204D122F4700CB9
:101D30004A6842EA0C02DFF858C002EA0C02D1F805
:101D400000C04CEA020CC3F804C00268B2420DD0D5
:101D5000B2F1804F0AD00F4B9A4207D00E4B9A42F5
:101D600004D0BA4202D00D4B9A4204D1896824F0C3
:101D700080031943916080F83D50002180F83C10A9
:101D80000846F0BD0220F0BD002C014000340140A7
:101D90008FFFFFFD000400400008004000400140AC
:101DA00010B5040003D094F83D0010B107E0012005
:101DB00010BD002084F83C00204600F023F80220EB
:101DC00084F83D00211D206801F020F9012084F8ED
:101DD000480084F83E0084F83F0084F8400084F80E
:101DE000410084F8420084F8430084F8440084F8F9
:101DF000450084F8460084F8470084F83D00002040
:101E000010BD000008B50068B0F1804F08D105484A
:101E1000816D41F001018165806D00F0010000904D
:101E200008BD00000010024070B5044690F83C0068
:101E30000025012814D0012684F83C60022084F893
:101E40003D0022689068364B184020F47F40906037
:101E5000086870282ED010DC10F00F0F03D021E09E
:101E60004FF0020070BD4FEA2012072A1AD2DFE8B5
:101E700002F0525252524A3840002A4BC21A98423B
:101E800049D009DCB0F5805F0DD0B0F5005F1CD003
:101E9000B0F1101F06D13EE0102A3CD0202A3AD0E3
:101EA000502A38D0012584F83D60002084F83C0099
:101EB000284670BDCB68D1E90121206801F004F902
:101EC0002068816841F0770109E0CB68D1E9012100
:101ED000206801F0F9F82068816841F48041816050
:101EE000E1E7CA684968206801F098FA5021206843
:101EF00006E0CA684968206801F0A1FA60212068FC
:101F000001F0ECF8CFE7CA684968206801F086FA6A
:101F100040212068F4E7226801461046F0E70000FF
:101F200088FFCEFF2000100010B586B004461421B3
:101F30006846FEF7A7F92068B0F1804F16D10C482B
:101F4000C16C41F00101C164C06C694600F0010040
:101F50000590202000900220019000200290039024
:101F6000012004904FF09040FEF738FD06B010BD00
:101F70000010024070B5044690F83C0000260D4663
:101F800001280BD0012084F83C000C2A4AD007DC41
:101F900082B1042A20D0082A06D131E0022070BD87
:101FA000102A53D0142A63D00126002084F83C0064
:101FB000304670BD206801F09BF82068816941F0CF
:101FC000080181612068816921F004018161206834
:101FD00081692A69114311E0206801F0D7F820686F
:101FE000816941F4006181612068816921F4806127
:101FF0008161206881692A6941EA02218161D4E70F
:10200000206801F00BF92068C16941F00801C16145
:102010002068C16921F00401C1612068C1692A6991
:10202000114311E0206801F041F92068C16941F4D1
:102030000061C1612068C16921F48061C1612068CB
:10204000C1692A6941EA0221C161AEE7206801F055
:1020500075F92068016D41F0080101652068016D86
:1020600021F0040101652068016D2A69114311E026
:10207000206801F09BF92068016D41F40061016561
:102080002068016D21F4806101652068016D2A6975
:1020900041EA0221016588E710B5040003D094F8F5
:1020A0003D0010B107E0012010BD002084F83C0085
:1020B000204600F022F8022084F83D00211D20680F
:1020C00000F0A4FF012084F8480084F83E0084F862
:1020D0003F0084F8400084F8410084F8420084F80E
:1020E000430084F8440084F8450084F8460084F8EE
:1020F000470084F83D00002010BD704790F8841020
:10210000012918D0012180F884102421C0F88810FA
:1021100001680A680B6823F001030B6022F000518C
:1021200000224266036819602021C0F8881080F8F8
:10213000842010467047022070477047704770B582
:10214000044690F8840001281DD0012084F8840002
:102150002420C4F8880020680568026822F0010283
:1021600002602068826822F060620A438260204632
:1021700001F078F9206805602020C4F8880000206C
:1021800084F8840070BD022070BD70B5044690F8DC
:10219000840001281DD0012084F884002420C4F884
:1021A000880020680568026822F001020260206849
:1021B000826822F060420A438260204601F052F9B0
:1021C000206805602020C4F88800002084F884007E
:1021D00070BD022070BD7047704770472DE9F04117
:1021E00003680446D86919689A6840F60F052842C2
:1021F0004FF000054FF002060AD187067ED501F0A8
:10220000200702F0805C57EA0C0777D0616F3AE153
:10221000B24FDFF8CCC2174001EA0C0C57EA0C0CA5
:102220006CD05FEAC07C0CD05FEAC15C09D54FF08E
:10223000010CC3F820C0D4F8903043F00103C4F877
:102240009030830709D5D30707D023681E62D4F8DE
:10225000903043F00403C4F8903043070AD5D30705
:1022600008D0266804233362D4F8903043F0020388
:10227000C4F8903003070CD501F020033B4308D08D
:10228000266808233362D4F8903043F00803C4F87A
:10229000903003050BD54B0109D526684FF4006338
:1022A0003362D4F8903043F02003C4F89030D4F86F
:1022B0009030002B3DD0800609D501F0200002F0BF
:1022C0008051084303D0616F09B120468847D4F894
:1022D000900021688968490602D410F0280F2AD09E
:1022E000204601F0A5F92068806840061ED52068C8
:1022F000083050E8001F21F0400100E021E040E8F4
:102300000012002AF3D1D4F8800078B175498163B6
:10231000D4F88000FEF757F800280AD0D4F88000DF
:10232000816B00E02046BDE8F04108472046FFF7FA
:1023300054FFBDE8F0812046FFF74FFFC4F89050EE
:10234000F7E7D4F86CC02027BCF1010F7ED15FEA1B
:10235000C06C7BD55FEAC16C78D51020186220680C
:102360008068400645D5D4F88010086840680004AD
:10237000000CDED0B4F85C208242DAD9A4F85E000A
:102380000868006880062CD4216851E8000F20F40A
:10239000807041E80002002AF6D12068083050E839
:1023A000001F21F0010140E80012002AF5D1206849
:1023B000083050E8001F21F0400140E80012002AD8
:1023C000F5D1C4F88C70E566206850E8001F21F054
:1023D000100140E80012002AF6D1D4F88000FDF781
:1023E000BDFF2667B4F85C00B4F85E10401A81B2F5
:1023F00030E0B4F85C00B4F85E10401A81B2B4F872
:102400005E00002895D0002993D0226852E8000F82
:1024100020F4907042E80003002BF6D12F4BDB43F1
:102420002068083050E8002F1A4040E8002CBCF12A
:10243000000FF5D1C4F88C70E5666567226852E834
:10244000000F20F0100042E8000300E006E0002B3F
:10245000F4D126672046FFF770FE6AE7C60209D569
:10246000560207D54FF4801018622046BDE8F041AF
:10247000FFF7B2BE03060AD501F0800302F40002A2
:10248000134304D0A16F00297FF44CAF51E74206FB
:1024900011D54A060FD52046026852E8001F21F0E8
:1024A000400142E80013002BF6D1C0F88870856720
:1024B00000F098F83DE7020206D54A0004D5204610
:1024C000BDE8F041FFF787BEC001C6D50029C4DAD8
:1024D0002046BDE8F041FFF731BE000001000010CA
:1024E000200100041D36000810B5040003D0D4F804
:1024F000880010B107E0012010BD002084F884009E
:10250000204600F027F82420C4F8880020680168DD
:1025100021F001010160A06A10B1204600F0C4FF63
:10252000204601F0AFF80128E6D02068416821F488
:10253000904141602068816821F02A018160206813
:10254000016841F0010101602046BDE8104001F042
:102550000FB8000010B598B00446142111A8FDF77B
:1025600091FE44216846FDF78DFE1B492068884294
:102570002FD104200024009003946846FEF756FCF7
:1025800008B1FDF7E3FE1548816D41F480218165B6
:10259000816D01F480211691C16C41F00201C1648A
:1025A000C06C11A900F0020016904FF44060119029
:1025B0001220CDE912040720CDE914400848FEF7A7
:1025C0000DFA002211462720FEF798FB2720FEF780
:1025D00087FB18B010BD000000480040001002400A
:1025E000000400487047FEE708B5FDF7A7FE0C4958
:1025F000832003230870642000904A1C0948FFF7D9
:1026000036FAFDF793FE0648401C017842788902AD
:1026100002F0FC02807841EA820141EA101008BD14
:102620001C000020F800002030B51C4887B01A4973
:102630000024C0E900148460C46004744474847489
:1026400010210125C0E905150221C16101620A219D
:10265000C0E909150821C162C0E90C148463C46390
:10266000FEF754F808B1FDF771FE00940194CDE92E
:1026700002450494694609480594FDF763FF08B1D3
:10268000FDF764FE0548FEF78DF90022012103489D
:10269000FDF7E8FE07B030BD006400409400002064
:1026A0002DE9F04786B014216846FDF7EBFD3A4866
:1026B000C16C41F00401C164C16C01F004010591D9
:1026C000C16C41F02001C164C16C01F02001059191
:1026D000C16C41F00101C164C16C01F001010591BF
:1026E000C16C41F00201C164C16C01F002010591AD
:1026F000C16C41F00801C164C06C284F00F00800B3
:102700004FF468440590002221463846FEF78AFAC5
:102710004FF400464FF09048002231464046FEF705
:1027200081FADFF87C90002204214846FEF77AFA0D
:10273000DFF870A0012240215046FEF773FA002214
:1027400080215046FEF76EFA0125CDE900450024B0
:102750000294694638460394FEF740F90096CDE9A5
:102760000154694640460394FEF738F9042000906E
:10277000CDE90154694648460394FEF72FF9C0207D
:102780000090CDE90154694650460394FEF726F9BE
:1027900006B0BDE8F08700000010024000080048C5
:1027A000000C004800040048124810B510490160B0
:1027B0004FF48271416000214FF47062C0E902124F
:1027C0000222026101224261520282612022C0E99A
:1027D000072107224162C0E90A1201634163FEF743
:1027E000B3FF002803D0BDE81040FDF7AFBD10BD1A
:1027F00000300140F8000020124810B51049016077
:102800004FF48271416000214FF4E062C0E902128E
:102810000222C0E90421120282610822C0E90721D4
:1028200007234162C0E90A13C0E90C12FEF78CFFCE
:10283000002803D0BDE81040FDF788BD10BD0000A2
:10284000003C00405C01002010B58EB000240794CD
:10285000089409940A940B940C941C2168460D94D6
:10286000FDF710FD1E484FF080410160AA21C0E92C
:1028700001144FF47A71C0E9031480218161FFF7DC
:102880008FFA08B1FDF762FD4FF48050079007A959
:102890001348FFF7C9FA08B1FDF758FD1048FFF7D4
:1028A000FBFB08B1FDF752FD0B940BA90C480D94EE
:1028B000FFF728FA08B1FDF749FD60200090C82015
:1028C000CDE901040022694605480494FFF752FB54
:1028D00008B1FDF73BFD0248FFF726FB0EB010BD27
:1028E000C0010020184810B5164901604FF4165178
:1028F0004160002181600C22C160C0E90412816145
:10290000C161016241628162FFF7EEFD08B1FDF72E
:102910001DFD00210C48FFF738FC08B1FDF716FD3E
:1029200000210948FFF70BFC08B1FDF70FFD064831
:10293000FFF7E4FB002803D0BDE81040FDF706BD1B
:1029400010BD0000004800400C020020FEE7FEE73A
:102950007047F8B515460E460B4600920446002215
:102960004FF4C05100F01AF888B933460022802194
:102970002046009500F082F848B9334600224FF413
:10298000C0612046009500F009F8002804D0206EB0
:1029900040F0200020660320F8BD00002DE9FE4F26
:1029A0004FF0000A984617460E4604460C9D8DF8D7
:1029B00004A0FEF73DF9411BA8EB0105FEF738F92D
:1029C000814620684FF4C06B0C3002902A480068A2
:1029D000C0EBC00000EB8000000D6843009043E0B6
:1029E0005E4506D12FB9029800788DF804009DF855
:1029F0000400B8F1FF3F37D0FEF71AF9A0EB090049
:102A0000A84203D215B1009858B32BE02068416862
:102A100021F0E00141606068B0F5827F0BD1A068D1
:102A2000B0F5004F02D0B0F5806F04D12068016886
:102A300021F040010160A06AB0F5005F09D1206873
:102A4000016821F4005101602068016841F40051DF
:102A50000160012084F85D0084F85CA00320BDE8DB
:102A6000FE8F0025401E0090206880683040B842EC
:102A7000B6D10020F3E70000100000202DE9F84354
:102A80001E46914688460446089DFEF7D1F8401B35
:102A9000351AFEF7CDF8074625480068C0F3CB305D
:102AA000684338E0701C37D0FEF7C2F8C01BA8425C
:102AB00003D215B1009860B32CE02068416821F082
:102AC000E00141606068B0F5827F0BD1A068B0F58D
:102AD000004F02D0B0F5806F04D12068016821F06A
:102AE00040010160A06AB0F5005F09D1206801686B
:102AF00021F4005101602068016841F40051016037
:102B0000012084F85D00002084F85C000320BDE80B
:102B1000F8830025401E00902068816838EA010093
:102B200004D000214945BDD10020F0E70121F9E79B
:102B3000100000202DE9F843054600218623EF22EE
:102B4000084600F0CBF8DFF844800022042140461C
:102B5000FEF768F800242E0AEFB200258DF8006019
:102B60008DF801700221684600F086F96D1CADB247
:102B7000872DF3D3641CA4B2F02CEED34046BDE8FD
:102B8000F84301220421FEF74DB80000000C004874
:102B90007FB5012280214648FEF744F81920FDF751
:102BA0004FFC4FF400444FF0904500222146284648
:102BB000FEF738F81920FDF743FC0122214628468C
:102BC000FEF730F83220FDF73BFC3A2000F034F9F4
:102BD000552000F085F9B22000F02EF935A1D1E999
:102BE0000001CDE900010521684600F045F901200A
:102BF00000F0B4F8B72000F01FF9352000F070F9AC
:102C0000BB2000F019F9192000F06AF9C02000F08B
:102C100013F92C2000F064F9C22000F00DF9012016
:102C200000F05EF9C32000F007F9122000F058F917
:102C3000C42000F001F9202000F052F9C62000F075
:102C4000FBF80F2000F04CF9D02000F0F5F8A4209C
:102C500000F046F9A12000F043F9E02000F0ECF884
:102C600016A00FC88DE80F000E21684600F004F989
:102C7000E12000F0E1F815A10FC98DE80F000E2149
:102C8000684600F0F9F8212000F0D6F8112000F095
:102C9000D3F8132000F0D0F8292000F0CDF832202E
:102CA000FDF7CEFB04B00020BDE87040FFF742BF47
:102CB000000400480C0C003333000000D0040D1158
:102CC000132B3F544C180D0B1F230000D0040C1184
:102CD000132C3F44512F1F1F202300002DE9F843E0
:102CE000DFF8748015460E4607461C460022042174
:102CF0004046FDF797FF2A203434283534362837EC
:102D000000F09AF8380A8DF800008DF80170280A52
:102D10008DF802008DF803500421684600F0ACF8ED
:102D20002B2000F089F8300A8DF800008DF8016042
:102D3000200A8DF802008DF803400421684600F057
:102D40009BF82C2000F078F84046BDE8F8430122BB
:102D50000421FDF767BF0000000C004810B50446D1
:102D6000362000F069F854B1012C0AD0022C0AD0A8
:102D7000032C0AD16020BDE8104000F0B1B8C0209B
:102D8000F9E7A020F7E70020F5E710BD0FB42DE923
:102D9000FF5F0C46DDE913A905461F46002204210A
:102DA0002448FDF73FFFC7F30726601E304483B277
:102DB000FFB2681E384482B221462846FFF78EFFD4
:102DC00000252BE01098203810FB065012990024A3
:102DD00009F0FF0B31F810804FEA1A2002900AF038
:102DE000FF0001904FEA1920009014E008FA04F067
:102DF000000406D502988DF80C0001988DF80D009E
:102E000004E000988DF80C008DF80DB0022103A8A5
:102E100000F032F8641CA742E8D86D1CAE42D1D84D
:102E200004B00122BDE8F01F042102485DF814EB54
:102E3000FDF7F8BE000C004831B50C4C002204210F
:102E40002046FDF7EFFE00224FF400610848FDF731
:102E5000E9FE4FF0FF33012269460648FEF73EFDCA
:102E6000012204212046FDF7DDFE38BD000C00489C
:102E7000000800485C0100202DE9F047DFF854907D
:102E80000C460646002204214846FDF7CBFE0122EF
:102E9000D1021148FDF7C6FE4FF480374FF6FF7898
:102EA0004FF0FF3A0DE0BC4201D3404600E020461F
:102EB00085B253462A4631460848FEF70FFD2E4498
:102EC000641B002CEFD14846BDE8F04701220421E5
:102ED000FDF7A8BE000C0048000800485C01002077
:102EE00031B50C4C002204212046FDF79BFE012247
:102EF000D1020948FDF796FE4FF0FF3301226946E3
:102F00000648FEF7EBFC012204212046FDF78AFE6D
:102F100038BD0000000C0048000800485C0100209B
:102F20002DE9FE4FDFF86490DDE90DBA14460E4638
:102F300005469846002204214846FDF773FE08F036
:102F4000FF0718E07819F02809D3C8F30720811982
:102F50008EB200253044872810D2202A0AD0CDE92D
:102F600001BA0C980090434631462846FFF70EFF01
:102F7000781985B2641C2278002AE3D103B0484650
:102F8000BDE8F04F01220421FDF74CBE000C0048C3
:102F90007047FDF753BE10B594B038216846FDF771
:102FA00071F914210EA8FDF76DF90020FDF7D8FE88
:102FB000012000900004019002200324CDE90704C1
:102FC0005521CDE909010B900C900D906846FEF754
:102FD000B9F908B172B6FEE70F20CDE90E04002062
:102FE00010901190129004210EA8FEF763F80028AB
:102FF00001D072B6FEE714B010BD000002480168AF
:1030000041F470010160704788ED00E02DE9F04364
:103010000268264B264D274E274C4FF08049984298
:1030200007D0484505D0A84203D0B04201D0A04205
:1030300003D122F070074A683A43204FDFF880C07E
:10304000DFF8808098420DD048450BD0A84209D0C7
:10305000B04207D0A04205D0B84203D0604501D0AD
:10306000404503D122F44075CA682A434D6922F0D5
:1030700080022A4302608A68C2620A6882629842B9
:1030800007D0A04205D0B84203D0604501D04045EA
:1030900001D109690163012141610169C90703D0B7
:1030A000016921F001010161BDE8F083002C0140BC
:1030B000000400400008004000340140004001408E
:1030C000004401400048014010B5846842EA0322F0
:1030D00024F47F440A432243826010BD8268034B7C
:1030E0001A400A4342F00701816070478FFFCFFF0B
:1030F0002DE9F043056A026A22F001020262436888
:1031000082691C4C25F0020522400C6822F0030263
:1031100014438A68194E2A43174D194FDFF864C0CB
:10312000DFF86490A84207D0B04205D0B84203D07F
:10313000604501D0484506D122F00808CA6842EA35
:10314000080222F00402A84207D0B04205D0B842DB
:1031500003D0604501D0484505D14D6923F4407343
:103160001D438B692B43436084614968416302625C
:10317000BDE8F0838FFFFEFF002C014000340140CA
:10318000004001400044014000480140F0B5056A9C
:10319000026A22F01002026242688369194C1B4ED7
:1031A00023400C6823F4407343EA042425F02003F1
:1031B0008D6843EA0513144DA84201D0B04206D1F0
:1031C000CF6823F0800343EA071323F04003A842AB
:1031D0000AD0B04208D00E4DA84205D00D4DA842ED
:1031E00002D00D4DA84207D14D6922F4406242EA57
:1031F00085028D6942EA8502426084614968816383
:103200000362F0BDFF8FFFFE002C0140003401403F
:10321000004001400044014000480140F0B5056A0B
:10322000026A22F4807202624368C269194C1B4E22
:1032300022400C6822F00302144325F400728D68CA
:1032400042EA0522144DA84201D0B04206D1CF680F
:1032500022F4006242EA072222F48062A8420AD0E5
:10326000B04208D00E4DA84205D00E4DA84202D063
:103270000D4DA84207D14D6923F4405343EA05138D
:103280008D6943EA05134360C4614968C163026202
:10329000F0BD00008FFFFEFF002C01400034014014
:1032A000004001400044014000480140F0B5056A7B
:1032B000026A22F4805202624268C369194C1B4EB2
:1032C00023400C6823F4407343EA042425F400539C
:1032D0008D6843EA0533144DA84201D0B04206D1AF
:1032E000CF6823F4004343EA073323F48043A84222
:1032F0000AD0B04208D00E4DA84205D00D4DA842CC
:1033000002D00D4DA84207D14D6922F4404242EA55
:1033100085128D6942EA85124260C4614968016480
:103320000362F0BDFF8FFFFE002C0140003401401E
:1033300000400140004401400048014030B5056AAA
:10334000026A22F4803202624268036D114C23400B
:103350000C681C4325F400330D8943EA05430E4DE8
:10336000A8420BD00D4DA84208D00D4DA84205D063
:103370000C4DA84202D00C4DA84204D14D6922F454
:10338000803242EA05224260046549688164036232
:1033900030BD00008FFFFEFF002C014000340140D3
:1033A00000400140004401400048014030B5046A3B
:1033B000026A22F4801202624268036D114D24F405
:1033C00000142B400D6843EA05230D8944EA055497
:1033D0000D4DA8420BD00D4DA84208D00C4DA8426F
:1033E00005D00C4DA84202D00B4DA84204D14D6926
:1033F00022F4802242EA8522426003654968C16462
:10340000046230BDFF8FFFFE002C014000340140FC
:1034100000400140004401400048014010B5036AEB
:10342000046A24F001040462846924F0F00444EA8C
:10343000021423F00A020A438461026210BD10B52F
:10344000036A046A24F010040462846923F0A00370
:1034500024F4704444EA023243EA011182610162B9
:1034600010BD000030B5416EB9B102689168926834
:10347000C1F342610B4B520F9C5CE50003F1080461
:10348000A25CB5FBF2F2A0F86A205A5C615CD20043
:10349000B2FBF1F1A0F8681030BD0121A0F86A106C
:1034A000F8E700004C3C000890F82810090706D502
:1034B00001684A68836B22F400421A434A6090F81C
:1034C0002810C90706D001684A68C36A22F400328E
:1034D0001A434A6090F82810890706D501684A689F
:1034E000036B22F480321A434A6090F8281049078F
:1034F00006D501684A68436B22F480221A434A6069
:1035000090F82810C90606D501688A68C36B22F4B2
:1035100080521A438A6090F82810890606D50168FF
:103520008A68036C22F400521A438A6090F82810CB
:10353000490611D501684A68436C22F480121A4387
:103540004A60416CB1F5801F06D101684A68836CFE
:1035500022F4C0021A434A6090F82810090606D5E2
:1035600001684A68C06C22F4002202434A60704736
:103570002DE9F84300260446C0F89060FDF758FB9B
:103580008046206800684FF0200500076FF07E47F6
:1035900013D54346002229042046009700F0ACF9D9
:1035A00058B1216851E8000F20F0800041E8000286
:1035B000002AF6D1C4F8885021E02068006840074E
:1035C00022D5434600224FF480012046009700F0A8
:1035D00093F9C8B1216851E8000F20F4907041E8D8
:1035E0000002002AF6D12068083050E8001F21F0C0
:1035F000010140E80012002AF5D1C4F88C5084F88B
:1036000084600320BDE8F883C4F88850C4F88C5067
:1036100044F86C6F666026760020F3E710B5806A88
:103620000021A0F85E10A0F85610FEF7D6FD10BDE0
:1036300010B5026852E8001F21F4907142E80013AF
:10364000002BF6D10E4B0268083252E8001F1940D9
:1036500042E80014002CF6D1C16E012908D101689E
:1036600051E8002F22F0100241E80023002BF6D190
:103670002021C0F88C100021C166416710BD0000F8
:10368000FEFFFFEF2DE9F0410446016880682269E2
:10369000E3691043626900251A431043DFF82CC226
:1036A0000A688B4B1A4002430A6020684168E2684E
:1036B00021F44051114341602168A069614501D066
:1036C000226A10438A68834B1A4002438A6020684A
:1036D000C16A626A21F00F011143C1627E49236809
:1036E0007E488B420DD1D0F8880010F0030006D040
:1036F000012855D0022842D003283FD152E00120B2
:103700003DE077498B420BD1D0F8880010F00C00D7
:1037100035D0042833D0082840D00C282ED141E0E1
:1037200070498B420BD1D0F8880010F0300026D0C1
:10373000102835D0202831D030281FD132E06A49F6
:103740008B420BD1D0F8880010F0C00017D0402871
:1037500026D0802822D0C02810D123E063450DD187
:10376000D0F8880010F4406009D0B0F5806F17D011
:10377000B0F5006F12D0B0F5406F13D010205B4948
:103780005B4F00264FF4004263453BD160B10228F5
:1037900013D004280BD0082872D10DE00220EEE7E8
:1037A0000420ECE70820EAE7FDF772FD01E0FDF7F1
:1037B00093FD010001D17CE01146606A37F81020CA
:1037C0006768B1FBF2F007EB4703834270D8B0EBB8
:1037D000073F6DD8002308461946FCF71BFD090278
:1037E00041EA106102027808101871413A4600233C
:1037F000FCF710FD3F4AA0F54071914258D821686E
:10380000C86056E0E3694FF6EF7893422CD109285F
:103810004ED2DFE800F00508114D0D4D4D4D100062
:10382000FDF736FD01E0FDF745FD010004D140E064
:10383000FDF752FDF9E71146606A37F81000B1FB59
:10384000F0F04100606801EB5001B1FBF0F0A0F135
:10385000100141452CD84FF6F0710140C0F34200F1
:1038600001432068C16024E0092821D2DFE800F08C
:10387000050912200E2020201100FDF709FD02E0AD
:1038800016E0FDF717FD010004D112E0FDF724FD5D
:10389000F9E71146606A37F81000B1FBF0F1606893
:1038A00001EB5001B1FBF0F0A0F1100141450AD944
:1038B00001250120A4F86A0024F8680F2846E66074
:1038C0002661BDE8F08180B299E7000000800040E9
:1038D000F369FFCFFFF4FF110038014000100240F0
:1038E0000044004000480040004C00400024F40028
:1038F000343C0008FFFC0F002DE9F04799461746BD
:103900000D4604464FF00008089E33E0701C31D08D
:10391000FDF78EF9A0EB0900B04218D8BEB12068BF
:103920000168490726D5802D24D0402D22D0C169B9
:10393000C94309070DD4082505622046FFF778FE24
:10394000C4F8905084F884800120BDE8F0870320FB
:10395000FBE7C069C04300050CD421684FF4006048
:1039600008622046FFF764FE2020C4F8900084F827
:103970008480ECE72068C06935EA000004D00020AC
:10398000B842C3D00020E0E70120F9E70148FEF784
:1039900025BC00000C020020FEE700000FB4084B1D
:1039A00010B504A902AA039800F02CF8044602A955
:1039B000002000F0D1F8204610BC5DF814FB000098
:1039C000593B00080907090E002804DB00F1E0203C
:1039D00080F80014704700F00F0000F1E02080F83C
:1039E000141D704702E008C8121F08C1002AFAD14E
:1039F00070477047002001E001C1121F002AFBD16F
:103A0000704700002DE9FF4F89B09B460446002512
:103A100006E025280BD05A460B999047641C6D1C74
:103A200020780028F5D10DB02846BDE8F08F00279A
:103A3000B8460122474900E0074314F8013F203B04
:103A400002FA03F00842F7D120782E2819D114F891
:103A5000010F47F004072A280ED06FF02F022078BC
:103A6000A0F1300109290CD808EB880102EB4101D3
:103A700000EB0108641CF2E70A98641C50F8048B00
:103A80000A9020780028CED0642808D0692806D073
:103A900075281ED05A460B9990476D1C58E00A991C
:103AA0004FF00A0901C90A91002802DA40422D218B
:103AB00002E0390504D52B218DF82010012103E007
:103AC000F90704D02021F7E78A4608AE0DE000216F
:103AD000FAE70A994FF00A0901C90A91F7E749463E
:103AE000FCF7DBFB303106F8011D0028F7D1ADEB08
:103AF000060000F12009780701D44FF00108C845FD
:103B000002DDA8EB090000E000208046002706E067
:103B100008A85A46C05D0B9990476D1C7F1C5745FD
:103B2000F6DB04E030205A460B9990476D1CB8F143
:103B30000001A8F10108F5DC05E016F8010B5A4672
:103B40000B9990476D1CB9F10001A9F10109F4DC52
:103B5000641C65E7092801000A68531C0B6010709B
:103B6000704700000EB5FDF771F8FFF714FAFEF785
:103B700097FDFEF741FEFEF7B5FEFEF755FDFEF799
:103B800063FEFEF711FE1E4C012251032046FDF795
:103B900049F8FEF7FDFF012291032046FDF742F8A8
:103BA000184D194CDFF8648000264FF6FF77A8788F
:103BB00000906B782A7816A11A48FFF7EFFECDE93E
:103BC0000176606800900A21164A08462368FFF7CC
:103BD000A7F9FEF709FD0246C8F80000114812A136
:103BE0001430FFF7DBFECDE90176606800900D4AE6
:103BF000192114320A202368FFF792F9D7E7000051
:103C0000000800481D0000201400002000000020D3
:103C1000646174613A5B25755D2C5B25755D2C5B79
:103C200025755D0020000020616E676C653A5B259C
:103C3000645D0000010002000400060008000A00A4
:103C40000C00100020004000800000010101010371
:103C5000070100000804020408010101000000003F
:103C6000000000000102030406070809000000002C
:103C7000010203040000000000000000000000003A
:103C800000000000000000000010001000100010F4
:103C900000100010000000100000000000280028A4
:103CA00000280000000000000000000000000000EC
:103CB00000240024007C00240048007C00480048C8
:103CC0000000000000380054005000380014005478
:103CD000005400380010000000200054005800304C
:103CE0000028005400140008000000000010002804
:103CF0000028001000340048004800340000000094
:103D00000010001000100000000000000000000083
:103D1000000000000008001000200020002000200B
:103D200000200020001000080020001000080008FB
:103D300000080008000800080010002000100038EB
:103D4000001000280000000000000000000000003B
:103D50000000000000100010007C001000100000A7
:103D60000000000000000000000000000000000053
:103D70000000001000100010000000000000000013
:103D800000000038000000000000000000000000FB
:103D90000000000000000000000000100000000013
:103DA0000008000800100010001000100020002083
:103DB0000000000000380044004400540044004467
:103DC00000440038000000000010003000500010D7
:103DD0000010001000100010000000000038004427
:103DE00000440004000800100020007C00000000D7
:103DF00000380044000400180004000400440038A7
:103E00000000000000080018002800280048007C7E
:103E10000008000800000000007C0040004000781E
:103E20000004000400440038000000000038004492
:103E300000400078004400440044003800000000C6
:103E4000007C00040008001000100020002000206A
:103E500000000000003800440044003800440044E2
:103E600000440038000000000038004400440044D2
:103E7000003C000400440038000000000000000086
:103E80000010000000000000000000100000000012
:103E90000000000000000010000000000000001002
:103EA0000010001000000000000C00300040003046
:103EB000000C000000000000000000000000007C7A
:103EC0000000007C00000000000000000000000076
:103ED00000600018000400180060000000000000EE
:103EE000003800440004000800100010000000101A
:103EF0000000000000380044004C0054005C00400A
:103F000000400038000000000010002800280028B1
:103F10000028007C004400440000000000780044B9
:103F20000044007800440044004400780000000091
:103F30000038004400400040004000400044003889
:103F400000000000007000480044004400440044A9
:103F50000048007000000000007C00400040007C31
:103F6000004000400040007C00000000007C004059
:103F70000040007800400040004000400000000089
:103F80000038004400400040005C00440044003819
:103F900000000000004400440044007C0044004451
:103FA0000044004400000000003800100010001021
:103FB0000010001000100038000000000004000491
:103FC0000004000400040004004400380000000065
:103FD0000044004800500060005000480048004481
:103FE0000000000000400040004000400040004051
:103FF0000040007C000000000044006C006C005495
:1040000000440044004400440000000000440064F8
:10401000006400540054004C004C004400000000B8
:104020000038004400440044004400440044003888
:104030000000000000780044004400440078004084
:1040400000400040000000000038004400440044EC
:10405000004400440054003800040000007800448C
:10406000004400440078004800480044000000007C
:1040700000380044004000300008000400440038CC
:1040800000000000007C0010001000100010001064
:1040900000100010000000000044004400440044F0
:1040A0000044004400440038000000000044004484
:1040B0000044002800280028001000100000000024
:1040C00000440044005400540054006C00280028B0
:1040D0000000000000440028002800100010002804
:1040E000002800440000000000440044002800288C
:1040F000001000100010001000000000007C000400
:1041000000080010001000200040007C00000000AB
:104110000018001000100010001000100010001017
:1041200000100018002000200010001000100010E7
:10413000000800080000000000300010001000100F
:1041400000100010001000100010003000100028B7
:1041500000280044000000000000000000000000F3
:10416000000000000000000000000000000000004F
:10417000000000FE00200010000000000000000011
:1041800000000000000000000000000000380044B3
:10419000003C0044004C003400000000004000409F
:1041A000005800640044004400640058000000000F
:1041B0000000000000380044004000400044003887
:1041C00000000000000400040034004C00440044DF
:1041D000004C0034000000000000000000380044E3
:1041E000007C00400044003800000000000C00107B
:1041F000007C0010001000100010001000000000F3
:10420000000000000034004C00440044004C003426
:10421000000400780040004000580064004400445E
:104220000044004400000000001000000070001076
:10423000001000100010001000000000001000002E
:10424000007000100010001000100010001000E0BE
:10425000004000400048005000600050004800440A
:10426000000000000070001000100010001000108E
:104270000010001000000000000000000078005452
:1042800000540054005400540000000000000000DE
:104290000058006400440044004400440000000052
:1042A000000000000038004400440044004400388E
:1042B00000000000000000000058006400440044BA
:1042C0000064005800400040000000000034004C32
:1042D00000440044004C00340004000400000000CE
:1042E0000058006400400040004000400000000012
:1042F000000000000038004400300008004400388E
:104300000000000000200020007800200020002095
:1043100000200018000000000000000000440044DD
:1043200000440044004C0034000000000000000085
:10433000004400440028002800280010000000006D
:1043400000000000005400540054006C00280028B5
:1043500000000000000000000044002800100010D1
:104360000028004400000000000000000044004459
:10437000002800280010001000100060000000005D
:10438000007C0008001000200040007C00000000BD
:104390000018001000100010002000200010001075
:1043A0000010001800100010001000100010001085
:1043B000001000100010001000300010001000105D
:1043C000000800080010001000100030000000007D
:1043D00000000074004C000000000000000000001D
:1043E000004400080000002020000000E43900081C
:1043F000204400082000002080060000F439000856
:10440000000000001000000001000000000000009B
:104410000024F400070A0000743C000800000000BB
:04000005080001D915
:00000001FF
