:020000040800F2
:10000000D8060020F1010008571A0008331500082F
:10001000551A000879070008B91C00080000000004
:100020000000000000000000000000003D1C00086F
:100030007B07000800000000591A00083F1C000858
:100040000B0200080B0200080B0200080B0200085C
:100050000B0200080B0200080B0200080B0200084C
:100060000B0200080B0200080B0200080B0200083C
:100070000B0200080B0200080B0200080B0200082C
:100080000B020008000000000B0200080B02000831
:100090000B0200080B0200080B0200080B0200080C
:1000A0000B0200080B0200080B0200080B020008FC
:1000B0000B0200080B0200080B0200080B020008EC
:1000C0000B0200080B0200080B0200080B020008DC
:1000D0000B0200080B0200080B0200080B020008CC
:1000E0000B0200080B0200080B0200080B020008BC
:1000F0000B0200080B0200080B02000800000000C1
:10010000000000000B020008000000000B020008C5
:100110000B020008000000000B0200080B020008A0
:100120000B0200080B0200080B0200080B0200087B
:100130000B02000800000000000000000B02000895
:100140000B0200080B020008000000000000000085
:10015000000000000000000000000000000000009F
:100160000000000000000000000000000B0200087A
:100170000B0200080000000000000000000000006A
:10018000000000000B02000800000000000000005A
:10019000000000000000000000000000000000005F
:1001A00000000000000000000B0200080B02000825
:1001B0000B0200080B0200080B0200080000000000
:1001C000000000000B02000800000000000000001A
:1001D0000B0200080B020008DFF810D000F02CFA28
:1001E00000480047B5250008AFF30080D80600207E
:1001F0000648804706480047FEE7FEE7FEE7FEE7C1
:10020000FEE7FEE7FEE7FEE7FEE7FEE7A91C0008C3
:10021000D9010008D2B201E000F8012B491EFBD23F
:1002200070470022F6E710B513460A460446194601
:10023000FFF7F0FF204610BD30B50B460146002009
:100240002022012409E021FA02F59D4205D303FA98
:1002500002F5491B04FA02F52844151EA2F1010219
:10026000F1DC30BD2DE9F05F0546002092469B464B
:1002700088460646814640241BE0284641464746BC
:10028000224600F0FAF953465A46C01A914110D35B
:1002900011461846224600F0E1F92D1A67EB0108D5
:1002A0004F4622460120002100F0D8F917EB000943
:1002B0004E41201EA4F10104DFDC484631462A46A7
:1002C0004346BDE8F09F2DE9FE4F804681EA0300DA
:1002D000C00F0C46009021F0004123F00045B8EB20
:1002E0000200A94105D24046214690461C460B46D5
:1002F000024623F00040104347D0270DC7F30A0001
:10030000C3F30A510290401A019040286BDAC3F3FC
:10031000130040F4801B0098924620B10023D2EBDA
:10032000030A63EB0B0B01985946C0F1400250469B
:1003300000F094F906460D4650465946019A00F0E1
:10034000ACF910EB08006141002487EA115284EAFD
:10035000E7731A4340D0009A62B3019A012A4FEA28
:10036000075215DC001B61EB02014FF0004202EA6C
:100370000752CDE90042001C41F5801132462B4660
:1003800000F0ACF903B0BDE8F08F40462146F9E734
:10039000001B61EB0201001C41F5801300185B415A
:1003A0002018A2F5001747EB030140EAD570B619F3
:1003B0006D4111E06D084FEA360645EAC0754FEA17
:1003C0000752001B61EB0201001C41F58011490836
:1003D0004FEA30000019514132462B4603B0BDE8C8
:1003E000F04F00F06CB90098012240000023D0EBE0
:1003F000020263EBE073009821464FEAE074B8EB29
:10040000000061EB0401E9E783F000435BE781F062
:10041000004158E72DE9FE4F81EA030404F000444F
:1004200021F0004100944FF0000B23F0004350EA0C
:1004300001045ED052EA03045BD0C3F30A54C1F353
:100440000A552C44A4F2F3340194A0FB0254C1F3E6
:10045000130141F48011C3F3130343F4801301FB30
:10046000024400FB034E840A970A44EA815447EA97
:100470008357A4FB076802958D0A05FB07854FEAA1
:10048000932C04FB0C542705029D4FEA065847EABB
:100490001637B5EB08056EEB070C870E920E47EA90
:1004A000811742EA8312A7FB0201B6EB0B0164EB52
:1004B00000042B0D43EA0C335E1844EB1C50DA4663
:1004C0005146E7FB0201C5F313044FEA0B3343EA3D
:1004D00014534FEA0432019C43EA0603A4F10C04CE
:1004E0000294009CCDE900B400F0F8F803B0BDE838
:1004F000F08F00200146F9E72DE9F04D81EA030471
:1005000004F0004B21F0004514464FF0000A23F0A0
:10051000004150EA050220D054EA01021DD0C5F383
:100520000A570246C5F31303C1F31300C1F30A5679
:1005300040F4801543F48013A7EB0608101BD64641
:1005400008F2FD3873EB050002D308F1010801E061
:1005500092185B41B8F1000F03DA00200146BDE8B4
:10056000F08D00204FF48011064684460EE0171BE4
:1005700073EB050705D3121B63EB050306434CEA37
:10058000010C49084FEA300092185B4150EA01071C
:10059000EDD152EA030012D082EA040083EA050199
:1005A000084305D0101BAB4106D20122002306E010
:1005B00000224FF0004302E06FF0010253101AEBEB
:1005C00006004CEB085110EB0A0041EB0B01BDE8B3
:1005D000F04D00F074B8C1F30A52C1F3130140F2B8
:1005E000FF3341F480119A4202DA0020014670473D
:1005F00040F233439A42A2F2334202DC524200F00C
:100600003CB800F02BB8000030B5041E71F10004B6
:1006100004DB4FF00044404264EB0101141E73F10F
:10062000000405DB1C464FF00043524263EB040319
:10063000994208BF904230BD064C074D06E0E06885
:1006400040F0010394E8070098471034AC42F6D319
:10065000FFF7C6FD542C0008742C0008202A04DB88
:10066000203A00FA02F1002070479140C2F12003C5
:1006700020FA03F3194390407047202A04DB203A04
:1006800021FA02F00021704721FA02F3D040C2F1B2
:1006900020029140084319467047202A06DBCB17F9
:1006A000203A41FA02F043EAE07306E041FA02F32D
:1006B000D040C2F12002914008431946704710B55E
:1006C000141E73F1000408DA401C41F10001921875
:1006D0005B411A4301D120F0010010BD2DE9F04D1E
:1006E00092469B4611B1B1FA81F202E0B0FA80F273
:1006F00020329046FFF7B2FF04460F4640EA0A0058
:1007000041EA0B0153465A46084313D0114653EAB7
:10071000010019D0C8F140025046FFF7AEFF054670
:100720000E46504659464246FFF798FF084305D00B
:10073000012004E020463946BDE8F08D0020054345
:1007400046EAE0762C4337430A986305E40AA0EBB7
:1007500008000022FD0A44EA47540A3002D500206E
:100760000146E9E7010510196941DDE9084500196D
:100770006941BDE8F04DA2E7FEE7704772B6FEE7BB
:1007800070B5044600F038F90546601C02D00448F4
:100790004068044400F030F9401BA042FAD370BD19
:1007A000000000202DE9F04FDFF820920023012601
:1007B0000324A9F1040B85B00F2709F1040AABF15A
:1007C000040EFAE006FA03F52A407CD091F804C042
:1007D0000CF0030CBCF1010F02D0BCF1020F26D1CA
:1007E000D0F808C0CDF800C04FEA430C04FA0CF86A
:1007F000CDF810C0DDF800C02CEA080CCDF800C020
:10080000D1F80C80DDF810C008FA0CF8DDF800C053
:1008100048EA0C08C0F80880D0F804C02CEA050C9F
:100820000D79C5F300159D4045EA0C0545600D792D
:10083000ED43AD070ED0C5684FEA430804FA08FC43
:1008400025EA0C05D1F808C00CFA08FC4CEA050CA6
:10085000C0F80CC00D7905F00305022D16D1DD0896
:1008600000EB850CCDF808C0DCF820805D074FEA6E
:10087000D56C07FA0CF528EA05080D6905FA0CF5A0
:10088000DDF808C045EA0805CCF8205005684FEAB5
:10089000430CCDF808C004FA0CFC25EA0C0591F8CD
:1008A00004C00CF00308DDF808C008FA0CF848EAA8
:1008B0000508C0F800804D6815F4403F7CD0444DD9
:1008C000D5F860C000E077E04CF0010CC5F860C0DE
:1008D0002D6E23F0030C05F0010500953D4D654498
:1008E0000295AD684FEA837C4FEA1C7807FA08FC52
:1008F00025EA0C05B0F1904F06D0DFF8DCC060456A
:1009000005D14FF0010C20E04FF0000C1DE0DFF8A6
:10091000CCC0604502D14FF0020C16E0DFF8C0C039
:10092000604502D14FF0030C0FE0DFF8B8C060451E
:1009300002D14FF0040C08E0DFF8ACC0604502D1F2
:100940004FF0050C01E04FF0060C0CFA08FC4CEAE5
:10095000050C029DC5F808C0D9F80050CC46D1F866
:10096000048095435FEAC82800D51543CCF80050B1
:10097000DAF80050D446D1F8048095435FEA88281D
:1009800000D51543CCF80050DBF80050DC46D1F818
:10099000048095435FEA883800D51543CCF80050B1
:1009A000DEF80050F446D1F8048095435FEAC83879
:1009B00000D51543CCF800505B1C0A6832FA03F5E9
:1009C0007FF400AF05B0BDE8F08F000008040140DF
:1009D00000100240000001400004004800080048E8
:1009E000000C004800100048001400480AB1816162
:1009F00070478162704700000148806870470000BE
:100A000000000020024881684268114481607047FC
:100A10000000002010B50024032000F065F80F202E
:100A200000F008F808B1012401E000F025F82046A4
:100A300010BD000070B50E4E05460024706898B1D8
:100A40004FF47A71B1FBF0F00A490968B1FBF0F09C
:100A500000F05BFD40B9102D06D200222946501E41
:100A600000F022F8356000E00124204670BD00004F
:100A7000000000200C0000200A4882B0016E41F006
:100A800001010166016E01F001010091816D41F0EB
:100A900080518165806D00F08050009002B000F0C0
:100AA00093B8000000100240F0B40E4B1B680C46D7
:100AB000C3F30223C3F10705042D00D90425191D32
:100AC000072901D2002300E0DB1E012606FA05F10A
:100AD000491E214099409E40761E16403143F0BC8D
:100AE00001F0FEB80CED00E0064900F007020868CE
:100AF0004FF6FF03184040EA0220034A1043086003
:100B0000704700000CED00E00000FA052B492C4B6B
:100B10000A6832214A432B4940B1B0F5007F08688A
:100B200029D020F4C06040F480602CE00868C0F355
:100B30004120022804D051F8800F20F4807022E078
:100B4000D1F8800020F48070C1F88000086820F49B
:100B5000C06040F400700860B2FBF3F0401C00E09D
:100B6000401E4A69520501D50028F9D1486940055F
:100B70000AD503207047C0F34120022806D051F85F
:100B8000800F40F48070086000207047D1F880002A
:100B900040F48070C1F88000086820F4C06040F420
:100BA00000700860B2FBF3F0401C00E0401E4A6990
:100BB0005205DBD50028F9D1D8E700000C00002051
:100BC00040420F00007000400248816841F48041BB
:100BD00081607047007000402DE9F0470E46050027
:100BE0004FF0000725D0DFF8AC81D8F8000000F006
:100BF0000F00B0420CD2D8F8001021F00F013143A1
:100C0000C8F80010D8F8000000F00F00B04210D172
:100C10002968614CC80741F2883A5AD06868DFF801
:100C20007C91032808D0022820682DD04005002898
:100C30002CDB0120BDE8F08720688001F9D5E06851
:100C400000F00302E068C0F30310401C032A19D02F
:100C5000534A00BFB2FBF0F0E268C2F306225043F1
:100C6000E268C2F34162521C5200B0FBF2F0484508
:100C700017D9A06810F0F00F0CD0880711D5A8681C
:100C800040B10EE0474AE5E78003D0E700F092F874
:100C9000484506D9A06820F0F00040F08000A06030
:100CA0008027A068696820F003000843A060FFF770
:100CB000A3FE814606E000BFFFF79EFEA0EB090100
:100CC00051453AD8A068696800F00C00B0EB810F7C
:100CD000F2D12868810714D5400703D5A06840F4F5
:100CE000E060A0602878000705D5A06820F4605077
:100CF00040F4E060A060A068A96820F0F00008431C
:100D000004E0802F03D1A06820F0F000A060D8F8A4
:100D10000010404601F00F01B14216D9016821F0E0
:100D20000F0131430160FFF767FE074607E000BF90
:100D3000FFF762FEC11B514501D903207AE7D8F8BD
:100D4000000000F00F00B042F2D12878400705D52E
:100D5000A068E96820F4E0600843A06028780007F4
:100D600006D5A068296920F4605040EAC100A0605F
:100D700000F020F8A1680C4AC1F30311515C01F0A6
:100D80001F01C8400949086009480068BDE8F047EC
:100D9000FFF750BE002002400010024000B4C4041F
:100DA0000024F40000127A00522600080C000020F3
:100DB00000000020184910B58868C0F38102174868
:100DC000012A0BD08A684310C2F38102022A06D09E
:100DD0008A68C2F38102032A03D0002010BD18469E
:100DE00010BDCA6802F00304CA68C2F30312521CA1
:100DF000032C02D0B0FBF2F001E0B3FBF2F0CA68C2
:100E0000C968C2F306225043C1F34161491C49003D
:100E1000B0FBF1F010BD0000001002400024F4000F
:100E20002DE9F84304007AD02078F84DC00747D068
:100E3000A868E96800F00C0001F003010C2802D05A
:100E4000082817D001E0032914D06068B0F5803F6E
:100E500017D0B0F5A02F286817D020F48030286074
:100E6000286820F4802028606068E0B1FFF7C4FDA6
:100E7000064614E02868800322D560680028D2D096
:100E80001EE0286840F48030EDE740F480202860C0
:100E9000F7E700BFFFF7B0FD801B642870D8286813
:100EA0008003F7D50CE0FFF7A7FD064605E000BF7D
:100EB000FFF7A2FD801B6428F0D828688003F7D4D0
:100EC000207880074CD5A868E96800F00C0001F094
:100ED00003010C2802D004280DD001E002290AD019
:100EE000E068002828682BD040F480702860FFF765
:100EF00083FD064619E02868400502D5E068002811
:100F000091D06868217C20F0FE4040EA0160686072
:100F1000BF480068FFF78EFD002800D120E072E195
:100F2000FFF76AFD801B0228B8D828684005F7D56E
:100F30006868217C20F0FE4040EA016068600FE0B4
:100F400020F480702860FFF757FD064605E000BFDB
:100F5000FFF752FD801B0228A0D828684005F7D46F
:100F60002078000729D560690028D5F8940013D0AF
:100F700040F00100C5F89400FFF73EFD064606E08C
:100F800090E000BFFFF738FD801B022886D8D5F817
:100F900094008007F6D510E020F00100C5F8940019
:100FA000FFF72AFD064604E0FFF726FD801B022816
:100FB00078D8D5F894008007F6D42078400761D51A
:100FC000A86D0026C00008D4A86D40F08050A86528
:100FD000A86D012600F0805000908E480168C90578
:100FE00011D40168804641F480710160FFF704FD6F
:100FF000074604E0FFF700FDC01B022852D8D8F8CE
:101000000000C005F6D5A068012815D00528D5F840
:10101000900016D020F00100C5F89000D5F890009F
:1010200020F00400C5F89000A06841F28838B8B1FB
:10103000FFF7E2FC07460EE0D5F8900040F0010013
:10104000F0E740F00400C5F89000F5E7FFF7D4FCA6
:10105000C11B414526D8D5F890008007F6D50CE095
:10106000FFF7CAFC074604E0FFF7C6FCC11B414579
:1010700018D8D5F890008007F6D41EB1A86D20F0DE
:101080008050A8652078800629D5A0690028D5F869
:10109000980013D040F00100C5F89800FFF7ACFCB1
:1010A000064606E075E000BFFFF7A6FC801B02289D
:1010B0006FD8D5F898008007F6D510E020F0010031
:1010C000C5F89800FFF798FC064604E0FFF794FC8B
:1010D000801B02285DD8D5F898008007F6D4E06917
:1010E000F0B3A968C1F3810103295DD00228286803
:1010F00020F08070286003D0FFF77EFC04464BE0B0
:10110000FFF77AFC064604E0FFF776FC801B022816
:101110003FD828688001F7D4F4E908016FF00F0286
:1011200002EB01110843218A5204490802EB4151A4
:10113000A26841EA02210843217D4FF07E4249081E
:1011400002EB41610843217B40EAC160E968324A11
:1011500011400843E860286840F08070286000E093
:101160005EE0E86840F08070E860FFF745FC044608
:1011700005E000BFFFF740FC001B022809D82868E3
:101180008001F7D54CE000BFFFF736FC001B0228BA
:1011900002D90320BDE8F88328688001F4D4E86808
:1011A0001E490840E8603BE00128F3D0E868226A65
:1011B00000F00301914226D1616A00F0F0020901BA
:1011C000103991421FD1A26A00F4FE41B1EB022F07
:1011D00019D194F82C2000F07841B1EBC26F12D1F4
:1011E000218E00F4C00249084905A1F50011914281
:1011F00009D194F8341000F0C06049084906A1F103
:10120000007181420CD00120C4E7000000100240B0
:1012100000000020007000400C809F01FCFFEEFEEB
:101220000020B7E770B5040009D0606A002540B11E
:1012300025616561A56294F85D0040B10CE0012074
:1012400070BD6068B0F5827FF4D0E561F2E784F8A4
:101250005C50204600F05CF8022084F85D002068B5
:10126000016821F040010160E1684FF4E0629142C1
:1012700001D9002001E04FF48050B1F5706F02D029
:10128000914200D0A562A188228901F4827102F402
:1012900004421143227C02F002021143227D02F03B
:1012A00001021143228B02F400721143227F02F0EB
:1012B0003802114394F8202002F080021143228D5D
:1012C00002F40052114322681160A169042202EA6B
:1012D000114194F8242000F4805002F010021143D0
:1012E00094F8342002F008021143A28902F47062DB
:1012F00011430143206841602068C16921F4006105
:10130000C1612566012084F85D00002070BD0000E9
:1013100010B586B0044614216846FEF782FF1349D3
:10132000206888421FD11248816D41F400418165D7
:10133000816D01F400410591C16C41F00401C1646B
:10134000C06C694600F0040005904FF4A050009076
:1013500002200190002002900320039006200490B8
:101360000448FFF71FFA06B010BD0000003C004023
:1013700000100240000800482DE9F84F044690F89C
:101380005C000026984615468A4601280CD00127A5
:1013900084F85C70FFF730FB814694F85D00B3463B
:1013A000012804D00226ACE00220BDE8F88FBAF193
:1013B000000F79D0002D77D0032084F85D00C4F8A9
:1013C00060B0C4F838A0A587E587C4F840B0A4F899
:1013D00044B0A4F846B0C4F850B0C4F84CB0A0680B
:1013E000B0F5004F09D12068016821F0400101608B
:1013F0002068016841F48041016020680168490665
:1014000003D4016841F040010160E068B0F5E06F8D
:10141000606828D908B1012D1FD1A06B2168008810
:10142000C86006E020688168890709D5A16B098832
:10143000C160A06B801CA063E08F401EE0870CE0C1
:10144000FFF7DAFAA0EB0901414503D3B8F1FF3FFA
:1014500003D006E0B8F1000F03D0E08F0028E1D1FF
:101460003BE003264BE008B1012D33D1E08F01288A
:10147000A06B03D921680088C8600FE0216800785C
:10148000087314E0E08725E020688168890714D597
:10149000E18F0129A16B08D90988C160A06B801C6C
:1014A000A063E08F801EEDE727E009780173A06B51
:1014B000401CA063E08F401EE4E7FFF79DFAA0EB1D
:1014C0000901414503D3B8F1FF3F03D0C9E7B8F1A3
:1014D000000FC6D0E08F0028D6D14A4641462046AC
:1014E00000F0BBFA08B120202066A06818B9206877
:1014F000C16880680090206E08B1012601E084F880
:101500005D7084F85CB030464FE710B5401EB0F116
:10151000807F01D3012010BD4FF0E02460610F21D6
:10152000601700F0DDFB0020A06107202061002093
:1015300010BDFEE72DE9F04107461C4615460E4654
:101540002A2000F0B5F92837B8B200F087F928351D
:10155000A8B200F083F92B2000F0AAF93536B0B21A
:1015600000F07CF93534A0B200F078F9BDE8F04124
:101570002C2000F09DB9000070B5044600218623A0
:10158000EF220846FFF7D6FF0E4B0022204601F05F
:101590005BF823F81200521CF02AF7DB0122D1027B
:1015A0000948FFF723FA00244FF480754FF4F076D2
:1015B0002B46324603490548FFF7DEFE641C872CA4
:1015C000F6DB70BDF4000020000800481000002089
:1015D00010B514460B460246FFF7ACFF2046BDE8A7
:1015E000104000F03BB9000070B54FF400444FF0DC
:1015F0009045002221462846FFF7F8F96420FFF7BE
:10160000BFF8012221462846FFF7F0F96420FFF7D2
:10161000B7F8002204216248FFF7E8F90022802190
:101620006048FFF7E3F96420FFF7AAF8112000F003
:101630003FF97820FFF7A4F8362000F039F9702040
:1016400000F024F93A2000F033F9052000F01EF9EB
:10165000B22000F02DF90C2000F018F90C2000F059
:1016600015F9002000F012F9332000F00FF93320B3
:1016700000F00CF9B72000F01BF9352000F006F956
:10168000BB2000F015F9192000F000F9C02000F08F
:101690000FF92C2000F0FAF8C22000F009F901201F
:1016A00000F0F4F8C32000F003F9122000F0EEF887
:1016B000C42000F0FDF8202000F0E8F8C62000F07B
:1016C000F7F80F2000F0E2F8D02000F0F1F8A420A5
:1016D00000F0DCF8A12000F0D9F8E02000F0E8F8F4
:1016E000D02000F0D3F8042000F0D0F80D2000F056
:1016F000CDF8112000F0CAF8132000F0C7F82B2015
:1017000000F0C4F83F2000F0C1F8542000F0BEF80B
:101710004C2000F0BBF8182000F0B8F80D2000F0C5
:10172000B5F80B2000F0B2F81F2000F0AFF823202E
:1017300000F0ACF8E12000F0BBF8D02000F0A6F8F3
:10174000042000F0A3F80C2000F0A0F8112000F015
:101750009DF8132000F09AF82C2000F097F83F2015
:1017600000F094F8442000F091F8512000F08EF839
:101770002F2000F08BF81F2000F088F81F2000F0C9
:1017800085F8202000F082F8232000F07FF8212047
:1017900000F08EF8BDE87040292000F089B8000004
:1017A000000C0048000400482DE9FF5F0E4680460B
:1017B000E0282BD8772E29D806F10F00203A83B2E3
:1017C0001FFA82FA08F1070082B24046FFF7B2FE24
:1017D000DFF83CB0002400BF04EB0A1100251BF821
:1017E000017006EB0409F80707D008EB05001FFAA3
:1017F00089F180B2039AFFF7EBFE6D1C7F08ADB252
:10180000082DF0D3641CA4B2102CE5D3BDE8FF9FD3
:10181000622600082DE9F041984616460D4604461A
:101820004FF4784714E0E02C02D900241035ADB213
:10183000772D04D9002425463846FFF79DFE3278DF
:10184000434629462046FFF7AFFF0834A4B2761C72
:1018500030780028E7D1BDE8F081000001B5012211
:10186000BDF80000010241EA1020ADF80000D102ED
:101870000448FFF7BBF80A23022269460248FFF733
:101880007BFD08BD000800481000002001B50122C2
:10189000D1020548FFF7AAF80A2301226946034846
:1018A000FFF76AFD08BD0000000800481000002096
:1018B00001B500224FF400610448FFF797F80A23AE
:1018C000012269460248FFF757FD08BD000800489D
:1018D000100000200FB470B514460D46064608AA45
:1018E0000648079900F0EAF92346044A294630469B
:1018F000FFF790FF70BC5DF814FB0000740000203F
:101900002DE9F04786B014216846FEF78AFC374877
:10191000C16C41F00401C164C16C01F00401059186
:10192000C16C41F02001C164C16C01F0200105913E
:10193000C16C41F00101C164C16C01F0010105916C
:10194000C16C41F00801C164C16C01F0080105914E
:10195000C16C41F00201C164C06C254F00F002006F
:101960004FF468440590002221463846FFF73EF8C0
:101970004FF400464FF09048002231464046FFF7B2
:1019800035F8DFF87090002204214846FFF72EF862
:10199000DFF864A0002280215046FFF727F80125D8
:1019A000CDE9004500240294694638460394FEF7C9
:1019B000F9FE0096CDE90154694640460394FEF7CE
:1019C000F1FE04200090CDE9015469464846039495
:1019D000FEF7E8FE80200090CDE9015469465046AC
:1019E0000394FEF7DFFE06B0BDE8F087001002406A
:1019F00000080048000C004800040048144810B5D6
:101A0000124901604FF4827141604FF400418160DE
:101A10004FF4E061C1600221016100214FF40072C6
:101A2000C0E905122822C0E9072107224162C0E966
:101A30000A12016308214163FFF7F4FB002803D079
:101A4000BDE81040FEF79ABE10BD0000003C00400B
:101A500010000020FEE7FEE77047F8B515460E4679
:101A60000B460092044600224FF4C05100F01AF8D1
:101A700088B93346002280212046009500F082F884
:101A800048B9334600224FF4C0612046009500F06B
:101A900009F8002804D0206E40F0200020660320C2
:101AA000F8BD00002DE9FE4F4FF0000A984617469A
:101AB0000E4604460C9D8DF804A0FEF79DFF411BC9
:101AC000A8EB0105FEF798FF814620684FF4C06B34
:101AD0000C3002902A480068C0EBC00000EB800088
:101AE000000D6843009043E05E4506D12FB902988F
:101AF00000788DF804009DF80400B8F1FF3F37D05E
:101B0000FEF77AFFA0EB0900A84203D215B10098B6
:101B100058B32BE02068416821F0E0014160606823
:101B2000B0F5827F0BD1A068B0F5004F02D0B0F5C0
:101B3000806F04D12068016821F040010160A06A33
:101B4000B0F5005F09D12068016821F400510160FF
:101B50002068016841F400510160012084F85D00B3
:101B600084F85CA00320BDE8FE8F0025401E009095
:101B7000206880683040B842B6D10020F3E700000A
:101B80000C0000202DE9F8431E4691468846044685
:101B9000089DFEF731FF401B351AFEF72DFF074663
:101BA00025480068C0F3CB30684338E0701C37D05C
:101BB000FEF722FFC01BA84203D215B1009860B304
:101BC0002CE02068416821F0E00141606068B0F5D8
:101BD000827F0BD1A068B0F5004F02D0B0F5806FC6
:101BE00004D12068016821F040010160A06AB0F5CD
:101BF000005F09D12068016821F40051016020686C
:101C0000016841F400510160012084F85D0000206A
:101C100084F85C000320BDE8F8830025401E009096
:101C20002068816838EA010004D000214945BDD10F
:101C30000020F0E70121F9E70C0000207047FEF7D3
:101C4000E1BE10B594B038216846FEF7EAFA1421D7
:101C50000EA8FEF7E6FA0020FEF758FF01200090DC
:101C60000004019002200324CDE907045521CDE9A9
:101C700009010B900C900D906846FFF7D1F808B160
:101C800072B6FEE70F20CDE90E04002010901190EF
:101C9000129004210EA8FEF79FFF002801D072B613
:101CA000FEE714B010BD00000248016841F4700165
:101CB0000160704788ED00E0FEE7000037B514468C
:101CC0000846064B6A46214600F0ECF80446694691
:101CD000002000F06AFC20463EBD0000AB25000855
:101CE0000907090E002804DB00F1E02080F8001449
:101CF000704700F00F0000F1E02080F8141D7047DD
:101D000002E008C8121F08C1002AFAD170477047C4
:101D1000002001E001C1121F002AFBD17047000022
:101D20002DE9FF5F82B00021DDE90430020DDDF80E
:101D300040B0034318D044F61050A2F2FF324243A1
:101D40001514119801281FD0A5EB0B00401C5FEA69
:101D5000000A4FF000064E4FDFF83891B04650466B
:101D600015D5CAF1000413E0119801244AA30128F3
:101D700001D16FEA0B010298119AC0E90031C0E964
:101D8000024206B0BDE8F09FCBF10000DFE7044659
:101D90000021404A491842EB0450CDE9001012E0FE
:101DA000E00707D032463B4640464946FEF732FB45
:101DB0008046894632463B4610461946FEF72AFBC6
:101DC00006460F466410002CEAD1DDE90401DDE986
:101DD0000023BAF1000F06DAFEF71CFB42464B4621
:101DE000FEF718FB05E0FEF787FB42464B46FEF781
:101DF00083FB04460E460022284BFEF705FC03D861
:101E00004FF0FF30014607E00022254B20463146C7
:101E1000FEF759FAFEF7DFFB102409E0002C0ADB7D
:101E20000A220023FEF71EFA039B30321A55641E65
:101E300050EA0102F2D1641C039AC4F11103144464
:101E4000119A012A03D0012208430DD10AE0084368
:101E500004D000204FF0110B119072E7A3EB0B059B
:101E60006D1E0DE05B4504DD4FF0000205F101053C
:101E700004E003DA4FF00002A5F10105002AECD0DE
:101E800002981199C0E90231C0E9004579E70000E4
:101E9000000014400000F03F300000000000F0435C
:101EA0000000E03F2DE9FF4F95B09A468846064670
:101EB0000025EEE1252877D100242746F94A0121A3
:101EC000039400E0044316F8013F203B01FA03F0BD
:101ED0001042F7D130782A2811D06FF02F033078D4
:101EE000A0F13002092A16D8039A44F0020402EB4A
:101EF000820203EB42021044761C0390EFE758F88D
:101F0000042B0392002A03DA504244F40054039055
:101F100044F00204761C30782E2816D116F8010FF2
:101F200044F004042A280DD06FF02F023078A0F17D
:101F30003003092B09D807EB870302EB4303C718CB
:101F4000761CF3E758F8047B761C30786C280FD0A9
:101F500006DC4C2817D068280DD06A2814D104E07C
:101F6000742810D07A280FD10DE044F400140AE050
:101F700044F4801401E044F440147278824202D1A7
:101F800004F58014761C761C307866280BD013DCA0
:101F9000582877D009DC002875D04528F6D0462887
:101FA000F4D047281AD193E118E0632835D064288B
:101FB00079D0652812D18BE1702873D008DC6728AE
:101FC000F1D069286FD06E280DD06F2806D1ACE013
:101FD00073282CD0752874D0782853D0524617997E
:101FE00090476D1C54E1C4F30250022809D0032825
:101FF0000DD0D8F8001004280DD00D6008F10408A9
:1020000046E1D8F80010EA17C1E90052F6E7D8F81F
:1020100000100D80F2E70D70F0E718F8041B8DF842
:10202000001000208DF80100EB46012003E058F875
:1020300004BB4FF0FF3061074FF0000102D40DE008
:1020400009F101018946B9420FDA8145F8DB1BF835
:1020500009100029F4D108E009F101018946814203
:10206000FADB1BF809100029F6D103985346A0EBC0
:10207000090721463846179A00F080FA284400EBF9
:10208000090507E044E008E10DE01BF8010B5246AA
:1020900017999047B9F10109F7D2534621463846BE
:1020A000179AF2E039E00A21C4F302524FF0000B14
:1020B0000091022A06D058F8040BC117032A09D050
:1020C0000AE023E008F1070020F00702F2E802012D
:1020D000904605E000B2C117042A01D140B2C117F1
:1020E000002906DA0A460021404261EB02012D2256
:1020F00002E0220504D52B228DF80420012203E002
:10210000E20701D02022F7E7914657E00A2100E0DC
:1021100010214FF0000B00910BE010214FF0000B4D
:1021200044F004040827009103E008204FF0000B5E
:102130000090C4F30252022A05D058F8040B002183
:10214000032A08D008E008F1070020F00702F2E8AF
:102150000201904603E080B2042A00D1C0B24FF0E1
:10216000000922072AD53278702A07D0DDF800C08E
:102170008CF0100C5CEA0B0C05D00EE040228DF8C0
:102180000420012208E050EA010306D030238DF834
:1021900004308DF8052002229146009B83F008034D
:1021A00053EA0B030AD150EA010201D1620705D5B7
:1021B00030228DF804204FF001097F1E3278582A12
:1021C00004D039A20C920CAA02920BE03BA2F9E7D0
:1021D0005B46009AFEF746F80C9B9B5C029A521EE7
:1021E0000292137050EA0102F2D1029804A9081A6F
:1021F00000F1200B600702D524F4803400E00127B1
:102200005F4502DDA7EB0B0000E0002000EB0B01B7
:10221000009003984944401A0390E00306D45346C3
:102220002146179A039800F0A9F90544002706E013
:1022300001A85246C05D179990476D1C7F1C4F4501
:10224000F6DBE0030CD553462146179A039800F0BD
:1022500095F9054404E030205246179990476D1CCB
:102260000099481E00900029F5DC08E002980299C8
:1022700052460078491C0291179990476D1CBBF19A
:102280000001ABF1010BF1DC5BE100F065F9054405
:10229000761C307800287FF40DAE19B02846BDE8D2
:1022A000F08F0000092801003031323334353637E1
:1022B0003839616263646566000000003031323392
:1022C0003435363738394142434445460000000032
:1022D000600700D4062708F1070020F00700F0E8A7
:1022E0000223804603F0004C5FEA0C0001D097A067
:1022F00009E0200501D596A005E0E00701D095A0F2
:1023000001E0AFF24C001390307823F000436528D1
:102310000CD006DC452809D046281DD047287FD19F
:102320003BE0662818D067287AD136E00021112FCB
:1023300001DB112000E0781CCDE9000104A90CA804
:10234000FFF7EEFCDDE90D010C9A4FF0000B07F1F1
:102350000109109200914EE04FF000400097CDE946
:10236000011004A90CA8FFF7DBFCDDE90D020C9BB2
:102370000F994FF0000B91461093009211B9791C00
:1023800000EB0109B7EB090003D4C0F1FF3B07F1F3
:102390000109A9EB0700019042E0012F00DA0127B3
:1023A0000021112F01DD112000E03846CDE90001A8
:1023B00004A90CA8FFF7B4FCDDE90D010C9A00910B
:1023C0004FF0000BB946109221070FD4009A4A45EE
:1023D00003DA914601E0A9F10109B9F1010F05DD28
:1023E000109AA9F10101515C3029F4D0B84202DA07
:1023F00010F1040F03DA0121CDE9011010E00028EB
:1024000003DC8344A9EB000102E0411C494500DDE7
:102410008946A0EB0B00401C01904FF00040029059
:10242000200705D40198484502DB4FF0FF300190AA
:1024300000208DF84B0002980DF14B07B0F1004FD2
:1024400025D002200C902B200D90029800280CDA49
:10245000404202902D200D9007E00A210298FDF7DE
:10246000EBFE3031029007F8011D0C99481E0C90CC
:102470000029F2DC02980028EFD1791E0D9808702F
:10248000307800F0200040F0450007F8020D11A858
:10249000C01BC01D02901398007800B1012000EB12
:1024A0000901019801EBE071029801440398401A78
:1024B000401E0390E00306D453462146179A039822
:1024C00000F05CF805441398007818B1524617994B
:1024D00090476D1CE00323D553462146179A039875
:1024E00000F04CF805441BE0BBF1000F07DB00983F
:1024F000584504DD1098179910F80B0001E0179962
:1025000030205246904701980BF1010B401E05F117
:102510000105019004D12E205246179990476D1C59
:10252000B9F10001A9F10109DEDC05E017F8010BA2
:102530005246179990476D1C0299481E0290002937
:10254000F4DC53462146179A03989EE62D000000BE
:102550002B000000200000002DE9F041044600257A
:102560001E461746880404D405E039462020B047AB
:102570006D1C641EF9D52846BDE8F0812DE9F041B7
:10258000044600251E469046C80301D5302700E0CA
:102590002027880404D505E041463846B0476D1C25
:1025A000641EF9D52846BDE8F0810A68531C0B600B
:1025B00010707047FEF72EFAFFF743FBFFF7A0F904
:1025C000FFF71CFA174C012251032046FEF70EFAC2
:1025D000FFF70AF80020FEF7CFFF002112A34FF407
:1025E00078420846FFF776F90FA31F221E2100202C
:1025F000FFF770F90CA34FF4FC623C210020FFF7B9
:1026000069F90CA347F67C526E212D20FFF762F981
:102610004FF47A70FEF7B4F8012291032046FEF7DA
:10262000E5F9FEE700080048494F20696D70756CB8
:1026300073650000323032332D30312D303120308F
:10264000303A30303A303100010241EA102080B295
:1026500070470000000000000000010203040607AC
:102660000809000000000000000000000000000059
:1026700000000000000808080808080800001818F2
:10268000000000486C241200000000000000000060
:1026900000000000002424247F1212127F12121264
:1026A00000000000081C2A2A0A0C1828282A2A1CC4
:1026B000080800000022251515152A5854545422E4
:1026C00000000000000C1212120A76252911916EEA
:1026D00000000006060403000000000000000000E7
:1026E00000000040201010080808080808101020FA
:1026F0004000000204080810101010101008080410
:1027000002000000000008086B1C1C6B0808000099
:10271000000000000000080808087F0808080800FA
:10272000000000000000000000000000000006069D
:1027300004030000000000000000FE000000000094
:10274000000000000000000000000000000006067D
:1027500000000000804040202010100808040402FF
:102760000200000000182442424242424242241821
:102770000000000000080E08080808080808083EC5
:1027800000000000003C4242422020100804427E2B
:1027900000000000003C4242201820404042221C21
:1027A0000000000000203028242422227E202078EF
:1027B00000000000007E0202021A26404042221C55
:1027C0000000000000382402021A26424242241867
:1027D00000000000007E22221010080808080808E7
:1027E00000000000003C4242422418244242423C85
:1027F0000000000000182442424264584040241C5B
:102800000000000000000000181800000000181868
:1028100000000000000000000008000000000008A8
:1028200008040000004020100804020408102040A2
:1028300000000000000000007F0000007F0000009A
:1028400000000000000204081020402010080402CC
:1028500000000000003C42424640201010001818C2
:1028600000000000001C225A555555552D42221CCF
:1028700000000000000808181414243C224242E71B
:1028800000000000001F2222221E22424242221F7C
:1028900000000000007C4242010101010142221CB3
:1028A00000000000001F2242424242424242221FD8
:1028B00000000000003F4212121E12120242423F6C
:1028C00000000000003F4212121E12120202020714
:1028D00000000000003C2222010101712122221C83
:1028E0000000000000E7424242427E42424242E78C
:1028F00000000000003E0808080808080808083E14
:1029000000000000007C10101010101010101010AB
:10291000110F0000007722120A0E0A1212222277EB
:102920000000000000070202020202020202427FCF
:10293000000000000077363636362A2A2A2A2A6B0B
:102940000000000000E346464A4A52525262624783
:1029500000000000001C2241414141414141221C34
:1029600000000000003F424242423E0202020207D3
:1029700000000000001C2241414141414D53321CE6
:1029800060000000003F4242423E1212222242C733
:1029900000000000007C4242020418204042423EF7
:1029A00000000000007F4908080808080808081C03
:1029B0000000000000E74242424242424242423CA2
:1029C0000000000000E742422224241414180808E2
:1029D00000000000006B4949494955553622222222
:1029E0000000000000E7422424181818242442E7BD
:1029F0000000000000772222141408080808081CB0
:102A000000000000007E2120101008040442423F14
:102A100000000078080808080808080808080808DE
:102A2000780000000202040408080810102020208A
:102A30004040001E10101010101010101010101038
:102A40001E000038440000000000000000000000EC
:102A50000000000000000000000000000000000076
:102A600000FF000608000000000000000000000059
:102A70000000000000000000003C4278444242FC9C
:102A80000000000000030202021A26424242261AF7
:102A90000000000000000000003844020202443838
:102AA000000000000060404040784442424264D848
:102AB0000000000000000000003C427E0202423C98
:102AC0000000000000F08808087E08080808083E9A
:102AD0000000000000000000007C22221C023C429A
:102AE000423C000000030202023A4642424242E7F0
:102AF00000000000000C0C00000E08080808083E4A
:102B0000000000000030300000382020202020206D
:102B1000221E0000000302020272120A161222771D
:102B200000000000000E0808080808080808083E11
:102B30000000000000000000007F9292929292B785
:102B40000000000000000000003B4642424242E715
:102B50000000000000000000003C42424242423CB3
:102B60000000000000000000001B26424242221E1E
:102B7000020700000000000000784442424244780E
:102B800040E000000000000000774C040404041F33
:102B90000000000000000000007C42023C40423E79
:102BA0000000000000000008083E0808080808307F
:102BB000000000000000000000634242424262DC6C
:102BC000000000000000000000E742242414080870
:102BD000000000000000000000EB4949555522228A
:102BE0000000000000000000007624181818246E71
:102BF000000000000000000000E742242414180830
:102C00000807000000000000007E22100808447E33
:102C1000000000C020202020201020202020202084
:102C2000C000101010101010101010101010101004
:102C30001010000608080808081008080808080806
:102C400006000C32C200000000000000000000007E
:102C500000000000742C000800000020100000009C
:102C6000001D0008842C000810000020C806000089
:102C7000101D00081000000001000000000000000E
:042C80000024F40038
:04000005080001D915
:00000001FF
