:020000040800F2
:1000000020050020F10100082B1B000873190008CF
:10001000291B0008FD020008C52F00080000000091
:10002000000000000000000000000000152A000889
:10003000FF020008000000002D1B0008172A00081E
:100040000B0200080B0200080B0200080B0200085C
:100050000B0200080B0200080B0200080B0200084C
:100060000B0200080B0200080B0200080B0200083C
:100070000B0200080B0200080B0200080B0200082C
:100080000B020008000000000B0200080B02000831
:100090000B0200080B0200080B0200080B0200080C
:1000A0000B0200080B0200080B0200080B020008FC
:1000B0000B0200080B0200080B0200080B020008EC
:1000C0000B0200080B0200080B0200080B020008DC
:1000D0000B0200080B0200080B020008B92F0008F1
:1000E0000B0200080B0200080B0200080B020008BC
:1000F0000B0200080B0200080B02000800000000C1
:10010000000000000B020008000000000B020008C5
:100110000B020008000000000B0200080B020008A0
:100120000B0200080B0200080B0200080B0200087B
:100130000B02000800000000000000000B02000895
:100140000B0200080B020008000000000000000085
:10015000000000000000000000000000000000009F
:100160000000000000000000000000000B0200087A
:100170000B0200080000000000000000000000006A
:10018000000000000B02000800000000000000005A
:10019000000000000000000000000000000000005F
:1001A00000000000000000000B0200080B02000825
:1001B0000B0200080B0200080B0200080000000000
:1001C000000000000B02000800000000000000001A
:1001D0000B0200080B020008DFF810D000F07CF8DA
:1001E0000048004705300008AFF3008020050020DC
:1001F0000648804706480047FEE7FEE7FEE7FEE7C1
:10020000FEE7FEE7FEE7FEE7FEE7FEE7812A0008DD
:10021000D90100082DE9F05F0546002092469B4673
:1002200088460646814640241BE02846414647460C
:10023000224600F041F853465A46C01A914110D365
:1002400011461846224600F028F82D1A67EB0108DF
:100250004F4622460120002100F01FF817EB00094D
:100260004E41201EA4F10104DFDC484631462A46F7
:100270004346BDE8F09FD2B201E000F8012B491ED1
:10028000FBD270470022F6E710B513460A46044633
:100290001946FFF7F0FF204610BD202A04DB203A64
:1002A00000FA02F1002070479140C2F1200320FAC9
:1002B00003F3194390407047202A04DB203A21FAC7
:1002C00002F00021704721FA02F3D040C2F120026F
:1002D0009140084319467047064C074D06E0E06818
:1002E00040F0010394E8070098471034AC42F6D37D
:1002F000FFF776FF90D80008B0D80008FEE77047F7
:1003000072B6FEE710B590F8253000210122022BCD
:1003100003D00421C163012122E003681C6824F09A
:100320000E041C60836C1C6824F480741C600368D9
:100330001C6824F001041C6090F84430046C03F045
:100340001F0302FA03F36360D0E913345C60436D6A
:1003500033B11C6824F480741C60D0E916345C60EE
:1003600080F82520002280F82420084610BD70B5B2
:1003700090F82520002401212346022A07D00422D8
:10038000C26380F8251080F82430012429E0026837
:10039000156825F00E0515600268156825F0010541
:1003A0001560826C156825F48075156090F84420FE
:1003B000056C02F01F0201FA02F26A60D0E913250F
:1003C0005560426D32B1156825F480751560D0E92D
:1003D0001625556080F8251080F82430816B01B116
:1003E0008847204670BD000070B5044600F038F91B
:1003F0000546601C02D004484068044400F030F90F
:10040000401BA042FAD370BD000000202DE9F04F40
:10041000DFF82092002301260324A9F1040B85B004
:100420000F2709F1040AABF1040EFAE006FA03F50E
:100430002A407CD091F804C00CF0030CBCF1010FF1
:1004400002D0BCF1020F26D1D0F808C0CDF800C010
:100450004FEA430C04FA0CF8CDF810C0DDF800C0E8
:100460002CEA080CCDF800C0D1F80C80DDF810C0E3
:1004700008FA0CF8DDF800C048EA0C08C0F808805B
:10048000D0F804C02CEA050C0D79C5F300159D4089
:1004900045EA0C0545600D79ED43AD070ED0C56802
:1004A0004FEA430804FA08FC25EA0C05D1F808C015
:1004B0000CFA08FC4CEA050CC0F80CC00D7905F0EC
:1004C0000305022D16D1DD0800EB850CCDF808C020
:1004D000DCF820805D074FEAD56C07FA0CF528EAB6
:1004E00005080D6905FA0CF5DDF808C045EA0805B0
:1004F000CCF8205005684FEA430CCDF808C004FA48
:100500000CFC25EA0C0591F804C00CF00308DDF89A
:1005100008C008FA0CF848EA0508C0F800804D68E1
:1005200015F4403F7CD0444DD5F860C000E077E042
:100530004CF0010CC5F860C02D6E23F0030C05F0E3
:10054000010500953D4D65440295AD684FEA837CF9
:100550004FEA1C7807FA08FC25EA0C05B0F1904F29
:1005600006D0DFF8DCC0604505D14FF0010C20E07B
:100570004FF0000C1DE0DFF8CCC0604502D14FF019
:10058000020C16E0DFF8C0C0604502D14FF0030C4A
:100590000FE0DFF8B8C0604502D14FF0040C08E06E
:1005A000DFF8ACC0604502D14FF0050C01E04FF020
:1005B000060C0CFA08FC4CEA050C029DC5F808C0B4
:1005C000D9F80050CC46D1F8048095435FEAC8289A
:1005D00000D51543CCF80050DAF80050D446D1F8D5
:1005E000048095435FEA882800D51543CCF8005075
:1005F000DBF80050DC46D1F8048095435FEA883888
:1006000000D51543CCF80050DEF80050F446D1F880
:10061000048095435FEAC83800D51543CCF80050F4
:100620005B1C0A6832FA03F57FF400AF05B0BDE841
:10063000F08F00000804014000100240000001405B
:100640000004004800080048000C00480010004862
:10065000001400480AB18161704781627047000050
:10066000014880687047000000000020024881684F
:1006700042681144816070470000002010B50024DA
:10068000032000F073F80F2000F008F808B10124EF
:1006900001E000F025F8204610BD000070B50E4EB8
:1006A00005460024706898B14FF47A71B1FBF0F000
:1006B0000A490968B1FBF0F000F0D1FE40B9102DF5
:1006C00006D200222946501E00F030F8356000E0C6
:1006D0000124204670BD0000000000200C00002016
:1006E0000A4882B0016E41F001010166016E01F01D
:1006F00001010091816D41F080518165806D00F0B4
:100700008050009002B000F0A1B80000001002403C
:10071000002809DB00F01F02012191404009800000
:1007200000F1E020C0F8001170470000F0B40E4B5B
:100730001B680C46C3F30223C3F10705042D00D93F
:100740000425191D072901D2002300E0DB1E012624
:1007500006FA05F1491E214099409E40761E16403A
:100760003143F0BC02F02FBC0CED00E0064900F074
:10077000070208684FF6FF03184040EA0220034AC8
:1007800010430860704700000CED00E00000FA051F
:100790002B492C4B0A6832214A432B4940B1B0F512
:1007A000007F086829D020F4C06040F480602CE00D
:1007B0000868C0F34120022804D051F8800F20F4CB
:1007C000807022E0D1F8800020F48070C1F88000B1
:1007D000086820F4C06040F400700860B2FBF3F0D9
:1007E000401C00E0401E4A69520501D50028F9D19D
:1007F000486940050AD503207047C0F3412002280C
:1008000006D051F8800F40F48070086000207047D7
:10081000D1F8800040F48070C1F88000086820F4AE
:10082000C06040F400700860B2FBF3F0401C00E0D0
:10083000401E4A695205DBD50028F9D1D8E70000EF
:100840000C00002040420F00007000400248816808
:1008500041F4804181607047007000402DE9F84309
:100860000446006800269D4D00035ED5A86D002754
:10087000C00008D4A86D40F08050A865A86D01277D
:1008800000F080500090DFF85892D9F8001041F441
:100890008071C9F80010FFF7E3FE804606E000BF54
:1008A000FFF7DEFEA0EB080002282BD8D9F80000E5
:1008B000C005F5D5D5F8900010F4407014D0216C27
:1008C000814211D0D5F89000D5F8901020F44070F6
:1008D00041F48031C5F89010D5F8901021F48031A2
:1008E000C5F89010C5F89000C00711D0FFF7B8FE0A
:1008F000804641F2883907E0FFF7B2FEA0EB08011D
:10090000494501D903260BE0D5F890008007F3D5BF
:10091000D5F89000216C20F440700843C5F8900091
:100920001FB1A86D20F08050A8652078C00707D0BF
:10093000D5F88800616820F003000843C5F88800F6
:100940002078800707D5D5F88800A16820F00C0032
:100950000843C5F888002078400707D5D5F88800F7
:10096000E16820F030000843C5F8880020780007CF
:1009700007D5D5F88800216920F0C0000843C5F8E4
:1009800088002078800607D5D5F88800616920F4B2
:1009900040600843C5F888002078400607D5D5F8A0
:1009A0008800A16920F440500843C5F888002078E9
:1009B000000607D5D5F88800E16920F440400843D7
:1009C000C5F888002088C00507D5D5F88800216AB9
:1009D00020F440300843C5F888002088800507D5FA
:1009E000D5F88800616A20F440200843C5F88800E3
:1009F000208840050FD5D5F88800A16A20F4401062
:100A00000843C5F88800A06AB0F5801F03D1E868E4
:100A100040F48010E860208800050FD5D5F88800E4
:100A2000E16A20F440000843C5F88800E06AB0F5A8
:100A3000800F03D1E86840F48010E8602088C0048B
:100A40000FD5D5F88800216B20F040700843C5F819
:100A50008800206BB0F1807F03D1E86840F48010FB
:100A6000E86020884FF0006180040ED5D5F888003A
:100A7000626B20F040601043C5F88800606B8842CC
:100A800003D1E86840F48010E860208840040ED567
:100A9000D5F88800A26B20F040601043C5F88800AC
:100AA000A06B884203D1E86840F48010E860208899
:100AB00000040FD5D5F88800E16B20F040500843C2
:100AC000C5F88800E06BB0F1805F03D1E86840F4BE
:100AD0008030E8603046BDE8F88300000010024036
:100AE000007000402DE9F0470E4605004FF000076A
:100AF00025D0DFF8AC81D8F8000000F00F00B0423C
:100B00000CD2D8F8001021F00F013143C8F80010C2
:100B1000D8F8000000F00F00B04210D12968614CF5
:100B2000C80741F2883A5AD06868DFF87C910328F8
:100B300008D0022820682DD0400500282CDB012099
:100B4000BDE8F08720688001F9D5E06800F0030275
:100B5000E068C0F30310401C032A19D0534A00BFB9
:100B6000B2FBF0F0E268C2F306225043E268C2F33F
:100B70004162521C5200B0FBF2F0484517D9A06800
:100B800010F0F00F0CD0880711D5A86840B10EE026
:100B9000474AE5E78003D0E700F0B6F8484506D9B4
:100BA000A06820F0F00040F08000A0608027A068DE
:100BB000696820F003000843A060FFF751FD8146FB
:100BC00006E000BFFFF74CFDA0EB090151453AD804
:100BD000A068696800F00C00B0EB810FF2D12868C2
:100BE000810714D5400703D5A06840F4E060A060F9
:100BF0002878000705D5A06820F4605040F4E06034
:100C0000A060A068A96820F0F000084304E0802FED
:100C100003D1A06820F0F000A060D8F80010404692
:100C200001F00F01B14216D9016821F00F013143E3
:100C30000160FFF715FD074607E000BFFFF710FD55
:100C4000C11B514501D903207AE7D8F8000000F014
:100C50000F00B042F2D12878400705D5A068E968B6
:100C600020F4E0600843A0602878000706D5A0685B
:100C7000296920F4605040EAC100A06000F044F807
:100C8000A1680C4AC1F30311515C01F01F01C84077
:100C90000949086009480068BDE8F047FFF7FEBC55
:100CA000002002400010024000B4C4040024F400FC
:100CB00000127A00643000080C00002000000020C0
:100CC0000548064900688968054AC1F30221515C5C
:100CD00001F01F01C84070470C00002000100240C6
:100CE000743000080548064900688968054AC1F360
:100CF000C221515C01F01F01C84070470C00002068
:100D00000010024074300008184910B58868C0F31C
:100D100081021748012A0BD08A684310C2F381026E
:100D2000022A06D08A68C2F38102032A03D0002077
:100D300010BD184610BDCA6802F00304CA68C2F3A9
:100D40000312521C032C02D0B0FBF2F001E0B3FB03
:100D5000F2F0CA68C968C2F306225043C1F3416188
:100D6000491C4900B0FBF1F010BD0000001002402A
:100D70000024F4002DE9F84304007AD02078F84DDF
:100D8000C00747D0A868E96800F00C0001F0030133
:100D90000C2802D0082817D001E0032914D060687D
:100DA000B0F5803F17D0B0F5A02F286817D020F4F9
:100DB00080302860286820F4802028606068E0B1D6
:100DC000FFF74EFC064614E02868800322D56068D1
:100DD0000028D2D01EE0286840F48030EDE740F4CF
:100DE00080202860F7E700BFFFF73AFC801B6428EB
:100DF00070D828688003F7D50CE0FFF731FC064671
:100E000005E000BFFFF72CFC801B6428F0D82868A1
:100E10008003F7D4207880074CD5A868E96800F0F3
:100E20000C0001F003010C2802D004280DD001E0D1
:100E300002290AD0E068002828682BD040F480708E
:100E40002860FFF70DFC064619E02868400502D52A
:100E5000E068002891D06868217C20F0FE4040EADC
:100E600001606860BF480068FFF718FC002800D1E7
:100E700020E072E1FFF7F4FB801B0228B8D8286855
:100E80004005F7D56868217C20F0FE4040EA01600B
:100E900068600FE020F480702860FFF7E1FB0646F1
:100EA00005E000BFFFF7DCFB801B0228A0D8286804
:100EB0004005F7D42078000729D560690028D5F8C7
:100EC000940013D040F00100C5F89400FFF7C8FB70
:100ED000064606E090E000BFFFF7C2FB801B022839
:100EE00086D8D5F894008007F6D510E020F00100F0
:100EF000C5F89400FFF7B4FB064604E0FFF7B0FB2B
:100F0000801B022878D8D5F894008007F6D4207882
:100F1000400761D5A86D0026C00008D4A86D40F038
:100F20008050A865A86D012600F0805000908E4882
:100F30000168C90511D40168804641F480710160DF
:100F4000FFF78EFB074604E0FFF78AFBC01B022871
:100F500052D8D8F80000C005F6D5A068012815D0F1
:100F60000528D5F8900016D020F00100C5F89000B3
:100F7000D5F8900020F00400C5F89000A06841F278
:100F80008838B8B1FFF76CFB07460EE0D5F8900043
:100F900040F00100F0E740F00400C5F89000F5E7EC
:100FA000FFF75EFBC11B414526D8D5F890008007AE
:100FB000F6D50CE0FFF754FB074604E0FFF750FBC3
:100FC000C11B414518D8D5F890008007F6D41EB152
:100FD000A86D20F08050A8652078800629D5A069EA
:100FE0000028D5F8980013D040F00100C5F898000B
:100FF000FFF736FB064606E075E000BFFFF730FB63
:10100000801B02286FD8D5F898008007F6D510E02D
:1010100020F00100C5F89800FFF722FB064604E027
:10102000FFF71EFB801B02285DD8D5F898008007CB
:10103000F6D4E069F0B3A968C1F3810103295DD05A
:101040000228286820F08070286003D0FFF708FB92
:1010500004464BE0FFF704FB064604E0FFF700FB05
:10106000801B02283FD828688001F7D4F4E90801E2
:101070006FF00F0202EB01110843218A5204490864
:1010800002EB4151A26841EA02210843217D4FF061
:101090007E42490802EB41610843217B40EAC1607E
:1010A000E968324A11400843E860286840F08070DF
:1010B000286000E05EE0E86840F08070E860FFF7DC
:1010C000CFFA044605E000BFFFF7CAFA001B02286A
:1010D00009D828688001F7D54CE000BFFFF7C0FAB7
:1010E000001B022802D90320BDE8F883286880018C
:1010F000F4D4E8681E490840E8603BE00128F3D0DA
:10110000E868226A00F00301914226D1616A00F08A
:10111000F0020901103991421FD1A26A00F4FE4188
:10112000B1EB022F19D194F82C2000F07841B1EBEB
:10113000C26F12D1218E00F4C00249084905A1F501
:101140000011914209D194F8341000F0C0604908B0
:101150004906A1F1007181420CD00120C4E70000D2
:101160000010024000000020007000400C809F0131
:10117000FCFFEEFE0020B7E770B5040009D0606AFE
:10118000002540B125616561A56294F85D0040B11C
:101190000CE0012070BD6068B0F5827FF4D0E5619D
:1011A000F2E784F85C50204600F05CF8022084F8F6
:1011B0005D002068016821F040010160E1684FF4A2
:1011C000E062914201D9002001E04FF48050B1F576
:1011D000706F02D0914200D0A562A188228901F4EB
:1011E000827102F404421143227C02F00202114394
:1011F000227D02F001021143228B02F4007211439E
:10120000227F02F03802114394F8202002F080027D
:101210001143228D02F40052114322681160A1692A
:10122000042202EA114194F8242000F4805002F0D4
:101230001002114394F8342002F008021143A289ED
:1012400002F4706211430143206841602068C16963
:1012500021F40061C1612566012084F85D00002051
:1012600070BD000010B586B0044614216846FFF733
:1012700009F81349206888421FD11248816D41F452
:1012800000418165816D01F400410591C16C41F01F
:101290000401C164C06C694600F0040005904FF47D
:1012A000A0500090022001900020029003200390A3
:1012B000062004900448FFF7A9F806B010BD00000E
:1012C000003C004000100240000800482DE9F84FA3
:1012D000044690F85C000026984615468A46012888
:1012E0000CD0012784F85C70FFF7BAF9814694F8B6
:1012F0005D00B346012804D00226ACE00220BDE820
:10130000F88FBAF1000F79D0002D77D0032084F840
:101310005D00C4F860B0C4F838A0A587E587C4F8BC
:1013200040B0A4F844B0A4F846B0C4F850B0C4F833
:101330004CB0A068B0F5004F09D12068016821F0D9
:10134000400101602068016841F48041016020682B
:101350000168490603D4016841F040010160E0687A
:10136000B0F5E06F606828D908B1012D1FD1A06BDE
:1013700021680088C86006E020688168890709D56F
:10138000A16B0988C160A06B801CA063E08F401E28
:10139000E0870CE0FFF764F9A0EB0901414503D3B6
:1013A000B8F1FF3F03D006E0B8F1000F03D0E08FA3
:1013B0000028E1D13BE003264BE008B1012D33D1F9
:1013C000E08F0128A06B03D921680088C8600FE076
:1013D00021680078087314E0E08725E020688168C0
:1013E000890714D5E18F0129A16B08D90988C1604B
:1013F000A06B801CA063E08F801EEDE727E00978DA
:101400000173A06B401CA063E08F401EE4E7FFF770
:1014100027F9A0EB0901414503D3B8F1FF3F03D001
:10142000C9E7B8F1000FC6D0E08F0028D6D14A46F0
:101430004146204600F07BFB08B120202066A068D2
:1014400018B92068C16880680090206E08B1012634
:1014500001E084F85D7084F85CB030464FE710B569
:10146000401EB0F1807F01D3012010BD4FF0E02479
:1014700060610F21601701F0A6FD0020A061072028
:101480002061002010BD90F88410012918D001219E
:1014900080F884102421C0F8881001680A680B685D
:1014A00023F001030B6022F0005100224266036822
:1014B00019602021C0F8881080F8842010467047F9
:1014C000022070477047704770B5044690F884005A
:1014D00001281DD0012084F884002420C4F888004D
:1014E00020680568026822F00102026020688268B4
:1014F00022F060620A438260204601F0C9FA206847
:1015000005602020C4F88800002084F8840070BDA5
:10151000022070BD70B5044690F8840001281DD0EB
:10152000012084F884002420C4F88800206805681D
:10153000026822F0010202602068826822F06042A4
:101540000A438260204601F0A3FA2068056020204B
:10155000C4F88800002084F8840070BD022070BDAB
:1015600070477047704700002DE9F041036804465A
:10157000D86919689A6840F60F0528424FF00005AF
:101580004FF002060AD187067ED501F0200702F04F
:10159000805C57EA0C0777D0616F3AE1B24FDFF811
:1015A000CCC2174001EA0C0C57EA0C0C6CD05FEA75
:1015B000C07C0CD05FEAC15C09D54FF0010CC3F8C8
:1015C00020C0D4F8903043F00103C4F89030830772
:1015D00009D5D30707D023681E62D4F8903043F0B2
:1015E0000403C4F8903043070AD5D30708D026680F
:1015F00004233362D4F8903043F00203C4F89030EF
:1016000003070CD501F020033B4308D026680823CC
:101610003362D4F8903043F00803C4F890300305E7
:101620000BD54B0109D526684FF400633362D4F81B
:10163000903043F02003C4F89030D4F89030002B61
:101640003DD0800609D501F0200002F0805108430A
:1016500003D0616F09B120468847D4F89000216813
:101660008968490602D410F0280F2AD0204601F0DC
:10167000F5FA2068806840061ED52068083050E8DA
:10168000001F21F0400100E021E040E80012002AA4
:10169000F3D1D4F8800078B175498163D4F8800023
:1016A000FEF765FE00280AD0D4F88000816B00E0C8
:1016B0002046BDE8F04108472046FFF753FFBDE84C
:1016C000F0812046FFF74EFFC4F89050F7E7D4F8BA
:1016D0006CC02027BCF1010F7ED15FEAC06C7BD5C6
:1016E0005FEAC16C78D510201862206880684006D7
:1016F00045D5D4F88010086840680004000CDED09E
:10170000B4F85C208242DAD9A4F85E000868006868
:1017100080062CD4216851E8000F20F4807041E845
:101720000002002AF6D12068083050E8001F21F09E
:10173000010140E80012002AF5D12068083050E885
:10174000001F21F0400140E80012002AF5D1C4F842
:101750008C70E566206850E8001F21F0100140E819
:101760000012002AF6D1D4F88000FEF7CBFD2667E0
:10177000B4F85C00B4F85E10401A81B230E0B4F8FE
:101780005C00B4F85E10401A81B2B4F85E00002824
:1017900095D0002993D0226852E8000F20F4907071
:1017A00042E80003002BF6D12F4BDB4320680830C2
:1017B00050E8002F1A4040E8002CBCF1000FF5D192
:1017C000C4F88C70E5666567226852E8000F20F067
:1017D000100042E8000300E006E0002BF4D1266789
:1017E0002046FFF76FFE6AE7C60209D5560207D505
:1017F0004FF4801018622046BDE8F041FFF7B1BEFB
:1018000003060AD501F0800302F40002134304D05A
:10181000A16F00297FF44CAF51E7420611D54A066B
:101820000FD52046026852E8001F21F0400142E82F
:101830000013002BF6D1C0F88870856700F098F887
:101840003DE7020206D54A0004D52046BDE8F04136
:10185000FFF786BEC001C6D50029C4DA2046BDE820
:10186000F041FFF730BE000001000010200100042D
:10187000492C000810B5040003D0D4F8880010B13A
:1018800007E0012010BD002084F88400204600F00D
:1018900027F82420C4F888002068016821F001019D
:1018A0000160A06A10B1204601F014F9204601F051
:1018B000FFF90128E6D02068416821F49041416099
:1018C0002068816821F02A0181602068016841F068
:1018D000010101602046BDE8104001F05FB9000041
:1018E00010B598B00446142111A8FEF7CBFC442192
:1018F0006846FEF7C7FC1B49206888422FD10420A8
:101900000024009003946846FEF7A8FF08B1FEF794
:10191000F7FC1548816D41F480218165816D01F4EA
:1019200080211691C16C41F00201C164C06C11A903
:1019300000F0020016904FF4406011901220CDE9A3
:1019400012040720CDE914400848FEF75FFD00228D
:1019500011462720FEF7EAFE2720FEF7D9FE18B031
:1019600010BD000000480040001002400004004884
:101970007047FEE72DE9F04786B014216846FEF770
:1019800081FC3748C16C41F00401C164C16C01F0B5
:1019900004010591C16C41F02001C164C16C01F0EA
:1019A00020010591C16C41F00201C164C16C01F0DC
:1019B00002010591C16C41F00101C164C16C01F0EB
:1019C00001010591C16C41F00801C164C06C254F53
:1019D00000F008004FF46844059000222146384684
:1019E000FEF738FE4FF400464FF090480022314693
:1019F0004046FEF72FFEDFF8709000220421484693
:101A0000FEF728FEDFF864A0002280215046FEF792
:101A100021FE0125CDE9004500240294694638469F
:101A20000394FEF7F3FC0096CDE901546946404665
:101A30000394FEF7EBFC04200090CDE901546946C5
:101A400048460394FEF7E2FC80200090CDE9015463
:101A5000694650460394FEF7D9FC06B0BDE8F0870E
:101A60000010024000080048000C00480004004834
:101A7000124810B5104901604FF482714160002195
:101A80004FF4E062C0E902120222C0E9042112020E
:101A900082610822C0E9072107234162C0E90A13D5
:101AA000C0E90C12FFF768FB002803D0BDE8104026
:101AB000FEF726BC10BD0000003C004028000020BE
:101AC000184810B5164901604FF4165141600021C5
:101AD00081600C22C160C0E904128161C1610162B0
:101AE00041628162FFF7C6FE08B1FEF709FC0021E2
:101AF0000C48FFF70FFD08B1FEF702FC0021094872
:101B0000FFF7E2FC08B1FEF7FBFB0648FFF7BBFC62
:101B1000002803D0BDE81040FEF7F2BB10BD000066
:101B2000004800408C000020FEE7FEE77047F8B553
:101B300015460E460B460092044600224FF4C05153
:101B400000F01AF888B9334600228021204600951B
:101B500000F082F848B9334600224FF4C0612046B5
:101B6000009500F009F8002804D0206E40F0200015
:101B700020660320F8BD00002DE9FE4F4FF0000A5B
:101B8000984617460E4604460C9D8DF804A0FEF7B5
:101B900067FD411BA8EB0105FEF762FD8146206849
:101BA0004FF4C06B0C3002902A480068C0EBC000B4
:101BB00000EB8000000D6843009043E05E4506D1D5
:101BC0002FB9029800788DF804009DF80400B8F150
:101BD000FF3F37D0FEF744FDA0EB0900A84203D237
:101BE00015B1009858B32BE02068416821F0E0015E
:101BF00041606068B0F5827F0BD1A068B0F5004FFE
:101C000002D0B0F5806F04D12068016821F0400156
:101C10000160A06AB0F5005F09D12068016821F475
:101C2000005101602068016841F400510160012009
:101C300084F85D0084F85CA00320BDE8FE8F0025D9
:101C4000401E0090206880683040B842B6D1002025
:101C5000F3E700000C0000202DE9F8431E469146F2
:101C600088460446089DFEF7FBFC401B351AFEF72C
:101C7000F7FC074625480068C0F3CB30684338E0DE
:101C8000701C37D0FEF7ECFCC01BA84203D215B184
:101C9000009860B32CE02068416821F0E0014160C9
:101CA0006068B0F5827F0BD1A068B0F5004F02D01C
:101CB000B0F5806F04D12068016821F04001016017
:101CC000A06AB0F5005F09D12068016821F40051D5
:101CD00001602068016841F400510160012084F82E
:101CE0005D00002084F85C000320BDE8F883002537
:101CF000401E00902068816838EA010004D000216D
:101D00004945BDD10020F0E70121F9E70C00002092
:101D10002DE9FF4F0746500014460E46C2F1010858
:101D2000C0F1000A002583B04FF001092A460421C2
:101D30003F48FEF78FFC301981B23846069A00F012
:101D400037FA301B81B23846069A00F031FA38195A
:101D500080B23146069A00F02BFA381B80B2314629
:101D6000069A58E0B8F1000F09DB0AF102000FFAF9
:101D700080FA641E08EB0A0024B20FFA80F809F119
:101D800002000FFA80F96D1C08EB09002DB20FFA62
:101D900080F87819019006EB040B1FFA8BF180B2E2
:101DA000069A00F005FA781B00901FFA8BF180B2BA
:101DB000069A00F0FDF90198A6EB040B1FFA8BF1CF
:101DC00080B2069A00F0F4F900981FFA8BF180B205
:101DD000069A00F0EDF93819019006EB050B1FFA91
:101DE0008BF180B2069A00F0E3F9381B00901FFADD
:101DF0008BF180B2069A00F0DBF90198A6EB050B97
:101E00001FFA8BF180B2069A00F0D2F900981FFAFF
:101E10008BF180B2069A00F0CBF9A542A2DB07B0A5
:101E20000122BDE8F04F04210148FEF713BC000079
:101E3000000C00482DE9FE4F14460D460746984613
:101E4000002204213F48FEF705FCC4F101000FFA0F
:101E500080F9C4EBC43040000FFA80FB281981B22E
:101E60004FF0010A0026B8B2424600F0A1F9281B43
:101E700081B2B8B2424600F09BF938190290A9B27B
:101E800080B2424600F094F9381B0190A9B280B2AA
:101E9000424600F08DF90298ABB2CDF8008082B2D4
:101EA000A9B240E0B9F1000F09DB0BF102000FFA13
:101EB00080FB641E09EB0B0024B20FFA80F90AF1D3
:101EC00002000FFA80FA761C09EB0A0036B20FFA0C
:101ED00080F9B81982B20290B81BCDE900802919A7
:101EE0008BB289B280B200F011F90198291B82B23D
:101EF00002988BB2CDF8008089B280B200F006F96A
:101F0000391BA8198AB2029183B281B23819CDE97E
:101F1000008080B200F0FAF80299A81B8AB283B25E
:101F2000CDF8008081B2019880B200F0EFF8A642AF
:101F3000B8DB03B00122BDE8F04F04210148FEF7F1
:101F400089BB0000000C00482DE9F84FDFF870A0B5
:101F500090460D4606461F46002204215046DDF8F5
:101F60002890FEF777FBF02E27D2872D25D206EB9F
:101F70000800F02803D3C6F1F0001FFA80F8E81932
:101F8000872802D3C5F1870087B20024B0440BE054
:101F9000281983B281B21FFA88F23046CDF800903A
:101FA00000F0B4F8641CE4B2BC42F1D95046BDE87C
:101FB000F84F01220421FEF74DBBBDE8F88F000069
:101FC000000C00482DE9FE4F9146884604469A468B
:101FD000002204213148FEF73DFB0027A9EB040055
:101FE000002801DCA4EB090001B2AAEB08000028DC
:101FF00001DCA8EB0A0000B226B20FFA88F54FF018
:10200000FF32A14503D34FF0010BD94601E09346BF
:10201000D946C24502D30122019200E001929246C4
:1020200081424FF0000207DB9346924601EBD172EA
:1020300054108846029026E091460022019200EB5F
:10204000D0725410804602911DE00E98DDE90C23F9
:102050000090A9B2B0B200F059F80298204404B23E
:10206000444508DBA4EB080004B206EB0B0006B203
:102070000198284405B206EB090006B205EB0A00F8
:102080007F1C05B23FB24745DFDD03B00122BDE84A
:10209000F04F04210148FEF7DDBA0000000C0048B3
:1020A0002DE9F05F9846DDF828B091460C460546CC
:1020B000F02826D2872C24D205EB09077F1EF02FAB
:1020C0001FDA04EB0806761E872E1ADADFF838A02E
:1020D000002204215046FEF7BDFAB3B2BAB221463F
:1020E000284600F0BBF94FEA490101FB08F15846C8
:1020F00000F004FC5046BDE8F05F01220421FEF729
:10210000A9BABDE8F09F0000000C00482DE9F05F7F
:102110000C460646181B1546002800DCE01AA91BD1
:10212000002900DC711B884207DD304626461D462B
:102130004FF001080446134601E04FF00008AE429C
:1021400005D930462E46054620461C460346A81BA8
:102150000FFA80F9181B002800DCE01A0FFA80FB48
:1021600009EBD97047109C4201D2012001E04FF0E9
:10217000FF30824618E000BF0A9AB8F1000F02D083
:102180003146204601E02146304600F011F8A7EB29
:102190000B0007B2002F05DA04EB0A0084B207EB4C
:1021A000090007B2761CB6B2AE42E5D9BDE8F09F91
:1021B00038B51446F02819D2872917D20B460246A3
:1021C00000F04CF9200A8DF800008DF80140084C11
:1021D000002204212046FEF73DFA0221684600F065
:1021E0008DFB012204212046FEF734FA38BD0000A1
:1021F000000C00482DE9F843164F164689468046E4
:102200001D46002204213846089CFEF723FA4B465F
:102210003246194640460094FFF778FF42462B4667
:10222000494610460094FFF771FF2B463246194687
:1022300040460094FFF76AFF32462B464946104657
:102240000094FFF763FF3846BDE8F84301220421FC
:10225000FEF700BA000C00482DE9F84F144FDDE9F5
:102260000B549346884681469A46002204213846FC
:102270000A9EFEF7EFF953465A46414648460094F7
:10228000FFF744FF2B463246514658460094FFF76D
:102290003DFF43464A46294630460094FFF736FF45
:1022A0003846BDE8F84F01220421FEF7D3B90000FB
:1022B000000C00482DE9F843054600218623EF2253
:1022C000084600F0CBF8DFF84480002204214046A5
:1022D000FEF7C0F900242E0AEFB200258DF8006049
:1022E0008DF801700221684600F008FB6D1CADB24C
:1022F000872DF3D3641CA4B2F02CEED34046BDE886
:10230000F84301220421FEF7A5B90000000C0048A3
:102310007FB5012280214648FEF79CF91920FEF77F
:1023200063F84FF400444FF09045002221462846C0
:10233000FEF790F91920FEF757F8012221462846AA
:10234000FEF788F93220FEF74FF83A2000F0B6FA8F
:10235000552000F007FBB22000F0B0FA35A1D1E91A
:102360000001CDE900010521684600F0C7FA01200F
:1023700000F0B4F8B72000F0A1FA352000F0F2FA2E
:10238000BB2000F09BFA192000F0ECFAC02000F00E
:1023900095FA2C2000F0E6FAC22000F08FFA012016
:1023A00000F0E0FAC32000F089FA122000F0DAFA17
:1023B000C42000F083FA202000F0D4FAC62000F0F8
:1023C0007DFA0F2000F0CEFAD02000F077FAA4209A
:1023D00000F0C8FAA12000F0C5FAE02000F06EFA83
:1023E00016A00FC88DE80F000E21684600F086FA8F
:1023F000E12000F063FA15A10FC98DE80F000E214E
:10240000684600F07BFA212000F058FA112000F015
:1024100055FA132000F052FA292000F04FFA32202A
:10242000FDF7E2FF04B00020BDE87040FFF742BFB7
:10243000000400480C0C003333000000D0040D11E0
:10244000132B3F544C180D0B1F230000D0040C110C
:10245000132C3F44512F1F1F202300002DE9F84368
:10246000DFF8748015460E4607461C4600220421FC
:102470004046FEF7EFF82A20343428353436283722
:1024800000F01CFA380A8DF800008DF80170280A57
:102490008DF802008DF803500421684600F02EFAF2
:1024A0002B2000F00BFA300A8DF800008DF8016047
:1024B000200A8DF802008DF803400421684600F0E0
:1024C0001DFA2C2000F0FAF94046BDE8F84301223D
:1024D0000421FEF7BFB80000000C004810B5044608
:1024E000362000F0EBF954B1012C0AD0022C0AD0AE
:1024F000032C0AD16020BDE8104000F033BAC020A0
:10250000F9E7A020F7E70020F5E710BD2DE9FE4F21
:102510004FF6FF752846FFF7CDFE4FF47A7B5846FD
:10252000FDF762FF4FF47848994CCDE9018560686A
:10253000009098A214210A20236800F033FA58462C
:10254000FDF752FF6810FFF7B5FE4FF4FA773846F3
:10255000FDF74AFF4046FFF7ADFE3846FDF744FF62
:102560001F20FFF7A7FE3846FDF73EFF4FF4FC6043
:10257000FFF7A0FE3846FDF737FF4FF6E07630460E
:10258000FFF798FE3846FDF72FFF4BF64040FFF768
:1025900091FE3846FDF728FF40F2CF10FFF78AFE84
:1025A0003846FDF721FF4FF61F094846FFF782FE28
:1025B0003846FDF719FF48F21F40FFF77BFE38460B
:1025C000FDF712FF4CF21860FFF774FE3846FDF776
:1025D0000BFF42F61230FFF76DFE3846FDF704FFA1
:1025E0002846FFF767FE3846FDF7FEFE68116C4F80
:1025F000CDE90105786800900A216AA208463B6887
:1026000000F0D0F96A48CDE901854168009103687E
:1026100068A232210A2000F0C5F9CDE901656068A1
:10262000009064A24B210A20236800F0BBF9CDE999
:102630000195786800905FA264210A203B6800F051
:10264000B1F95846FDF7D0FE4046FFF733FE0027AC
:10265000CDE90167606800900A215AA20846236804
:1026600000F0A0F964231E211A4608460095FFF7E2
:10267000C1FD5846FDF7B8FE4046FFF71BFECDE909
:102680000167606800900A2151A20846236800F0A3
:1026900089F932231E211A4608460095FFF754FC9B
:1026A0005846FDF7A1FE4046FFF704FECDE901675D
:1026B000606800900A214AA20846236800F072F977
:1026C0003C212B4619220846FFF722FB5846FDF70E
:1026D0008BFE4046FFF7EEFDCDE901676068009094
:1026E0000A2141A20846236800F05CF93C212B46F0
:1026F00019220846FFF79EFB5846FDF775FE404637
:10270000FFF7D8FDCDE90167606800900A2139A282
:102710000846236800F046F94FF03C0A4FF02809BC
:10272000CDF800A01E22CDE90195462311461046A2
:10273000FFF792FD5846FDF757FE4046FFF7BAFDFA
:10274000CDE90167606800900A212DA20846236840
:1027500000F028F9CDF800A01E22CDE9019546230E
:1027600011461046FFF72EFC5846FDF73DFE284661
:10277000FFF7A0FD25488023002100901A46084657
:10278000FFF78EFCBDE8FE4F40F6B830FDF72CBEDB
:102790001800002053706565642054657374000050
:1027A00020000020466F6E7420746573742E000044
:1027B0001000002048656C6C6F20537465766521AD
:1027C00000000000526563742E2F4C696E652E0068
:1027D00046696C6C656420526563742E00000000CD
:1027E000436972636C652E0046696C6C65642043B6
:1027F00069722E00547269616E676C65000000009A
:1028000046696C6C65642054726900009058000839
:102810000FB42DE9FF5F0C46DDE913A905461F46FD
:10282000002204212448FDF715FFC7F30726601E88
:10283000304483B2FFB2681E384482B22146284633
:10284000FFF70CFE00252BE01098203810FB0650F7
:102850001299002409F0FF0B31F810804FEA1A207A
:1028600002900AF0FF0001904FEA1920009014E056
:1028700008FA04F0000406D502988DF80C000198BF
:102880008DF80D0004E000988DF80C008DF80DB067
:10289000022103A800F032F8641CA742E8D86D1C9E
:1028A000AE42D1D804B00122BDE8F01F0421024895
:1028B0005DF814EBFDF7CEBE000C004831B50C4CB2
:1028C000002204212046FDF7C5FE00224FF40061DE
:1028D0000848FDF7BFFE4FF0FF3301226946064866
:1028E000FEF7F4FC012204212046FDF7B3FE38BDBB
:1028F000000C004800080048280000202DE9F0479F
:10290000DFF854900C460646002204214846FDF7A5
:10291000A1FE0122D1021148FDF79CFE4FF4803741
:102920004FF6FF784FF0FF3A0DE0BC4201D340462E
:1029300000E0204685B253462A4631460848FEF755
:10294000C5FC2E44641B002CEFD14846BDE8F0477F
:1029500001220421FDF77EBE000C0048000800485B
:102960002800002031B50C4C002204212046FDF740
:1029700071FE0122D1020948FDF76CFE4FF0FF33D2
:10298000012269460648FEF7A1FC012204212046E7
:10299000FDF760FE38BD0000000C0048000800484C
:1029A000280000202DE9FE4FDFF86490DDE90DBA24
:1029B00014460E4605469846002204214846FDF777
:1029C00049FE08F0FF0718E07819F02809D3C8F38A
:1029D000072081198EB200253044872810D2202A82
:1029E0000AD0CDE901BA0C980090434631462846FA
:1029F000FFF70EFF781985B2641C2278002AE3D114
:102A000003B04846BDE8F04F01220421FDF722BE85
:102A1000000C00487047FDF729BE10B594B038216E
:102A20006846FDF72FFC14210EA8FDF72BFC0020B3
:102A3000FDF7AEFE01200090000401900220032467
:102A4000CDE907045521CDE909010B900C900D90BB
:102A50006846FEF78FF908B172B6FEE70F20CDE9A0
:102A60000E04002010901190129004210EA8FEF781
:102A700039F8002801D072B6FEE714B010BD00008E
:102A80000248016841F470010160704788ED00E080
:102A900030B5416EB9B1026891689268C1F3426184
:102AA0000B4B520F9C5CE50003F10804A25CB5FBE4
:102AB000F2F2A0F86A205A5C615CD200B2FBF1F13C
:102AC000A0F8681030BD0121A0F86A10F8E70000F6
:102AD0005430000890F82810090706D501684A68A4
:102AE000836B22F400421A434A6090F82810C90709
:102AF00006D001684A68C36A22F400321A434A6069
:102B000090F82810890706D501684A68036B22F4FB
:102B100080321A434A6090F82810490706D50168A8
:102B20004A68436B22F480221A434A6090F82810C6
:102B3000C90606D501688A68C36B22F480521A431D
:102B40008A6090F82810890606D501688A68036CA7
:102B500022F400521A438A6090F82810490611D5D1
:102B600001684A68436C22F480121A434A60416C3F
:102B7000B1F5801F06D101684A68836C22F4C00257
:102B80001A434A6090F82810090606D501684A6879
:102B9000C06C22F4002202434A6070472DE9F843DA
:102BA00000260446C0F89060FDF75AFD8046206874
:102BB00000684FF0200500076FF07E4713D54346AD
:102BC000002229042046009700F0ACF958B1216892
:102BD00051E8000F20F0800041E80002002AF6D101
:102BE000C4F8885021E020680068400722D5434699
:102BF00000224FF480012046009700F093F9C8B1FD
:102C0000216851E8000F20F4907041E80002002A8A
:102C1000F6D12068083050E8001F21F0010140E89B
:102C20000012002AF5D1C4F88C5084F88460032087
:102C3000BDE8F883C4F88850C4F88C5044F86C6F31
:102C4000666026760020F3E710B5806A0021A0F8C0
:102C50005E10A0F85610FEF785FC10BD10B5026896
:102C600052E8001F21F4907142E80013002BF6D1C6
:102C70000E4B0268083252E8001F194042E8001467
:102C8000002CF6D1C16E012908D1016851E8002F4E
:102C900022F0100241E80023002BF6D12021C0F8D9
:102CA0008C100021C166416710BD0000FEFFFFEFE0
:102CB0002DE9F0410446016880682269E369104308
:102CC000626900251A431043DFF82CC20A688B4B57
:102CD0001A4002430A6020684168E26821F44051CA
:102CE000114341602168A069614501D0226A104307
:102CF0008A68834B1A4002438A602068C16A626A0C
:102D000021F00F011143C1627E4923687E488B4246
:102D10000DD1D0F8880010F0030006D0012855D05E
:102D2000022842D003283FD152E001203DE07749FC
:102D30008B420BD1D0F8880010F00C0035D004285D
:102D400033D0082840D00C282ED141E070498B4266
:102D50000BD1D0F8880010F0300026D0102835D0E4
:102D6000202831D030281FD132E06A498B420BD164
:102D7000D0F8880010F0C00017D0402826D0802856
:102D800022D0C02810D123E063450DD1D0F88800AF
:102D900010F4406009D0B0F5806F17D0B0F5006F27
:102DA00012D0B0F5406F13D010205B495B4F002666
:102DB0004FF4004263453BD160B1022813D0042890
:102DC0000BD0082872D10DE00220EEE70420ECE7DA
:102DD0000820EAE7FDF774FF01E0FDF795FF010029
:102DE00001D17CE01146606A37F810206768B1FBBA
:102DF000F2F007EB4703834270D8B0EB073F6DD882
:102E0000002308461946FDF705FA090241EA106158
:102E100002027808101871413A460023FDF7FAF9CA
:102E20003F4AA0F54071914258D82168C86056E0E9
:102E3000E3694FF6EF7893422CD109284ED2DFE8B0
:102E400000F00508114D0D4D4D4D1000FDF738FFF8
:102E500001E0FDF747FF010004D140E0FDF754FF1A
:102E6000F9E71146606A37F81000B1FBF0F0410055
:102E7000606801EB5001B1FBF0F0A0F11001414599
:102E80002CD84FF6F0710140C0F342000143206896
:102E9000C16024E0092821D2DFE800F005091220F2
:102EA0000E2020201100FDF70BFF02E016E0FDF7D9
:102EB00019FF010004D112E0FDF726FFF9E71146E2
:102EC000606A37F81000B1FBF0F1606801EB500167
:102ED000B1FBF0F0A0F1100141450AD90125012014
:102EE000A4F86A0024F8680F2846E6602661BDE869
:102EF000F08180B299E7000000800040F369FFCFC5
:102F0000FFF4FF110038014000100240004400406F
:102F100000480040004C00400024F4003C30000811
:102F2000FFFC0F002DE9F047994617460D46044671
:102F30004FF00008089E33E0701C31D0FDF790FB85
:102F4000A0EB0900B04218D8BEB12068016849075B
:102F500026D5802D24D0402D22D0C169C943090730
:102F60000DD4082505622046FFF778FEC4F890507E
:102F700084F884800120BDE8F0870320FBE7C06966
:102F8000C04300050CD421684FF40060086220465D
:102F9000FFF764FE2020C4F8900084F88480ECE7FA
:102FA0002068C06935EA000004D00020B842C3D0D0
:102FB0000020E0E70120F9E70148FEF7D5BA00005C
:102FC0008C000020FEE70907090E002804DB00F151
:102FD000E02080F80014704700F00F0000F1E020BE
:102FE00080F8141D704702E008C8121F08C1002AAB
:102FF000FAD170477047002001E001C1121F002A7A
:10300000FBD17047FDF73AFBFFF707FDFEF7B2FC77
:10301000FEF72EFDFEF754FD074C0122510320461A
:10302000FDF718FBFFF774F9FFF770FA012291031F
:103030002046FDF70FFBFEE70008004801000200F4
:103040000400060008000A000C00100020004000E8
:1030500080000001010101030701000008040204CF
:10306000080101010000000000000000010203044B
:103070000607080900000000010203040000000028
:103080000000000000000000000000000000000040
:1030900000100010001000100010001000000010C0
:1030A00000000000002800280028000000000000A8
:1030B000000000000000000000240024007C002428
:1030C0000048007C00480048000000000038005420
:1030D0000050003800140054005400380010000064
:1030E000002000540058003000280054001400084C
:1030F00000000000001000280028001000340048E4
:103100000048003400000000001000100010000013
:103110000000000000000000000000000008001097
:1031200000200020002000200020002000100008C7
:10313000002000100008000800080008000800082F
:1031400000100020001000380010002800000000CF
:10315000000000000000000000000000001000104F
:10316000007C0010001000000000000000000000C3
:10317000000000000000000000000010001000101F
:103180000000000000000000000000380000000007
:10319000000000000000000000000000000000002F
:1031A00000000010000000000008000800100010DF
:1031B0000010001000200020000000000038004433
:1031C0000044005400440044004400380000000063
:1031D000001000300050001000100010001000100F
:1031E0000000000000380044004400040008001003
:1031F0000020007C0000000000380044000400189B
:10320000000400040044003800000000000800181A
:10321000002800280048007C00080008000000008A
:10322000007C0040004000780004000400440038A6
:1032300000000000003800440040007800440044D2
:103240000044003800000000007C0004000800106A
:103250000010002000200020000000000038004482
:1032600000440038004400440044003800000000DE
:103270000038004400440044003C0004004400388E
:10328000000000000000000000100000000000002E
:10329000000000100000000000000000000000100E
:1032A00000000000000000100010001000000000EE
:1032B000000C003000400030000C00000000000056
:1032C000000000000000007C0000007C0000000006
:1032D000000000000000000000600018000400185A
:1032E00000600000000000000038004400040008F6
:1032F0000010001000000010000000000038004422
:10330000004C0054005C0040004000380000000009
:1033100000100028002800280028007C00440044F9
:10332000000000000078004400440078004400449D
:1033300000440078000000000038004400400040D5
:1033400000400040004400380000000000700048C9
:1033500000440044004400440048007000000000A5
:10336000007C00400040007C004000400040007CA9
:1033700000000000007C0040004000780040004059
:1033800000400040000000000038004400400040C1
:10339000005C004400440038000000000044004489
:1033A0000044007C0044004400440044000000004D
:1033B000003800100010001000100010001000383D
:1033C00000000000000400040004000400040004E5
:1033D0000044003800000000004400480050006035
:1033E0000050004800480044000000000040004039
:1033F00000400040004000400040007C0000000011
:103400000044006C006C005400440044004400443C
:103410000000000000440064006400540054004CAC
:10342000004C004400000000003800440044004408
:1034300000440044004400380000000000780044CC
:1034400000440044007800400040004000000000BC
:103450000038004400440044004400440054003854
:103460000004000000780044004400440078004854
:1034700000480044000000000038004400400030D4
:10348000000800040044003800000000007C001028
:1034900000100010001000100010001000000000CC
:1034A0000044004400440044004400440044003808
:1034B00000000000004400440044002800280028C8
:1034C00000100010000000000044004400540054AC
:1034D0000054006C00280028000000000044002870
:1034E0000028001000100028002800440000000000
:1034F00000440044002800280010001000100010B4
:1035000000000000007C00040008001000100020F3
:103510000040007C000000000018001000100010A7
:1035200000100010001000100010001800200020F3
:10353000001000100010001000080008000000003B
:1035400000300010001000100010001000100010DB
:103550000010003000100028002800440000000087
:10356000000000000000000000000000000000005B
:103570000000000000000000000000FE002000101D
:10358000000000000000000000000000000000003B
:103590000000000000380044003C0044004C0034AF
:1035A0000000000000400040005800640044004457
:1035B00000640058000000000000000000380044D3
:1035C00000400040004400380000000000040004F7
:1035D0000034004C00440044004C00340000000063
:1035E0000000000000380044007C00400044003827
:1035F00000000000000C0010007C00100010001003
:103600000010001000000000000000000034004C1A
:1036100000440044004C00340004007800400040A6
:1036200000580064004400440044004400000000CE
:1036300000100000007000100010001000100010BA
:1036400000000000001000000070001000100010CA
:1036500000100010001000E0004000400048005042
:10366000006000500048004400000000007000109E
:1036700000100010001000100010001000000000EA
:10368000000000000078005400540054005400541E
:1036900000000000000000000058006400440044E6
:1036A0000044004400000000000000000038004416
:1036B0000044004400440038000000000000000006
:1036C000005800640044004400640058004000407A
:1036D000000000000034004C00440044004C003462
:1036E0000004000400000000005800640040004096
:1036F00000400040000000000000000000380044CE
:1037000000300008004400380000000000200020C5
:103710000078002000200020002000180000000099
:10372000000000000044004400440044004C003409
:1037300000000000000000000044004400280028B1
:103740000028001000000000000000000054005499
:103750000054006C00280028000000000000000059
:103760000044002800100010002800440000000061
:103770000000000000440044002800280010001051
:103780000010006000000000007C00080010002015
:103790000040007C00000000001800100010001025
:1037A0000020002000100010001000180010001071
:1037B0000010001000100010001000100010001089
:1037C0000030001000100010000800080010001069
:1037D000001000300000000000000074004C0000E9
:1037E00000000000000000000000000000000000D9
:1037F00000000000000000000000000000000000C9
:103800000000000000000000000000000000000CAC
:10381000000C000C000C000C000C000C000C000C48
:10382000000C000C0000000C000C00000000000068
:103830000000001B001B001B001B001B0000000001
:103840000000000000000000000000000000000078
:103850000000000000008019801980198019C07FC5
:10386000C07F80190033C07FC07F00330033003336
:1038700000330000000000000000001E003F8075C3
:1038800080650074003C001E00078005806580652F
:103890008075003F001E000400040000000000705E
:1038A00000D840D8C0D880D900730006000C801B17
:1038B000C036C066C046C00680030000000000009D
:1038C0000000001E003F003300330033001E000CD8
:1038D000C03CC066806380618063C03E801C000085
:1038E000000000000000000C000C000C000C000C9C
:1038F00000000000000000000000000000000000C8
:10390000000000000000000080000001000300062D
:1039100000060004000C000C000C000C000C000C55
:1039200000040006000600030001800000200010D3
:103930000018000C000C000400060006000600063B
:10394000000600060004000C000C00180010002007
:103950000000000C002D003F001E0033000000009E
:103960000000000000000000000000000000000057
:1039700000000000000000000000000C000C000C23
:10398000000CC0FFC0FF000C000C000C000C00007D
:103990000000000000000000000000000000000027
:1039A0000000000000000000000000000000000017
:1039B0000000000C000C00040004000800000000DF
:1039C0000000000000000000000000000000001ED9
:1039D000001E0000000000000000000000000000C9
:1039E00000000000000000000000000000000000D7
:1039F00000000000000000000000000C000C0000AF
:103A000000000000000000030003000300060006A1
:103A100000060006000C000C000C000C001800183A
:103A200000180000000000000000001E003F0033EE
:103A3000806180618061806D806D80618061806166
:103A40000033003F001E00000000000000000006E0
:103A5000000E001E003600260006000600060006C6
:103A60000006000600060006000600000000000038
:103A70000000001E003F80738061806180010003B0
:103A80000006000C001800300060807F807F00007E
:103A9000000000000000001C003E00630063000303
:103AA000000E000E00038001800180618073003FE2
:103AB000001E00000000000000000006000E000EC6
:103AC000001E001E0016003600360066807F807FD4
:103AD0000006000600060000000000000000007F55
:103AE000007F006000600060006E007F80638001E6
:103AF000800180618073003F001E00000000000014
:103B00000000001E003F803380610060006E007F77
:103B100080738061806180618033003F001E0000FF
:103B2000000000000000807F807F80010003000310
:103B300000060006000C000C000C0008001800181D
:103B400000180000000000000000001E003F80631D
:103B5000806180610021001E003F80618061806182
:103B60008061003F001E0000000000000000001EF9
:103B7000003F00738061806180618073803F801DA1
:103B8000800180610073003F001E00000000000003
:103B900000000000000000000000000C000C00000D
:103BA00000000000000000000000000C000C0000FD
:103BB0000000000000000000000000000000000005
:103BC000000C000C00000000000000000000000CD1
:103BD000000C0004000400080000000000000000C9
:103BE00080008003000E003800600038000E800363
:103BF0008000000000000000000000000000000045
:103C0000000000000000807F807F00000000807FB7
:103C1000807F0000000000000000000000000000A5
:103C2000000000000000000000400070001C0007C1
:103C300080010007001C0070004000000000000030
:103C4000000000000000001F803FC071C060C00085
:103C5000C00180030007000E000C000C0000000CE7
:103C6000000C0000000000000000001E003F80313A
:103C700080718063806F806D806D806F8067006071
:103C80000032003E001C0000000000000000000E9A
:103C9000000E001B001B001B001B80318031803F89
:103CA000803F8031C060C060C06000000000000044
:103CB0000000007C007E0063006300630063007E00
:103CC000007E0063806180618063007F007E000071
:103CD000000000000000001E003F80318061006095
:103CE0000060006000600060006080618031003F23
:103CF000001E0000000000000000007C007F006348
:103D00008063806180618061806180618061006327
:103D10000063007E007C0000000000000000807F47
:103D2000807F0060006000600060007F007F0060B6
:103D3000006000600060807F807F00000000000065
:103D40000000807F807F0060006000600060007F76
:103D5000007F0060006000600060006000600000A4
:103D6000000000000000001E003F80318061006004
:103D70000060006080638063806180618031803F8B
:103D8000001E000000000000000080618061806172
:103D9000806180618061807F807F806180618061DF
:103DA0008061806180610000000000000000003F31
:103DB000003F000C000C000C000C000C000C000C70
:103DC000000C000C000C003F003F00000000000051
:103DD000000080018001800180018001800180015C
:103DE00080018001806180618073003F001E0000BF
:103DF000000000000000C060806100630066006693
:103E0000006C0078007C0066006600638061806161
:103E1000C060000000000000000000600060006062
:103E20000060006000600060006000600060006092
:103E30000060807F807F0000000000000000C071F3
:103E4000C071C07BC07AC06AC06AC06EC064C06006
:103E5000C060C060C060C060C060000000000000C2
:103E6000000080718071807980798079806D806DAB
:103E7000806D8065806780678067806380630000F5
:103E8000000000000000001E003F003380618061E0
:103E90008061806180618061806180610033003F6A
:103EA000001E0000000000000000007E007F806314
:103EB0008061806180618063007F007E00600060BF
:103EC0000060006000600000000000000000001EB4
:103ED000003F00338061806180618061806180612A
:103EE000806580670033803F401E000000000000B6
:103EF0000000007E007F8063806180618063007FBE
:103F0000007E00660063006380618061C060000025
:103F1000000000000000000E001F803180310030E2
:103F20000038001E00078003806180618031003FFF
:103F3000001E0000000000000000C0FFC0FF000CD9
:103F4000000C000C000C000C000C000C000C000C11
:103F5000000C000C000C000000000000000080615C
:103F60008061806180618061806180618061806149
:103F7000806180618073003F001E0000000000002F
:103F80000000C060C060C060803180318031001BA3
:103F9000001B001B001B000E000E000E00040000A2
:103FA000000000000000C0C0C0C0C0C0C0C0C0C091
:103FB000C0CC804C804C805E805280528073806187
:103FC00080610000000000000000C0C080608061CF
:103FD0000033003B001E000C000C001E001F003BC5
:103FE00080718061C0C00000000000000000C0C0FF
:103FF0008061806100330033001E001E000C000C45
:10400000000C000C000C000C000C00000000000074
:104010000000803F803F8001000300030006000C89
:10402000000C0018001800300060807F807F0000C6
:1040300000000000000F000F000C000C000C000C32
:10404000000C000C000C000C000C000C000C000C10
:10405000000C000C000F000F0000001800180018E2
:10406000000C000C000C000C000600060006000608
:10407000000300030003000000000000001E001EFB
:104080000006000600060006000600060006000600
:10409000000600060006000600060006001E001EC0
:1040A0000000000C000C001E001200330033806181
:1040B000806100000000000000000000000000001F
:1040C00000000000000000000000000000000000F0
:1040D00000000000000000000000000000000000E0
:1040E00000000000E0FF0000000000380018000C95
:1040F00000000000000000000000000000000000C0
:1041000000000000000000000000000000000000AF
:10411000000000000000001F803F80618001801FC0
:10412000803F80618063807FC03800000000000015
:1041300000000060006000600060006E007F80731F
:1041400080618061806180618073007F006E00000B
:104150000000000000000000000000000000001E41
:10416000003F807380610060006080618073003F69
:10417000001E00000000000000008001800180019E
:104180008001801D803F80738061806180618061DB
:104190008073803F801D00000000000000000000D0
:1041A000000000000000001E003F00738061807F5F
:1041B000807F00608071003F001E00000000000052
:1041C0000000C007C00F000C000C807F807F000C37
:1041D000000C000C000C000C000C000C000C00008B
:1041E000000000000000000000000000801D803F73
:1041F000807380618061806180618073803F801DF9
:1042000080018063007F003E00000060006000606D
:104210000060006F807F807180618061806180615B
:1042200080618061806100000000000000000006E5
:10423000000600000000003E003E000600060006EA
:104240000006000600060006000600000000000050
:104250000006000600000000003E003E00060006CA
:1042600000060006000600060006000600060046DE
:10427000007E003C00000060006000600060806123
:1042800000630066006C007C007600630063806160
:10429000C0600000000000000000003E003E00067C
:1042A00000060006000600060006000600060006DE
:1042B00000060006000600000000000000000000EC
:1042C00000000000000080DDC0FFC0CEC0CCC0CC2C
:1042D000C0CCC0CCC0CCC0CCC0CC00000000000022
:1042E00000000000000000000000006F807F80716F
:1042F0008061806180618061806180618061000097
:104300000000000000000000000000000000001E8F
:10431000003F807380618061806180618073003FB5
:10432000001E00000000000000000000000000006F
:10433000006E007F80738061806180618061807326
:10434000007F006E00600060006000600000000000
:1043500000000000801D803F80738061806180616B
:1043600080618073803F801D800180018001800119
:10437000000000000000000000000067803F0039DE
:1043800000300030003000300030003000300000DD
:104390000000000000000000000000000000001EFF
:1043A000803F80610060007F803F80018061007FEE
:1043B000001E0000000000000000000000080018BF
:1043C0000018007F007F001800180018001800185F
:1043D0000018801F800F0000000000000000000097
:1043E0000000000000008061806180618061806168
:1043F000806180618063807F803D0000000000005C
:1044000000000000000000000000C060803180312A
:104410008031001B001B001B000E000E0006000078
:10442000000000000000000000000000000080DD2F
:1044300080DD80DD005500550055007700770022B3
:10444000002200000000000000000000000000004A
:104450000000806100330033001E000C000C001EC1
:104460000033003380610000000000000000000005
:104470000000000080618061803100330033001B48
:10448000001B001B000E000E000E001C007C0070C4
:1044900000000000000000000000C07FC07F80011D
:1044A00000030006000C00180030C07FC07F000031
:1044B00000000000800380070006000600060006DA
:1044C0000006000E001C001C000E00060006000680
:1044D00000060006800780030006000600060006AE
:1044E000000600060006000600060006000600069C
:1044F0000006000600060006000600060038003C24
:10450000000C000C000C000C000C000E0007000753
:10451000000E000C000C000C000C000C003C0038DD
:1045200000000000000000000000000000008038D3
:10453000807F004700000000000000000000000035
:10454000000000000000000000000000000000006B
:10455000000000000000000000000000000000005B
:10456000000000000000000000000000000000004B
:104570000000000000000000E003E003E003E003AF
:10458000E003E003E003E003C003C003C001C00197
:10459000C001C001C001000000000000E003E00312
:1045A000E003000000000000000000003C1E3C1E74
:1045B0003C1E3C1E3C1E3C1E3C1E00000000000039
:1045C00000000000000000000000000000000000EB
:1045D00000000000000000000000000000000000DB
:1045E000CE01CE03DE039E039C039C07FF3FFF7FAB
:1045F0003807380F780F780F780EFFFFFFFFF01E97
:10460000F01CE01CE03CE03DE03900000000000050
:1046100000000000FC03FE0FEE1FE01EE01EE01E87
:10462000E01EE01FE00FE007F003FC01FE01FE01C9
:10463000FE01FE01FE01FE01FE3DFC3FF00FE00128
:10464000E001000000000000033E07F78FE78EE75F
:104650009EE3BCE3B8E7F8E7F0F7E03FC001FF03F3
:10466000FF07F307F30FF31EF33CF338F3787FF003
:104670003FE000000000000000000000E007F80F2D
:10468000780F781F781F781F780FF00FE00F801FCA
:10469000C37FC3FBE7F3F7F1F7F0FFF07FF03EF8DD
:1046A0007F7CFF3FEF1F00000000000000000000C3
:1046B000E003E003E003E003E003C003C001000007
:1046C00000000000000000000000000000000000EA
:1046D00000000000000000000000000000000000DA
:1046E000000000003F007C00F001E001C003C007B3
:1046F00080078007800F000F000F000F000F000FD2
:10470000000F800F80078007C007C003E001F001A1
:104710007C003F000F000000007E001FC007C003A8
:10472000E001F001F000F000F80078007800780077
:10473000780078007800F800F000F000F001E00167
:10474000C003C007001F007E00780000E003C00324
:10475000C001CE39FF3F7F3F20037003F807780F79
:104760003C1F3806000000000000000000000000B0
:104770000000000000000000000000000000000039
:10478000000000000000000000000000C001C001A7
:10479000C001C001C001C001C001FFFFFFFFC00197
:1047A000C001C001C001C001C00100000000000044
:1047B00000000000000000000000000000000000F9
:1047C00000000000000000000000000000000000E9
:1047D000000000000000E003E003E003E003E0016C
:1047E000E001E001C00180030000000000000000C3
:1047F0000000000000000000000000000000FE3F7C
:10480000FE3F00000000000000000000000000006B
:104810000000000000000000000000000000000098
:104820000000000000000000000000000000000088
:104830000000000000000000000000000000E00395
:10484000E003E003E00300000000000000000000BF
:104850000F000F001E001E003C003C007800780096
:10486000F000F000E001E001C003C0038007800712
:10487000000F000F001E001E003C003C0078007876
:1048800000F00000F007F80F7C1F3E3E1E3C1F7C2E
:104890001F7C0F780F780F780F780F780F780F78CC
:1048A0001F7C1F7C1E3C3E3E7C1FF80FF007000063
:1048B0000000000000000000F000F007F03FF03FB3
:1048C000F001F001F001F001F001F001F001F00160
:1048D000F001F001F001F001F001F001F001FF3F03
:1048E000FF3F00000000000000000000E00FF83F64
:1048F0007C3C3C003E003E003E003C003C007C0016
:10490000F800F001E003C0078007000F001E003E22
:10491000003CFE3FFE3F00000000000000000000E1
:10492000F00FF81F7C1C3E003E003E003C003C00A7
:10493000F800F00FF80F7C003E001E001E001E0065
:104940001E003E007C1CF81FE01F0000000000005D
:10495000000000007800F800F800F801F803F807FC
:10496000F807780F781E781E783C78787878FFFF03
:10497000FFFF780078007800780078007800000069
:104980000000000000000000FC1FFC1FFC1F001EB8
:10499000001E001E001E001EE01FF81FFC007C0011
:1049A0003E003E001E003E003E003C007C1CF81F06
:1049B000E01F00000000000000000000FC01FE07F6
:1049C0008E0F001F001E003E003C003CF83DFC3FE7
:1049D0003E7F1F7E0F3C0F3C0F3C0F3C0F3E1F1EC7
:1049E0003E1FFC0FF003000000000000000000006C
:1049F000FF3FFF3FFF3F0F001E001E003C0038003E
:104A00007800F000F000E001E001C003C00380077F
:104A1000800F800F000F001F001F0000000000002B
:104A200000000000F807FC0F3E1F1E1E1E3E1E3E2B
:104A30001E1E3C1FF80FF007F80FFC1E3E3E1F3CE9
:104A40001F7C0F7C0F7C1F3C3E3FFC1FF0070000CB
:104A50000000000000000000F007F80F7C1E3E3C44
:104A60001E3C1F7C1F7C1F7C1F7C1F3C3F3EFF1F8A
:104A7000EF071F001E001E003E003C00F838F03F0C
:104A8000E01F000000000000000000000000000027
:104A90000000000000000000E003E003E003E0038A
:104AA0000000000000000000000000000000E00323
:104AB000E003E003E003000000000000000000004D
:104AC000000000000000000000000000E003E00320
:104AD000E003E00300000000000000000000000010
:104AE0000000E003E003E003E003E001E001E00197
:104AF000C003800300000000000000000000000070
:104B000003000F003F00FC00F003C00F003F00FE59
:104B1000003FC00FF003FC003F000F000300000047
:104B20000000000000000000000000000000000085
:104B3000000000000000000000000000FFFFFFFF79
:104B4000000000000000FFFFFFFF00000000000069
:104B50000000000000000000000000000000000055
:104B6000000000000000000000E000F8007E801F50
:104B7000E007F8017E001F007E00F801E007801FBB
:104B8000007E00F800E000000000000000000000CF
:104B9000F01FFC3F3E381F381F381E001E003C002F
:104BA0007800F000E001C003C003C007C0070000A8
:104BB00000000000C007C007C007000000000000A0
:104BC00000000000F803FE0F1E1F0F3E7F3CFF7821
:104BD000EF79C773C7F38FF38FF38FF39FF39FF3CF
:104BE000FF73FF7BF779003C1C1FFC0FF8030000EC
:104BF0000000000000000000000000000000E003D2
:104C0000E003F007F007F007780F780F7C0E3C1EEA
:104C10003C1E3E3CFE3FFF3F1F780F780FF007F031
:104C200007F000000000000000000000000000008D
:104C30000000F83FFC3F3E3C1E3C1E3C1E3C3E3C00
:104C40007C3CF03FF83F7E3C1F3C1F3C0F3C0F3C40
:104C50001F3CFE3FF83F0000000000000000000085
:104C6000000000000000FF01FF07871F003E003C1E
:104C7000007C00780078007800780078007C007C68
:104C8000003E003F831FFF07FF01000000000000FF
:104C900000000000000000000000F07FFC7F7E7834
:104CA0001F781F780F780F780F780F780F780F78AC
:104CB0000F780F781F781E787E78F87FE07F0000ED
:104CC0000000000000000000000000000000FF3FA6
:104CD000FF3F003E003E003E003E003E003EFE3FE5
:104CE000FE3F003E003E003E003E003E003EFF3FD5
:104CF000FF3F000000000000000000000000000076
:104D00000000FF1FFF1F001E001E001E001E001ED1
:104D1000001EFF1FFF1F001E001E001E001E001EA3
:104D2000001E001E001E0000000000000000000029
:104D3000000000000000FE03FF0F871F003E007C04
:104D4000007C007800F800F87FF87FF80F780F7C7F
:104D50000F7C0F3E8F1FFF0FFE03000000000000BE
:104D6000000000000000000000001F7C1F7C1F7C72
:104D70001F7C1F7C1F7C1F7C1F7CFF7FFF7F1F7C95
:104D80001F7C1F7C1F7C1F7C1F7C1F7C1F7C0000E6
:104D90000000000000000000000000000000FF3FD5
:104DA000FF3FE003E003E003E003E003E003E00390
:104DB000E003E003E003E003E003E003E003FF3F80
:104DC000FF3F0000000000000000000000000000A5
:104DD0000000FC1FFC1F7C007C007C007C007C0031
:104DE0007C007C007C007C007C007C0078007800EB
:104DF000F838F03FC03F0000000000000000000055
:104E00000000000000001F3C1E3C3C3C783CF03C95
:104E1000E03DE03FC03F803FC03FE03FF03DF03C21
:104E2000783C7C3C3E3C1F3C0F3C000000000000F6
:104E300000000000000000000000003E003E003EB8
:104E4000003E003E003E003E003E003E003E003E72
:104E5000003E003E003E003E003EFF3FFF3F0000A0
:104E600000000000000000000000000000001FF82B
:104E70001FFC1FFC3FFE3FFE3FFE7FFF77FF77FFDB
:104E8000F7F7E7F7E7F3E7F3C7F307F007F007F003
:104E900007F000000000000000000000000000001B
:104EA00000000F7C0F7C0F7E0F7F0F7F8F7F8F7F27
:104EB000CF7FEF7BEF79FF79FF78FF787F783F78BE
:104EC0003F781F781F7800000000000000000000FD
:104ED000000000000000F007FC1F3E3E1F7C0F7822
:104EE0000F780FF80FF80FF80FF80FF80FF80F788A
:104EF0000F781F7C3E3EFC1FF00700000000000002
:104F000000000000000000000000FC3FFF3F1F3ECB
:104F10000F3E0F3E0F3E0F3E1F3E3F3EFC3FF03F19
:104F2000003E003E003E003E003E003E003E0000CF
:104F30000000000000000000000000000000F0077A
:104F4000FC1F3E3E1F7C0F780F780FF80FF80FF80C
:104F50000FF80FF80FF80F780F781F7C3E3EFC1FFC
:104F6000F8077C003F000F00030000000000000075
:104F70000000F03FFC3F7E3C3E3C1E3C1E3C3E3C65
:104F80003C3CFC3CF03FE03FF03DF83C7C3C3E3C90
:104F90001E3C1F3C0F3C0000000000000000000011
:104FA000000000000000FC07FE1F0E3E003C003C1D
:104FB000003C003EC01FF80FFE037F001F000F00E3
:104FC0000F001F203E3CFC3FF01F000000000000CF
:104FD00000000000000000000000FFFFFFFFE003F2
:104FE000E003E003E003E003E003E003E003E003A9
:104FF000E003E003E003E003E003E003E00300007C
:1050000000000000000000000000000000000F7C15
:105010000F7C0F7C0F7C0F7C0F7C0F7C0F7C0F7C38
:105020000F7C0F7C0F7C0F7C1E3C1E3C3E3EFC1F09
:10503000F007000000000000000000000000000079
:10504000000007F007F007F80F780F7C1E3C1E3CAD
:105050001E3E3C1E3C1F781F780FF80FF007F0072C
:10506000F007E003E0030000000000000000000083
:1050700000000000000003E003F003F007F0E7F396
:10508000E7F3E7F3E773F77BF77FFF7F7F7F7F7FB0
:105090007E7F7E3F3E3E3E3E3E3E000000000000E2
:1050A0000000000000000000000007F80F7C1E3E1A
:1050B0003E3E3C1FF80FF007E007E003E003F00777
:1050C000F80F7C0F7C1E3E3C1F780F780FF000001D
:1050D000000000000000000000000000000007F8D1
:1050E00007780F7C1E3C1E3E3C1F780FF80FF00720
:1050F000E003E003E003E003E003E003E003E00398
:10510000E0030000000000000000000000000000BC
:105110000000FF7FFF7F0F001F003E007C00F800B3
:10512000F000E001E003C007800F000F001E003E0A
:10513000007CFF7FFF7F00000000000000000000F7
:10514000FF078007800780078007800780078007A8
:105150008007800780078007800780078007800717
:105160008007800780078007800780078007FF0788
:10517000FF07000000780078003C003C001E001E85
:10518000000F000F80078007C003C003E001E001AB
:10519000F000F000780078003C003C001E001E008B
:1051A0000F000F0007000000F07FF000F000F0009B
:1051B000F000F000F000F000F000F000F000F0006F
:1051C000F000F000F000F000F000F000F000F0005F
:1051D000F000F000F000F07FF07F0000C000C001A0
:1051E000C001E003E003F007F0077807780F380FFD
:1051F0003C1E3C1E1E3C1E3C0F380F7807780000FA
:10520000000000000000000000000000000000009E
:10521000000000000000000000000000000000008E
:10522000000000000000000000000000000000007E
:1052300000000000000000000000FFFFFFFF000072
:1052400000000000F000000000000000000000006E
:10525000000000000000000000000000000000004E
:10526000000000000000000000000000000000003E
:10527000000000000000000000000000000000002E
:1052800000000000F80FFC3F7C3C3E003E003E006A
:10529000FE07FE1F3E3E3E7C3E783E7C7E7CFF3F0E
:1052A000CF1F00000000000000000000003C003C98
:1052B000003C003C003C003CF83DFE3F3E3F1F3EB2
:1052C0000F3C0F3C0F3C0F3C0F3C0F3C1F3C1E3C67
:1052D0003E3FFC3FF03B00000000000000000000EB
:1052E000000000000000000000000000FE03FF0FAF
:1052F000871F003E003E003C007C007C007C003CA0
:10530000003E003E871FFF0FFE030000000000006C
:10531000000000001F001F001F001F001F001F00D3
:10532000FF07FF1F3F3E1F3C1F7C1F7C1F7C1F7819
:105330001F781F7C1F7C3F3C7F3EFF1FDF0F00005C
:10534000000000000000000000000000000000005D
:1053500000000000F803FC0F3E1F1E3E1F3C1F7C98
:10536000FF7FFF7F007C007C003C003E071FFF0F9B
:10537000FE0300000000000000000000FF01E10348
:10538000C003C007C007C007FF7FFF7FC007C0077B
:10539000C007C007C007C007C007C007C007C007D5
:1053A000C007C007C00700000000000000000000A8
:1053B000000000000000000000000000EF07FF1FD9
:1053C0007F3E1F3C1F7C1F7C1F781F781F781F7C2F
:1053D0001F7C3F3C7F3EFF1FDF0F1E001E001E0094
:1053E0007C38F83F003C003C003C003C003C003C6A
:1053F000FC3DFE3F9E3F1F3F1F3E1F3C1F3C1F3C8E
:105400001F3C1F3C1F3C1F3C1F3C1F3C1F3C00001F
:105410000000000000000000F001F00100000000AA
:1054200000000000E07FE07FE001E001E001E0013A
:10543000E001E001E001E001E001E001E001E00164
:10544000E00100000000000000000000F800F8008B
:105450000000000000000000F83FF83FF800F800EE
:10546000F800F800F800F800F800F800F800F8007C
:10547000F800F800F800F800F800F000F071E07FA4
:10548000003C003C003C003C003C003C1F3C3E3CDF
:105490007C3CF83CF03DE03DC03FC03FE03FF03D8C
:1054A000F83C7C3C3E3C1F3C1F3C000000000000E0
:1054B00000000000F07FF001F001F001F001F001C8
:1054C000F001F001F001F001F001F001F001F00154
:1054D000F001F001F001F001F001F001F001000035
:1054E00000000000000000000000000000000000BC
:1054F000000000009EF7FFFFFFFFFFFFE7FBE7F95B
:10550000C7F1C7F1C7F1C7F1C7F1C7F1C7F1C7F1DB
:10551000C7F10000000000000000000000000000D3
:105520000000000000000000FC3DFE3F9E3F1F3FCA
:105530001F3E1F3C1F3C1F3C1F3C1F3C1F3C1F3C91
:105540001F3C1F3C1F3C000000000000000000004A
:10555000000000000000000000000000F007FC1F39
:105560003E3E1F3C1F7C0F780F780F780F780F7826
:105570001F7C1F3C3E3EFC1FF007000000000000A7
:10558000000000000000000000000000000000001B
:10559000F83DFE3F3E3F1F3E0F3C0F3C0F3C0F3C93
:1055A0000F3C0F3C1F3C1E3E3E3FFC3FF83F003C83
:1055B000003C003C003C003C0000000000000000FB
:1055C00000000000EE07FE1F7E3E1E3C1E7C1E7883
:1055D0001E781E781E781E781E7C3E7C7E3EFE1F46
:1055E000DE0F1E001E001E001E001E000000000038
:1055F00000000000000000007F1FFF1FE71FC71F03
:10560000871F001F001F001F001F001F001F001F1B
:10561000001F001F001F000000000000000000002D
:10562000000000000000000000000000FC07FE1F5A
:105630000E1E003E003E003FE01FFC07FE003E0045
:105640001E001E003E3CFC3FF01F0000000000005A
:1056500000000000000000000000800780078007B5
:10566000FF7FFF7F80078007800780078007800714
:105670008007800780078007C007FF03FF01000045
:10568000000000000000000000000000000000001A
:10569000000000001E3C1E3C1E3C1E3C1E3C1E3CEE
:1056A0001E3C1E3C1E3C1E3C3E3C7E3CFE3EFE1F05
:1056B000DE0F0000000000000000000000000000FD
:1056C000000000000000000007F00F780F781E3C7B
:1056D0001E3C1E3E3C1E3C1E780F780FF00FF0075C
:1056E000F007E003E00300000000000000000000FD
:1056F00000000000000000000000000003F0E3F1E3
:10570000E3F3E7F3F7F3F7F3F77F777F7F7F7F7FAD
:105710007F7F3E3E3E3E3E3E3E3E0000000000009B
:105720000000000000000000000000000000000079
:105730000F7C1E3E3C3E3C1FF80FF007F007E003D5
:10574000F007F807F80F7C1E3E3E1F3C1F78000054
:105750000000000000000000000000000000000049
:105760000000000007F80F780F7C1E3C1E3C3C1E1A
:105770003C1E3C1F780FF80FF007F007E003E00332
:10578000C003C003C0038007800F007F000000003B
:105790000000000000000000FF3FFF3F1F003E0030
:1057A0007C00F800F001E003C007800F001F001E1E
:1057B000003CFF7FFF7F00000000000000000000B1
:1057C000FE01E003C003C003C003C003E001E00129
:1057D000E001C001C003803F803FC003C001E00181
:1057E000E001E001C003C003C003C003E003FE0109
:1057F0007E000000C001C001C001C001C001C001A5
:10580000C001C001C001C001C001C001C001C00190
:10581000C001C001C001C001C001C001C001C00180
:10582000C001C001C0010000C03FE003E001E00191
:10583000E001E001C001C003C003C001E001FE00BF
:10584000FE00E001C001C003C003C001E001E001AF
:10585000E001E001E003C03F003F00000000000065
:105860000000000000000000000000000000000038
:105870000000073FC77FE773FFF17EF000000000E4
:105880000000000000000000000000000000000018
:10589000000000000021000000210000000008209E
:1058A000004000200001084100000000004000000E
:1058B00008000800080200000800080000000800B6
:1058C000000008000800080010420000000000204E
:1058D000000008410000000008210000000008400E
:1058E0000000082000000000080000000000082060
:1058F00008000000000000000000000000000000A0
:105900000802000000000002000200010000080080
:10591000080000000000000008000000082100014D
:105920000800082100000000000000000800080036
:1059300008410000000000200000000000010001FC
:105940000820000000600000100008000000002097
:1059500008000020000000000800080000000020EF
:105960000040000000210000006000600000100006
:1059700000200000082000000000100008000000C7
:10598000080000000020000008000800104200008D
:105990000861FFDFF7BEFFFFF7BDCE77F79BFFBBC8
:1059A000FFFBE6F9D637C5B5C5B4F779F799FFBA65
:1059B000FFDAEF38BDB4C5F4EF58F798F758FF9AFF
:1059C000E718C5F4C5D3DE96D655FFBAF7B9F7D9AF
:1059D000F7B9F799F79AF799F799FFDAFFDAF7B974
:1059E000FFBAF799FFBAFFBAFFB9FFBAF799FFDA22
:1059F000FFBAFFBAFFBAFFBAFFB9FFB9FFB9FFBAE2
:105A0000F77AFFFACE749CB1AD54C5D4DEB6FF9AD6
:105A1000FFBAF799FFB9FFB9F7B9FFDAEF58BDF34D
:105A2000F77AFFDBFFFBFFDAFFDAEF58EF58FFFBF7
:105A3000F799FFDAFFDAF7B9FFFADEF7BDF4EF59AD
:105A4000FFBCF7BBF7FCF7BBF75AFF7BFFFCF7BBCC
:105A5000F77BE73ABE15CE36FF7CF73AFFBCFFFC7A
:105A6000CE58C5D5F75AFFDDF79CB5759410A450F4
:105A7000B431C411CC93BC92BC72CC72CC72BC92C7
:105A8000C472BC92BCF4ACB2B4D3C5769CB3086209
:105A90000000FFFFFFFFF79DC636E6F7FFB9FF974F
:105AA000FF57DE34DE36B4F0CDB1FF76FF76FFD798
:105AB000F757D6539C8DCE32FFB6F754F775FFB724
:105AC000D633ACCEC5B1CDF2E6B4FFF8FFD7FFF7C1
:105AD000FFF7FFD7FFD7FFB7FFB6FFF7FFD7FFB638
