:020000040800F2
:1000000000800020F5040008D9040008DB04000883
:10001000DD040008DF040008E1040008000000001F
:10002000000000000000000000000000E3040008E1
:10003000E504000800000000E7040008E9040008E7
:100040004505000845050008450500084505000868
:100050004505000845050008450500084505000858
:100060004505000845050008450500084505000848
:100070004505000845050008450500084505000838
:10008000450500080000000045050008450500087A
:100090004505000845050008450500084505000818
:1000A0004505000845050008450500084505000808
:1000B00045050008450500084505000845050008F8
:1000C00045050008450500084505000845050008E8
:1000D00045050008450500084505000845050008D8
:1000E00045050008450500084505000845050008C8
:1000F000450500084505000845050008000000000A
:10010000000000004505000800000000450500084B
:1001100045050008000000004505000845050008E9
:100120004505000845050008450500084505000887
:10013000450500080000000000000000450500081B
:10014000450500084505000800000000000000000B
:10015000000000000000000000000000000000009F
:10016000000000000000000000000000450500083D
:10017000450500080000000000000000000000002D
:10018000000000004505000800000000000000001D
:10019000000000000000000000000000000000005F
:1001A00000000000000000004505000845050008AB
:1001B0004505000845050008450500080000000049
:1001C00000000000450500080000000000000000DD
:0801D000450500084505000883
:1001D8000348044B834202D0034B03B118477047CE
:1001E8003C0400203C0400200000000005480649AB
:1001F8000B1AD90F01EBA301491002D0034B03B12D
:10020800184770473C0400203C0400200000000010
:1002180010B5064C237843B9FFF7DAFF044B13B146
:100228000448AFF300800123237010BD3C04002074
:1002380000000000840F000808B5044B1BB10449F6
:100248000448AFF30080BDE80840CFE70000000095
:1002580040040020840F0008002301461A4618466F
:1002680000F08CB838B5084B084D5B1B9C1007D0C4
:10027800043B1D44013C55F804399847002CF9D13A
:10028800BDE8384000F080BEBC0F0008B80F000879
:1002980070B50D4E0D4D761BB61006D0002455F8DE
:1002A800043B01349847A642F9D1094E094D761B03
:1002B80000F064FEB61006D0002455F8043B013463
:1002C8009847A642F9D170BDB00F0008B00F0008DA
:1002D800B80F0008B00F0008830730B548D0541E87
:1002E800002A3FD0CAB2034601E0013C3AD303F8E2
:1002F800012B9D07F9D1032C2DD9CDB245EA05254F
:100308000F2C45EA054536D9A4F1100222F00F0C4E
:1003180003F1200EE6444FEA121C03F1100242E9F1
:10032800045542E9025510327245F8D10CF1010228
:1003380014F00C0F03EB021204F00F0C13D0ACF105
:10034800040323F003030433134442F8045B934289
:10035800FBD10CF003042CB1CAB21C4403F8012BE6
:100368009C42FBD130BD64461346002CF4D1F9E71A
:1003780003461446BFE71A46A446E0E770B4184C93
:100388002568D5F848411CB365681F2D25DC38B9A8
:10039800AB1C0135656044F82310002070BC704721
:1003A80004EB850C0228CCF88820D4F888614FF03B
:1003B800010202FA05F246EA0206C4F88861CCF89E
:1003C8000831E5D1D4F88C311343C4F88C31DFE718
:1003D80005F5A674C5F84841D6E74FF0FF30DDE7CC
:1003E8009C0F000882B00A4BDA6C42F02002DA64F3
:1003F800DA6C02F020020092009ADA6C42F00102F4
:10040800DA64DB6C03F001030193019B02B07047CF
:100418000010024072B6FEE700B595B03822002100
:1004280006A8FFF759FF002001900290039004905E
:10043800059000F02DF9012306934FF480330793BC
:1004480002230D9303220E920F93552210921193BB
:100458001293139306A800F0D5F980B90F230193DE
:1004680003230293002303930493059304210DEBC4
:10047800010000F07DFC20B915B05DF804FBFFF722
:10048800C9FFFFF7C7FF08B500F082F8FFF7C4FF00
:10049800FFF7A8FFFEE7000000B583B00B4B1A6E0C
:1004A80042F001021A661A6E02F001020092009AE6
:1004B8009A6D42F080529A659B6D03F080530193C8
:1004C800019B00F06BF903B05DF804FB00100240DB
:1004D800FEE7FEE7FEE7FEE7FEE770477047704776
:1004E80008B500F065F808BD704700000D4885465E
:1004F800FFF7FAFF0C480D490D4A002302E0D458D3
:10050800C4500433C4188C42F9D30A4A0A4C002355
:1005180001E013600432A242FBD3FFF7B9FEFFF7F4
:10052800B2FFFEE700800020000000203C0400200D
:10053800BC0F00083C0400205C040020FEE700001B
:10054800104B1B680BB90120704710B504464FF4D7
:100558007A70B0FBF3F30C4A1068B0FBF3F000F0CC
:1005680083F868B90F2C01D901200AE0002221463E
:100578004FF0FF3000F040F8044B1C60002000E012
:10058800012010BD3404002030040020380400206D
:1005980010B5032000F01EF80F20FFF7D1FF10B1AF
:1005A8000124204610BD0446FFF776FFF9E7000056
:1005B800034A1368034909680B441360704700BF76
:1005C8005804002034040020014B1868704700BF0D
:1005D80058040020074AD36823F4E0631B041B0C6B
:1005E800000200F4E060034343F0BF6343F40033C8
:1005F800D360704700ED00E000B5194BDB68C3F32A
:100608000223C3F1070CBCF1040F28BF4FF0040C00
:1006180003F1040EBEF1060F18D9033B4FF0FF3E5D
:100628000EFA0CFC21EA0C0199400EFA03F322EAB7
:100638000303194300280BDB0901C9B200F160402C
:1006480000F5614080F800135DF804FB0023E5E73E
:1006580000F00F000901C9B2024B1954F4E700BFBA
:1006680000ED00E014ED00E00138B0F1807F0BD21E
:100678004FF0E0235861054AF02182F8231000204A
:10068800986107221A6170470120704700ED00E069
:10069800002836D13E4B1B6803F4C063B3F5806F66
:1006A80008D03B4AD2F8803023F48073C2F88030F7
:1006B80000207047364AD2F8803023F48073C2F89D
:1006C8008030136823F4C06343F400731360314B24
:1006D8001B68322202FB03F32F4AA2FB03239B0C65
:1006E800013300E0013B2A4A526912F4806F01D0BD
:1006F800002BF7D1264B5B6913F4806F44D100209F
:100708007047B0F5007F08D0214A136823F4C0630E
:1007180043F480631360002070471D4B1B6803F48B
:10072800C063B3F5806F08D0194AD2F8803043F41B
:100738008073C2F8803000207047154AD2F88030A4
:1007480043F48073C2F88030136823F4C06343F421
:10075800007313600F4B1B68322202FB03F30E4A2F
:10076800A2FB03239B0C013300E0013B084A5269BA
:1007780012F4806F01D0002BF7D1054B5B6913F49D
:10078800806F03D100207047032070470320704713
:10079800007000403004002083DE1B43024A936847
:1007A80043F480439360704700700040124BDA684E
:1007B80002F00302D868C0F30310431C032A11D0C7
:1007C8000E48B0FBF3F00C4BDB68C3F3062303FBC6
:1007D80000F0094BDB68C3F3416301335B00B0FBF6
:1007E800F3F070470648B0FBF3F0034BDB68C3F344
:1007F800062303FB00F0ECE7001002400024F4009D
:1008080000127A00002800F04F8270B582B00446CA
:10081800036813F0010F37D0A44A936803F00C0360
:10082800D26802F003020C2B23D0082B23D0636874
:10083800B3F5803F4ED0B3F5A02F51D09B4B1A682B
:1008480022F480321A601A6822F480221A606368DF
:10085800002B52D0FFF7B8FE0546944B1B6813F4E3
:10086800003F11D1FFF7B0FE401B6428F5D90320E3
:1008780023E2032AD9D18D4B1B6813F4003F03D020
:100888006368002B00F01282236813F0020F5DD01A
:10089800864A936803F00C03D26802F003020C2B1B
:1008A8003AD0042B3AD0E368002B75D07F4A1368FE
:1008B80043F480731360FFF787FE05467B4B1B6884
:1008C80013F4806F5FD1FFF77FFE401B0228F5D934
:1008D8000320F2E1754A136843F480331360B6E7E6
:1008E80003F18043A3F53C331A6842F480221A606E
:1008F8001A6842F480321A60A9E7FFF765FE0546D8
:100908006A4B1B6813F4003FBED0FFF75DFE401B27
:100918006428F5D90320D0E1022AC2D1634B1B68B1
:1009280013F4806F03D0E368002B00F0C1815F4AA5
:10093800536823F0FE43216943EA016353605C4B2B
:100948001868FFF7FDFD002840F0B481236813F014
:10095800080F4CD063699BB3544AD2F8943043F0E3
:100968000103C2F89430FFF72FFE05464F4BD3F82A
:10097800943013F0020F3AD1FFF726FE401B0228ED
:10098800F4D9032099E1494A536823F0FE432169C9
:1009980043EA01635360D9E7444A136823F4807338
:1009A8001360FFF711FE0546404B1B6813F4806F78
:1009B800CCD0FFF709FE401B0228F5D903207CE1C3
:1009C8003A4AD2F8943023F00103C2F89430FFF782
:1009D800FBFD0546354BD3F8943013F0020F06D0D3
:1009E800FFF7F2FD401B0228F4D9032065E12368D4
:1009F80013F0040F00F081802C4B9B6D13F0805F87
:100A080036D12A4B9A6D42F080529A659B6D03F05D
:100A180080530193019B0125264B1B6813F4807FAB
:100A280028D0A368012B39D0052B45D01F4BD3F80C
:100A3800902022F00102C3F89020D3F8902022F0F1
:100A48000402C3F89020A368002B43D0FFF7BCFD35
:100A58000646164BD3F8903013F0020F4CD1FFF72F
:100A6800B3FD801B41F288339842F2D9032024E178
:100A78000025D1E70F4A136843F480731360FFF72A
:100A8800A3FD06460B4B1B6813F4807FC9D1FFF703
:100A98009BFD801B0228F5D903200EE1034AD2F8FA
:100AA800903043F00103C2F89030CCE700100240C8
:100AB8003804002000700040884BD3F8902042F0A2
:100AC8000402C3F89020D3F8902042F00102C3F842
:100AD8009020B8E7FFF778FD0646804BD3F89030B2
:100AE80013F0020F08D0FFF76FFD801B41F2883327
:100AF8009842F2D90320E0E0E5B9236813F0200F0B
:100B080035D0A369E3B1754AD2F8983043F00103B0
:100B1800C2F89830FFF758FD0546704BD3F8983067
:100B280013F0020F23D1FFF74FFD401B0228F4D921
:100B38000320C2E0694A936D23F080539365DCE794
:100B4800664AD2F8983023F00103C2F89830FFF7CC
:100B58003BFD0546614BD3F8983013F0020F06D0E1
:100B6800FFF732FD401B0228F4D90320A5E0E36912
:100B7800002B00F0A180594A926802F00C020C2A5E
:100B880064D0022B13D0554A136823F08073136086
:100B9800FFF71AFD0446514B1B6813F0007F4ED037
:100BA800FFF712FD001B0228F5D9032085E04B4A08
:100BB800136823F080731360FFF706FD0546474B63
:100BC8001B6813F0007F06D0FFF7FEFC401B0228CD
:100BD800F5D9032071E0414AD36841491940236A95
:100BE800606A013843EA0013A06A43EA0023206BD5
:100BF8004008013843EA4053606B4008013843EA33
:100C08004063E06A43EAC0630B43D360136843F070
:100C180080731360D36843F08073D360FFF7D4FC0C
:100C280004462E4B1B6813F0007F06D1FFF7CCFC5F
:100C3800001B0228F5D903203FE000203DE0274AA9
:100C4800D168284B0B40D360002036E0012B36D00A
:100C5800224BDB6803F00301226A914231D103F091
:100C6800F002616A0139B2EB011F2CD103F4FE4294
:100C7800A16AB2EB012F28D103F07842E16AB2EB06
:100C8800C16F24D103F4C001226B5208013AB1EBC1
:100C9800425F1ED103F0C063626B5208013AB3EBA6
:100CA800426F18D1002008E001207047012004E0BD
:100CB800012002E0012000E0002002B070BD012008
:100CC800FBE70120F9E70120F7E70120F5E701201C
:100CD800F3E70120F1E70120EFE700BF0010024031
:100CE8000C809F01FCFFEEFE1E4B9B6803F00C037B
:100CF800042B33D01B4B9B6803F00C03082B2FD01D
:100D0800184B9B6803F00C030C2B01D00020704794
:100D1800144BDA6802F00302D868C0F30310431CCE
:100D2800032A11D01048B0FBF3F00E4BDB68C3F375
:100D3800062303FB00F00B4BDB68C3F3416301336D
:100D48005B00B0FBF3F070470848B0FBF3F0054BCD
:100D5800DB68C3F3062303FB00F0ECE702487047A7
:100D680002487047001002400024F40000127A0084
:100D7800002800F0E680F8B50C460546744B1B6861
:100D880003F00F038B420BD2714A136823F00F0351
:100D98000B431360136803F00F038B4240F0D380BA
:100DA8002E6816F001065FD06B68032B2FD0022B3C
:100DB8004DD0684B1B6813F4806F00F0C680FFF7B6
:100DC80093FF654B98424DD9624A936823F0F0032C
:100DD80043F08003936080265E4A936823F0030300
:100DE80069680B439360FFF7EFFB0746594B9B6815
:100DF80003F00C036A68B3EB820F35D0FFF7E4FB0E
:100E0800C01B41F288339842F0D9032078E0514B57
:100E18001B6813F0007F01D1012071E0FFF7C6FCC9
:100E28004D4B98421AD94B4B9B6813F0F00F05D0E5
:100E38002E6816F00206CFD0AB688BB9454A936886
:100E480023F0F00343F0800393608026C4E7414B0E
:100E58001B6813F4003FB2D1012051E00026BBE724
:100E68000026B9E70026B7E72B6813F0020F48D031
:100E780013F0040F04D0374A936843F4E063936097
:100E88002B6813F0080F06D0324A936823F47C537A
:100E980043F4E06393602F4A936823F0F003A96852
:100EA8000B4393602A4B1B6803F00F03A34230D80F
:100EB8002B6813F0040F06D0264A936823F4E063E6
:100EC800E9680B4393602B6813F0080F07D0214A99
:100ED800936823F46053296943EAC1039360FFF7D9
:100EE80003FF1C4B9B68C3F303131C4AD35C03F03A
:100EF8001F03D8401A4B18601A4B1868FFF720FBDD
:100F0800F8BD802ECED1134A936823F0F003936086
:100F1800C8E70F4A136823F00F0323431360FFF752
:100F280053FB06460A4B1B6803F00F03A342BFD0CE
:100F3800FFF74AFB801B41F288339842F2D903201D
:100F4800DEE7012070470120DAE70120D8E700BF7B
:100F5800002002400010024000B4C404A00F0008A2
:100F68003004002038040020024B13B10248FFF778
:100F780073B97047000000006D020008F8B500BFA3
:100F8800F8BC08BC9E467047F8B500BFF8BC08BC62
:040F98009E467047BA
:100F9C000800002000000000000000000102030413
:040FAC000607080923
:080FB000710F00084102000866
:040FB8001902000812
:100FBC00080000200000000000000000F4020020E7
:100FCC005C030020C40300200000000000000000AF
:100FDC000000000000000000000000000000000005
:100FEC0000000000000000000000000000000000F5
:100FFC0000000000000000000000000000000000E5
:10100C0000000000000000000000000000000000D4
:10101C0000000000000000000000000000000000C4
:10102C0000000000000000000000000000000000B4
:10103C0000000000000000000000000000000000A4
:10104C000000000000000000000000000000000094
:10105C000000000000000000000000000000000084
:10106C0001000000000000000E33CDAB34126DE621
:10107C00ECDE05000B00000000000000000000008A
:10108C000000000000000000000000000000000054
:10109C000000000000000000000000000000000044
:1010AC000000000000000000000000000000000034
:1010BC000000000000000000000000000000000024
:0C13EC000024F4000100000010000000CC
:04000005080004F5F6
:00000001FF
